Archive member included to satisfy reference by file (symbol)

c:/st/stm32cubeide_1.2.0/stm32cubeide/plugins/com.st.stm32cube.ide.mcu.externaltools.gnu-tools-for-stm32.7-2018-q2-update.win32_1.0.0.201904181610/tools/bin/../lib/gcc/arm-none-eabi/7.3.1/../../../../arm-none-eabi/lib/thumb/v7e-m/fpv4-sp/hard\libc_nano.a(lib_a-errno.o)
                              Core/Src/syscalls.o (__errno)
c:/st/stm32cubeide_1.2.0/stm32cubeide/plugins/com.st.stm32cube.ide.mcu.externaltools.gnu-tools-for-stm32.7-2018-q2-update.win32_1.0.0.201904181610/tools/bin/../lib/gcc/arm-none-eabi/7.3.1/../../../../arm-none-eabi/lib/thumb/v7e-m/fpv4-sp/hard\libc_nano.a(lib_a-exit.o)
                              c:/st/stm32cubeide_1.2.0/stm32cubeide/plugins/com.st.stm32cube.ide.mcu.externaltools.gnu-tools-for-stm32.7-2018-q2-update.win32_1.0.0.201904181610/tools/bin/../lib/gcc/arm-none-eabi/7.3.1/../../../../arm-none-eabi/lib/thumb/v7e-m/fpv4-sp/hard/crt0.o (exit)
c:/st/stm32cubeide_1.2.0/stm32cubeide/plugins/com.st.stm32cube.ide.mcu.externaltools.gnu-tools-for-stm32.7-2018-q2-update.win32_1.0.0.201904181610/tools/bin/../lib/gcc/arm-none-eabi/7.3.1/../../../../arm-none-eabi/lib/thumb/v7e-m/fpv4-sp/hard\libc_nano.a(lib_a-impure.o)
                              c:/st/stm32cubeide_1.2.0/stm32cubeide/plugins/com.st.stm32cube.ide.mcu.externaltools.gnu-tools-for-stm32.7-2018-q2-update.win32_1.0.0.201904181610/tools/bin/../lib/gcc/arm-none-eabi/7.3.1/../../../../arm-none-eabi/lib/thumb/v7e-m/fpv4-sp/hard\libc_nano.a(lib_a-exit.o) (_global_impure_ptr)
c:/st/stm32cubeide_1.2.0/stm32cubeide/plugins/com.st.stm32cube.ide.mcu.externaltools.gnu-tools-for-stm32.7-2018-q2-update.win32_1.0.0.201904181610/tools/bin/../lib/gcc/arm-none-eabi/7.3.1/../../../../arm-none-eabi/lib/thumb/v7e-m/fpv4-sp/hard\libc_nano.a(lib_a-init.o)
                              c:/st/stm32cubeide_1.2.0/stm32cubeide/plugins/com.st.stm32cube.ide.mcu.externaltools.gnu-tools-for-stm32.7-2018-q2-update.win32_1.0.0.201904181610/tools/bin/../lib/gcc/arm-none-eabi/7.3.1/../../../../arm-none-eabi/lib/thumb/v7e-m/fpv4-sp/hard/crt0.o (__libc_init_array)
c:/st/stm32cubeide_1.2.0/stm32cubeide/plugins/com.st.stm32cube.ide.mcu.externaltools.gnu-tools-for-stm32.7-2018-q2-update.win32_1.0.0.201904181610/tools/bin/../lib/gcc/arm-none-eabi/7.3.1/../../../../arm-none-eabi/lib/thumb/v7e-m/fpv4-sp/hard\libc_nano.a(lib_a-memcpy-stub.o)
                              Core/Src/RS485Prot.o (memcpy)
c:/st/stm32cubeide_1.2.0/stm32cubeide/plugins/com.st.stm32cube.ide.mcu.externaltools.gnu-tools-for-stm32.7-2018-q2-update.win32_1.0.0.201904181610/tools/bin/../lib/gcc/arm-none-eabi/7.3.1/../../../../arm-none-eabi/lib/thumb/v7e-m/fpv4-sp/hard\libc_nano.a(lib_a-memset.o)
                              c:/st/stm32cubeide_1.2.0/stm32cubeide/plugins/com.st.stm32cube.ide.mcu.externaltools.gnu-tools-for-stm32.7-2018-q2-update.win32_1.0.0.201904181610/tools/bin/../lib/gcc/arm-none-eabi/7.3.1/../../../../arm-none-eabi/lib/thumb/v7e-m/fpv4-sp/hard/crt0.o (memset)

Allocating common symbols
Common symbol       size              file

RX_BUFF             0x15              Core/Src/RS485Prot.o
TX_BUFF             0x15              Core/Src/RS485Prot.o
hi2c1               0x4c              Core/Src/i2c.o
uwTick              0x4               Drivers/STM32F3xx_HAL_Driver/Src/stm32f3xx_hal.o
pFlash              0x20              Drivers/STM32F3xx_HAL_Driver/Src/stm32f3xx_hal_flash.o
_dataProtocol       0x15              Core/Src/RS485Prot.o
huart2              0x84              Core/Src/usart.o
_model_state        0x16              Core/Src/HID_Manual_LOGIC.o

Discarded input sections

 .text          0x0000000000000000        0x0 c:/st/stm32cubeide_1.2.0/stm32cubeide/plugins/com.st.stm32cube.ide.mcu.externaltools.gnu-tools-for-stm32.7-2018-q2-update.win32_1.0.0.201904181610/tools/bin/../lib/gcc/arm-none-eabi/7.3.1/thumb/v7e-m/fpv4-sp/hard/crti.o
 .data          0x0000000000000000        0x0 c:/st/stm32cubeide_1.2.0/stm32cubeide/plugins/com.st.stm32cube.ide.mcu.externaltools.gnu-tools-for-stm32.7-2018-q2-update.win32_1.0.0.201904181610/tools/bin/../lib/gcc/arm-none-eabi/7.3.1/thumb/v7e-m/fpv4-sp/hard/crti.o
 .bss           0x0000000000000000        0x0 c:/st/stm32cubeide_1.2.0/stm32cubeide/plugins/com.st.stm32cube.ide.mcu.externaltools.gnu-tools-for-stm32.7-2018-q2-update.win32_1.0.0.201904181610/tools/bin/../lib/gcc/arm-none-eabi/7.3.1/thumb/v7e-m/fpv4-sp/hard/crti.o
 .data          0x0000000000000000        0x4 c:/st/stm32cubeide_1.2.0/stm32cubeide/plugins/com.st.stm32cube.ide.mcu.externaltools.gnu-tools-for-stm32.7-2018-q2-update.win32_1.0.0.201904181610/tools/bin/../lib/gcc/arm-none-eabi/7.3.1/thumb/v7e-m/fpv4-sp/hard/crtbegin.o
 .text          0x0000000000000000       0x74 c:/st/stm32cubeide_1.2.0/stm32cubeide/plugins/com.st.stm32cube.ide.mcu.externaltools.gnu-tools-for-stm32.7-2018-q2-update.win32_1.0.0.201904181610/tools/bin/../lib/gcc/arm-none-eabi/7.3.1/../../../../arm-none-eabi/lib/thumb/v7e-m/fpv4-sp/hard/crt0.o
 .data          0x0000000000000000        0x0 c:/st/stm32cubeide_1.2.0/stm32cubeide/plugins/com.st.stm32cube.ide.mcu.externaltools.gnu-tools-for-stm32.7-2018-q2-update.win32_1.0.0.201904181610/tools/bin/../lib/gcc/arm-none-eabi/7.3.1/../../../../arm-none-eabi/lib/thumb/v7e-m/fpv4-sp/hard/crt0.o
 .bss           0x0000000000000000        0x0 c:/st/stm32cubeide_1.2.0/stm32cubeide/plugins/com.st.stm32cube.ide.mcu.externaltools.gnu-tools-for-stm32.7-2018-q2-update.win32_1.0.0.201904181610/tools/bin/../lib/gcc/arm-none-eabi/7.3.1/../../../../arm-none-eabi/lib/thumb/v7e-m/fpv4-sp/hard/crt0.o
 .ARM.extab     0x0000000000000000        0x0 c:/st/stm32cubeide_1.2.0/stm32cubeide/plugins/com.st.stm32cube.ide.mcu.externaltools.gnu-tools-for-stm32.7-2018-q2-update.win32_1.0.0.201904181610/tools/bin/../lib/gcc/arm-none-eabi/7.3.1/../../../../arm-none-eabi/lib/thumb/v7e-m/fpv4-sp/hard/crt0.o
 .ARM.exidx     0x0000000000000000        0x8 c:/st/stm32cubeide_1.2.0/stm32cubeide/plugins/com.st.stm32cube.ide.mcu.externaltools.gnu-tools-for-stm32.7-2018-q2-update.win32_1.0.0.201904181610/tools/bin/../lib/gcc/arm-none-eabi/7.3.1/../../../../arm-none-eabi/lib/thumb/v7e-m/fpv4-sp/hard/crt0.o
 .ARM.attributes
                0x0000000000000000       0x20 c:/st/stm32cubeide_1.2.0/stm32cubeide/plugins/com.st.stm32cube.ide.mcu.externaltools.gnu-tools-for-stm32.7-2018-q2-update.win32_1.0.0.201904181610/tools/bin/../lib/gcc/arm-none-eabi/7.3.1/../../../../arm-none-eabi/lib/thumb/v7e-m/fpv4-sp/hard/crt0.o
 .group         0x0000000000000000        0xc Core/Src/HID_Manual_LOGIC.o
 .group         0x0000000000000000        0xc Core/Src/HID_Manual_LOGIC.o
 .group         0x0000000000000000        0xc Core/Src/HID_Manual_LOGIC.o
 .group         0x0000000000000000        0xc Core/Src/HID_Manual_LOGIC.o
 .group         0x0000000000000000        0xc Core/Src/HID_Manual_LOGIC.o
 .group         0x0000000000000000        0xc Core/Src/HID_Manual_LOGIC.o
 .group         0x0000000000000000        0xc Core/Src/HID_Manual_LOGIC.o
Memory Configuration

Name             Origin             Length             Attributes
CCMRAM           0x0000000010000000 0x0000000000001000 xrw
RAM              0x0000000020000000 0x0000000000003000 xrw
FLASH            0x0000000008000000 0x0000000000010000 xr
*default*        0x0000000000000000 0xffffffffffffffff

Linker script and memory map

LOAD c:/st/stm32cubeide_1.2.0/stm32cubeide/plugins/com.st.stm32cube.ide.mcu.externaltools.gnu-tools-for-stm32.7-2018-q2-update.win32_1.0.0.201904181610/tools/bin/../lib/gcc/arm-none-eabi/7.3.1/thumb/v7e-m/fpv4-sp/hard/crti.o
LOAD c:/st/stm32cubeide_1.2.0/stm32cubeide/plugins/com.st.stm32cube.ide.mcu.externaltools.gnu-tools-for-stm32.7-2018-q2-update.win32_1.0.0.201904181610/tools/bin/../lib/gcc/arm-none-eabi/7.3.1/thumb/v7e-m/fpv4-sp/hard/crtbegin.o
LOAD c:/st/stm32cubeide_1.2.0/stm32cubeide/plugins/com.st.stm32cube.ide.mcu.externaltools.gnu-tools-for-stm32.7-2018-q2-update.win32_1.0.0.201904181610/tools/bin/../lib/gcc/arm-none-eabi/7.3.1/../../../../arm-none-eabi/lib/thumb/v7e-m/fpv4-sp/hard/crt0.o
LOAD Core/Src/HID_Manual_LOGIC.o
LOAD Core/Src/LSM6DS0.o
LOAD Core/Src/RS485Prot.o
LOAD Core/Src/gpio.o
LOAD Core/Src/i2c.o
LOAD Core/Src/main.o
LOAD Core/Src/stm32f3xx_hal_msp.o
LOAD Core/Src/stm32f3xx_it.o
LOAD Core/Src/syscalls.o
LOAD Core/Src/sysmem.o
LOAD Core/Src/system_stm32f3xx.o
LOAD Core/Src/usart.o
LOAD Core/Startup/startup_stm32f334r8tx.o
LOAD Drivers/STM32F3xx_HAL_Driver/Src/stm32f3xx_hal.o
LOAD Drivers/STM32F3xx_HAL_Driver/Src/stm32f3xx_hal_cortex.o
LOAD Drivers/STM32F3xx_HAL_Driver/Src/stm32f3xx_hal_dma.o
LOAD Drivers/STM32F3xx_HAL_Driver/Src/stm32f3xx_hal_exti.o
LOAD Drivers/STM32F3xx_HAL_Driver/Src/stm32f3xx_hal_flash.o
LOAD Drivers/STM32F3xx_HAL_Driver/Src/stm32f3xx_hal_flash_ex.o
LOAD Drivers/STM32F3xx_HAL_Driver/Src/stm32f3xx_hal_gpio.o
LOAD Drivers/STM32F3xx_HAL_Driver/Src/stm32f3xx_hal_i2c.o
LOAD Drivers/STM32F3xx_HAL_Driver/Src/stm32f3xx_hal_i2c_ex.o
LOAD Drivers/STM32F3xx_HAL_Driver/Src/stm32f3xx_hal_pwr.o
LOAD Drivers/STM32F3xx_HAL_Driver/Src/stm32f3xx_hal_pwr_ex.o
LOAD Drivers/STM32F3xx_HAL_Driver/Src/stm32f3xx_hal_rcc.o
LOAD Drivers/STM32F3xx_HAL_Driver/Src/stm32f3xx_hal_rcc_ex.o
LOAD Drivers/STM32F3xx_HAL_Driver/Src/stm32f3xx_hal_tim.o
LOAD Drivers/STM32F3xx_HAL_Driver/Src/stm32f3xx_hal_tim_ex.o
LOAD Drivers/STM32F3xx_HAL_Driver/Src/stm32f3xx_hal_uart.o
LOAD Drivers/STM32F3xx_HAL_Driver/Src/stm32f3xx_hal_uart_ex.o
START GROUP
LOAD c:/st/stm32cubeide_1.2.0/stm32cubeide/plugins/com.st.stm32cube.ide.mcu.externaltools.gnu-tools-for-stm32.7-2018-q2-update.win32_1.0.0.201904181610/tools/bin/../lib/gcc/arm-none-eabi/7.3.1/../../../../arm-none-eabi/lib/thumb/v7e-m/fpv4-sp/hard\libc_nano.a
LOAD c:/st/stm32cubeide_1.2.0/stm32cubeide/plugins/com.st.stm32cube.ide.mcu.externaltools.gnu-tools-for-stm32.7-2018-q2-update.win32_1.0.0.201904181610/tools/bin/../lib/gcc/arm-none-eabi/7.3.1/../../../../arm-none-eabi/lib/thumb/v7e-m/fpv4-sp/hard\libm.a
END GROUP
START GROUP
LOAD c:/st/stm32cubeide_1.2.0/stm32cubeide/plugins/com.st.stm32cube.ide.mcu.externaltools.gnu-tools-for-stm32.7-2018-q2-update.win32_1.0.0.201904181610/tools/bin/../lib/gcc/arm-none-eabi/7.3.1/thumb/v7e-m/fpv4-sp/hard\libgcc.a
LOAD c:/st/stm32cubeide_1.2.0/stm32cubeide/plugins/com.st.stm32cube.ide.mcu.externaltools.gnu-tools-for-stm32.7-2018-q2-update.win32_1.0.0.201904181610/tools/bin/../lib/gcc/arm-none-eabi/7.3.1/../../../../arm-none-eabi/lib/thumb/v7e-m/fpv4-sp/hard\libc_nano.a
END GROUP
START GROUP
LOAD c:/st/stm32cubeide_1.2.0/stm32cubeide/plugins/com.st.stm32cube.ide.mcu.externaltools.gnu-tools-for-stm32.7-2018-q2-update.win32_1.0.0.201904181610/tools/bin/../lib/gcc/arm-none-eabi/7.3.1/thumb/v7e-m/fpv4-sp/hard\libgcc.a
LOAD c:/st/stm32cubeide_1.2.0/stm32cubeide/plugins/com.st.stm32cube.ide.mcu.externaltools.gnu-tools-for-stm32.7-2018-q2-update.win32_1.0.0.201904181610/tools/bin/../lib/gcc/arm-none-eabi/7.3.1/../../../../arm-none-eabi/lib/thumb/v7e-m/fpv4-sp/hard\libc_nano.a
LOAD c:/st/stm32cubeide_1.2.0/stm32cubeide/plugins/com.st.stm32cube.ide.mcu.externaltools.gnu-tools-for-stm32.7-2018-q2-update.win32_1.0.0.201904181610/tools/bin/../lib/gcc/arm-none-eabi/7.3.1/../../../../arm-none-eabi/lib/thumb/v7e-m/fpv4-sp/hard\libnosys.a
END GROUP
START GROUP
LOAD c:/st/stm32cubeide_1.2.0/stm32cubeide/plugins/com.st.stm32cube.ide.mcu.externaltools.gnu-tools-for-stm32.7-2018-q2-update.win32_1.0.0.201904181610/tools/bin/../lib/gcc/arm-none-eabi/7.3.1/thumb/v7e-m/fpv4-sp/hard\libgcc.a
LOAD c:/st/stm32cubeide_1.2.0/stm32cubeide/plugins/com.st.stm32cube.ide.mcu.externaltools.gnu-tools-for-stm32.7-2018-q2-update.win32_1.0.0.201904181610/tools/bin/../lib/gcc/arm-none-eabi/7.3.1/../../../../arm-none-eabi/lib/thumb/v7e-m/fpv4-sp/hard\libc_nano.a
LOAD c:/st/stm32cubeide_1.2.0/stm32cubeide/plugins/com.st.stm32cube.ide.mcu.externaltools.gnu-tools-for-stm32.7-2018-q2-update.win32_1.0.0.201904181610/tools/bin/../lib/gcc/arm-none-eabi/7.3.1/../../../../arm-none-eabi/lib/thumb/v7e-m/fpv4-sp/hard\libnosys.a
END GROUP
LOAD c:/st/stm32cubeide_1.2.0/stm32cubeide/plugins/com.st.stm32cube.ide.mcu.externaltools.gnu-tools-for-stm32.7-2018-q2-update.win32_1.0.0.201904181610/tools/bin/../lib/gcc/arm-none-eabi/7.3.1/thumb/v7e-m/fpv4-sp/hard/crtend.o
LOAD c:/st/stm32cubeide_1.2.0/stm32cubeide/plugins/com.st.stm32cube.ide.mcu.externaltools.gnu-tools-for-stm32.7-2018-q2-update.win32_1.0.0.201904181610/tools/bin/../lib/gcc/arm-none-eabi/7.3.1/thumb/v7e-m/fpv4-sp/hard/crtn.o
                0x0000000020003000                _estack = (ORIGIN (RAM) + LENGTH (RAM))
                0x0000000000000200                _Min_Heap_Size = 0x200
                0x0000000000000400                _Min_Stack_Size = 0x400

.isr_vector     0x0000000008000000      0x188
                0x0000000008000000                . = ALIGN (0x4)
 *(.isr_vector)
 .isr_vector    0x0000000008000000      0x188 Core/Startup/startup_stm32f334r8tx.o
                0x0000000008000000                g_pfnVectors
                0x0000000008000188                . = ALIGN (0x4)

.text           0x0000000008000188     0x5404
                0x0000000008000188                . = ALIGN (0x4)
 *(.text)
 .text          0x0000000008000188       0x40 c:/st/stm32cubeide_1.2.0/stm32cubeide/plugins/com.st.stm32cube.ide.mcu.externaltools.gnu-tools-for-stm32.7-2018-q2-update.win32_1.0.0.201904181610/tools/bin/../lib/gcc/arm-none-eabi/7.3.1/thumb/v7e-m/fpv4-sp/hard/crtbegin.o
 *(.text*)
 .text.__NVIC_EnableIRQ
                0x00000000080001c8       0x3c Core/Src/HID_Manual_LOGIC.o
 .text.TIM6_DAC1_IRQHandler
                0x0000000008000204       0x40 Core/Src/HID_Manual_LOGIC.o
                0x0000000008000204                TIM6_DAC1_IRQHandler
 .text.TIM7_DAC2_IRQHandler
                0x0000000008000244       0x28 Core/Src/HID_Manual_LOGIC.o
                0x0000000008000244                TIM7_DAC2_IRQHandler
 .text.Init_Model_Work
                0x000000000800026c       0x20 Core/Src/HID_Manual_LOGIC.o
 .text.GPIO_INit
                0x000000000800028c       0x60 Core/Src/HID_Manual_LOGIC.o
 .text.Indication_work_state
                0x00000000080002ec       0x38 Core/Src/HID_Manual_LOGIC.o
 .text.Init_Timer_StateWork
                0x0000000008000324       0x48 Core/Src/HID_Manual_LOGIC.o
 .text.Init_Sync_Tim
                0x000000000800036c       0x48 Core/Src/HID_Manual_LOGIC.o
 .text.Read_LSM6DS0_Data
                0x00000000080003b4       0x1c Core/Src/HID_Manual_LOGIC.o
 .text.Get_Status_Trigger
                0x00000000080003d0       0x18 Core/Src/HID_Manual_LOGIC.o
                0x00000000080003d0                Get_Status_Trigger
 .text.Reset_Trigger
                0x00000000080003e8       0x18 Core/Src/HID_Manual_LOGIC.o
                0x00000000080003e8                Reset_Trigger
 .text.HID_Gyro_Init_Sync
                0x0000000008000400       0x50 Core/Src/HID_Manual_LOGIC.o
                0x0000000008000400                HID_Gyro_Init_Sync
 .text.Data_Sync_HID_Gyro
                0x0000000008000450        0xc Core/Src/HID_Manual_LOGIC.o
                0x0000000008000450                Data_Sync_HID_Gyro
 .text.RS485_Connect
                0x000000000800045c       0x50 Core/Src/HID_Manual_LOGIC.o
 .text.RS485_Disconnect
                0x00000000080004ac       0x50 Core/Src/HID_Manual_LOGIC.o
 .text.Response_Payload_Model
                0x00000000080004fc       0x44 Core/Src/HID_Manual_LOGIC.o
 .text.RS485_IDLE
                0x0000000008000540       0x14 Core/Src/HID_Manual_LOGIC.o
 .text.RS485_Command_Update_Async
                0x0000000008000554       0x44 Core/Src/HID_Manual_LOGIC.o
                0x0000000008000554                RS485_Command_Update_Async
 .text.Init_HW_I2C_LSM6DS0
                0x0000000008000598       0x10 Core/Src/LSM6DS0.o
                0x0000000008000598                Init_HW_I2C_LSM6DS0
 .text.I2C_GPIO_Init
                0x00000000080005a8       0x78 Core/Src/LSM6DS0.o
 .text.Peripheral_I2C
                0x0000000008000620       0x8c Core/Src/LSM6DS0.o
 .text.LSM6DS0_IO_Write
                0x00000000080006ac       0x44 Core/Src/LSM6DS0.o
 .text.LSM6DS0_IO_Read
                0x00000000080006f0       0x48 Core/Src/LSM6DS0.o
 .text.LSM6DS0_ACCEL_Init_HRW
                0x0000000008000738       0xdc Core/Src/LSM6DS0.o
                0x0000000008000738                LSM6DS0_ACCEL_Init_HRW
 .text.LSM6DS0_GYRO_Init_HRW
                0x0000000008000814      0x148 Core/Src/LSM6DS0.o
                0x0000000008000814                LSM6DS0_GYRO_Init_HRW
 .text.check_LSM6DS0_ID
                0x000000000800095c       0x20 Core/Src/LSM6DS0.o
                0x000000000800095c                check_LSM6DS0_ID
 .text.LSM6DS0_Gyro_GetXYZ
                0x000000000800097c      0x104 Core/Src/LSM6DS0.o
                0x000000000800097c                LSM6DS0_Gyro_GetXYZ
 .text.LSM6DS0_Accel_GetXYZ
                0x0000000008000a80      0x104 Core/Src/LSM6DS0.o
                0x0000000008000a80                LSM6DS0_Accel_GetXYZ
 .text.Init_LSM6DS0
                0x0000000008000b84       0x78 Core/Src/LSM6DS0.o
                0x0000000008000b84                Init_LSM6DS0
 .text.HAL_UART_RxCpltCallback
                0x0000000008000bfc       0x20 Core/Src/RS485Prot.o
                0x0000000008000bfc                HAL_UART_RxCpltCallback
 .text.HAL_UART_ErrorCallback
                0x0000000008000c1c       0x20 Core/Src/RS485Prot.o
                0x0000000008000c1c                HAL_UART_ErrorCallback
 .text.RS485_RessiveData_Starthelper
                0x0000000008000c3c       0x1c Core/Src/RS485Prot.o
                0x0000000008000c3c                RS485_RessiveData_Starthelper
 .text.Set_ID_device
                0x0000000008000c58       0x20 Core/Src/RS485Prot.o
                0x0000000008000c58                Set_ID_device
 .text.UART_Init_HW
                0x0000000008000c78      0x110 Core/Src/RS485Prot.o
                0x0000000008000c78                UART_Init_HW
 .text.Transmit_Packet
                0x0000000008000d88       0xbc Core/Src/RS485Prot.o
                0x0000000008000d88                Transmit_Packet
 .text.RS485_checkId
                0x0000000008000e44       0x40 Core/Src/RS485Prot.o
 .text.RS485_RessiveData_helper
                0x0000000008000e84       0x70 Core/Src/RS485Prot.o
 .text.Get_RS485RxMessage
                0x0000000008000ef4       0x34 Core/Src/RS485Prot.o
                0x0000000008000ef4                Get_RS485RxMessage
 .text.RS485_rxPkgAvailable
                0x0000000008000f28       0x18 Core/Src/RS485Prot.o
                0x0000000008000f28                RS485_rxPkgAvailable
 .text.SetPkgAvailable
                0x0000000008000f40       0x20 Core/Src/RS485Prot.o
                0x0000000008000f40                SetPkgAvailable
 .text.Calculate_CRC16
                0x0000000008000f60       0x78 Core/Src/RS485Prot.o
                0x0000000008000f60                Calculate_CRC16
 .text.checkCRC16
                0x0000000008000fd8       0xaa Core/Src/RS485Prot.o
                0x0000000008000fd8                checkCRC16
 *fill*         0x0000000008001082        0x2 
 .text.HAL_I2C_MspInit
                0x0000000008001084       0xa8 Core/Src/i2c.o
                0x0000000008001084                HAL_I2C_MspInit
 .text.main     0x000000000800112c       0x2c Core/Src/main.o
                0x000000000800112c                main
 .text.SystemClock_Config
                0x0000000008001158       0xbe Core/Src/main.o
                0x0000000008001158                SystemClock_Config
 .text.Error_Handler
                0x0000000008001216        0xe Core/Src/main.o
                0x0000000008001216                Error_Handler
 .text.HAL_MspInit
                0x0000000008001224       0x48 Core/Src/stm32f3xx_hal_msp.o
                0x0000000008001224                HAL_MspInit
 .text.NMI_Handler
                0x000000000800126c        0xe Core/Src/stm32f3xx_it.o
                0x000000000800126c                NMI_Handler
 .text.HardFault_Handler
                0x000000000800127a        0x6 Core/Src/stm32f3xx_it.o
                0x000000000800127a                HardFault_Handler
 .text.MemManage_Handler
                0x0000000008001280        0x6 Core/Src/stm32f3xx_it.o
                0x0000000008001280                MemManage_Handler
 .text.BusFault_Handler
                0x0000000008001286        0x6 Core/Src/stm32f3xx_it.o
                0x0000000008001286                BusFault_Handler
 .text.UsageFault_Handler
                0x000000000800128c        0x6 Core/Src/stm32f3xx_it.o
                0x000000000800128c                UsageFault_Handler
 .text.SVC_Handler
                0x0000000008001292        0xe Core/Src/stm32f3xx_it.o
                0x0000000008001292                SVC_Handler
 .text.DebugMon_Handler
                0x00000000080012a0        0xe Core/Src/stm32f3xx_it.o
                0x00000000080012a0                DebugMon_Handler
 .text.PendSV_Handler
                0x00000000080012ae        0xe Core/Src/stm32f3xx_it.o
                0x00000000080012ae                PendSV_Handler
 .text.SysTick_Handler
                0x00000000080012bc        0xc Core/Src/stm32f3xx_it.o
                0x00000000080012bc                SysTick_Handler
 .text.I2C1_EV_IRQHandler
                0x00000000080012c8       0x14 Core/Src/stm32f3xx_it.o
                0x00000000080012c8                I2C1_EV_IRQHandler
 .text.I2C1_ER_IRQHandler
                0x00000000080012dc       0x14 Core/Src/stm32f3xx_it.o
                0x00000000080012dc                I2C1_ER_IRQHandler
 .text.USART2_IRQHandler
                0x00000000080012f0       0x14 Core/Src/stm32f3xx_it.o
                0x00000000080012f0                USART2_IRQHandler
 .text.SystemInit
                0x0000000008001304       0x24 Core/Src/system_stm32f3xx.o
                0x0000000008001304                SystemInit
 .text.HAL_UART_MspInit
                0x0000000008001328       0x94 Core/Src/usart.o
                0x0000000008001328                HAL_UART_MspInit
 .text.Reset_Handler
                0x00000000080013bc       0x50 Core/Startup/startup_stm32f334r8tx.o
                0x00000000080013bc                Reset_Handler
 .text.Default_Handler
                0x000000000800140c        0x2 Core/Startup/startup_stm32f334r8tx.o
                0x000000000800140c                RTC_Alarm_IRQHandler
                0x000000000800140c                HRTIM1_Master_IRQHandler
                0x000000000800140c                TIM1_CC_IRQHandler
                0x000000000800140c                HRTIM1_FLT_IRQHandler
                0x000000000800140c                PVD_IRQHandler
                0x000000000800140c                HRTIM1_TIMD_IRQHandler
                0x000000000800140c                TAMP_STAMP_IRQHandler
                0x000000000800140c                EXTI3_IRQHandler
                0x000000000800140c                EXTI0_IRQHandler
                0x000000000800140c                FPU_IRQHandler
                0x000000000800140c                CAN_TX_IRQHandler
                0x000000000800140c                TIM1_UP_TIM16_IRQHandler
                0x000000000800140c                ADC1_2_IRQHandler
                0x000000000800140c                HRTIM1_TIME_IRQHandler
                0x000000000800140c                SPI1_IRQHandler
                0x000000000800140c                CAN_SCE_IRQHandler
                0x000000000800140c                HRTIM1_TIMC_IRQHandler
                0x000000000800140c                DMA1_Channel4_IRQHandler
                0x000000000800140c                USART3_IRQHandler
                0x000000000800140c                DMA1_Channel7_IRQHandler
                0x000000000800140c                CAN_RX1_IRQHandler
                0x000000000800140c                DMA1_Channel6_IRQHandler
                0x000000000800140c                TIM3_IRQHandler
                0x000000000800140c                RCC_IRQHandler
                0x000000000800140c                DMA1_Channel1_IRQHandler
                0x000000000800140c                Default_Handler
                0x000000000800140c                EXTI15_10_IRQHandler
                0x000000000800140c                COMP2_IRQHandler
                0x000000000800140c                HRTIM1_TIMA_IRQHandler
                0x000000000800140c                EXTI9_5_IRQHandler
                0x000000000800140c                RTC_WKUP_IRQHandler
                0x000000000800140c                DMA1_Channel5_IRQHandler
                0x000000000800140c                EXTI4_IRQHandler
                0x000000000800140c                HRTIM1_TIMB_IRQHandler
                0x000000000800140c                TIM1_TRG_COM_TIM17_IRQHandler
                0x000000000800140c                DMA1_Channel3_IRQHandler
                0x000000000800140c                WWDG_IRQHandler
                0x000000000800140c                TIM2_IRQHandler
                0x000000000800140c                EXTI1_IRQHandler
                0x000000000800140c                COMP4_6_IRQHandler
                0x000000000800140c                DMA1_Channel2_IRQHandler
                0x000000000800140c                FLASH_IRQHandler
                0x000000000800140c                USART1_IRQHandler
                0x000000000800140c                CAN_RX0_IRQHandler
                0x000000000800140c                EXTI2_TSC_IRQHandler
                0x000000000800140c                TIM1_BRK_TIM15_IRQHandler
 *fill*         0x000000000800140e        0x2 
 .text.HAL_Init
                0x0000000008001410       0x2c Drivers/STM32F3xx_HAL_Driver/Src/stm32f3xx_hal.o
                0x0000000008001410                HAL_Init
 .text.HAL_InitTick
                0x000000000800143c       0x60 Drivers/STM32F3xx_HAL_Driver/Src/stm32f3xx_hal.o
                0x000000000800143c                HAL_InitTick
 .text.HAL_IncTick
                0x000000000800149c       0x28 Drivers/STM32F3xx_HAL_Driver/Src/stm32f3xx_hal.o
                0x000000000800149c                HAL_IncTick
 .text.HAL_GetTick
                0x00000000080014c4       0x18 Drivers/STM32F3xx_HAL_Driver/Src/stm32f3xx_hal.o
                0x00000000080014c4                HAL_GetTick
 .text.__NVIC_SetPriorityGrouping
                0x00000000080014dc       0x48 Drivers/STM32F3xx_HAL_Driver/Src/stm32f3xx_hal_cortex.o
 .text.__NVIC_GetPriorityGrouping
                0x0000000008001524       0x1c Drivers/STM32F3xx_HAL_Driver/Src/stm32f3xx_hal_cortex.o
 .text.__NVIC_EnableIRQ
                0x0000000008001540       0x3c Drivers/STM32F3xx_HAL_Driver/Src/stm32f3xx_hal_cortex.o
 .text.__NVIC_SetPriority
                0x000000000800157c       0x54 Drivers/STM32F3xx_HAL_Driver/Src/stm32f3xx_hal_cortex.o
 .text.NVIC_EncodePriority
                0x00000000080015d0       0x66 Drivers/STM32F3xx_HAL_Driver/Src/stm32f3xx_hal_cortex.o
 *fill*         0x0000000008001636        0x2 
 .text.SysTick_Config
                0x0000000008001638       0x44 Drivers/STM32F3xx_HAL_Driver/Src/stm32f3xx_hal_cortex.o
 .text.HAL_NVIC_SetPriorityGrouping
                0x000000000800167c       0x16 Drivers/STM32F3xx_HAL_Driver/Src/stm32f3xx_hal_cortex.o
                0x000000000800167c                HAL_NVIC_SetPriorityGrouping
 .text.HAL_NVIC_SetPriority
                0x0000000008001692       0x38 Drivers/STM32F3xx_HAL_Driver/Src/stm32f3xx_hal_cortex.o
                0x0000000008001692                HAL_NVIC_SetPriority
 .text.HAL_NVIC_EnableIRQ
                0x00000000080016ca       0x1c Drivers/STM32F3xx_HAL_Driver/Src/stm32f3xx_hal_cortex.o
                0x00000000080016ca                HAL_NVIC_EnableIRQ
 .text.HAL_SYSTICK_Config
                0x00000000080016e6       0x18 Drivers/STM32F3xx_HAL_Driver/Src/stm32f3xx_hal_cortex.o
                0x00000000080016e6                HAL_SYSTICK_Config
 .text.HAL_DMA_Abort
                0x00000000080016fe       0x72 Drivers/STM32F3xx_HAL_Driver/Src/stm32f3xx_hal_dma.o
                0x00000000080016fe                HAL_DMA_Abort
 .text.HAL_DMA_Abort_IT
                0x0000000008001770       0x7c Drivers/STM32F3xx_HAL_Driver/Src/stm32f3xx_hal_dma.o
                0x0000000008001770                HAL_DMA_Abort_IT
 .text.HAL_DMA_GetState
                0x00000000080017ec       0x1a Drivers/STM32F3xx_HAL_Driver/Src/stm32f3xx_hal_dma.o
                0x00000000080017ec                HAL_DMA_GetState
 *fill*         0x0000000008001806        0x2 
 .text.HAL_GPIO_Init
                0x0000000008001808      0x2e4 Drivers/STM32F3xx_HAL_Driver/Src/stm32f3xx_hal_gpio.o
                0x0000000008001808                HAL_GPIO_Init
 .text.HAL_GPIO_WritePin
                0x0000000008001aec       0x30 Drivers/STM32F3xx_HAL_Driver/Src/stm32f3xx_hal_gpio.o
                0x0000000008001aec                HAL_GPIO_WritePin
 .text.HAL_I2C_Init
                0x0000000008001b1c      0x11e Drivers/STM32F3xx_HAL_Driver/Src/stm32f3xx_hal_i2c.o
                0x0000000008001b1c                HAL_I2C_Init
 *fill*         0x0000000008001c3a        0x2 
 .text.HAL_I2C_Mem_Write
                0x0000000008001c3c      0x228 Drivers/STM32F3xx_HAL_Driver/Src/stm32f3xx_hal_i2c.o
                0x0000000008001c3c                HAL_I2C_Mem_Write
 .text.HAL_I2C_Mem_Read
                0x0000000008001e64      0x234 Drivers/STM32F3xx_HAL_Driver/Src/stm32f3xx_hal_i2c.o
                0x0000000008001e64                HAL_I2C_Mem_Read
 .text.HAL_I2C_EV_IRQHandler
                0x0000000008002098       0x34 Drivers/STM32F3xx_HAL_Driver/Src/stm32f3xx_hal_i2c.o
                0x0000000008002098                HAL_I2C_EV_IRQHandler
 .text.HAL_I2C_ER_IRQHandler
                0x00000000080020cc       0xc2 Drivers/STM32F3xx_HAL_Driver/Src/stm32f3xx_hal_i2c.o
                0x00000000080020cc                HAL_I2C_ER_IRQHandler
 .text.HAL_I2C_SlaveTxCpltCallback
                0x000000000800218e       0x14 Drivers/STM32F3xx_HAL_Driver/Src/stm32f3xx_hal_i2c.o
                0x000000000800218e                HAL_I2C_SlaveTxCpltCallback
 .text.HAL_I2C_SlaveRxCpltCallback
                0x00000000080021a2       0x14 Drivers/STM32F3xx_HAL_Driver/Src/stm32f3xx_hal_i2c.o
                0x00000000080021a2                HAL_I2C_SlaveRxCpltCallback
 .text.HAL_I2C_AddrCallback
                0x00000000080021b6       0x1c Drivers/STM32F3xx_HAL_Driver/Src/stm32f3xx_hal_i2c.o
                0x00000000080021b6                HAL_I2C_AddrCallback
 .text.HAL_I2C_ListenCpltCallback
                0x00000000080021d2       0x14 Drivers/STM32F3xx_HAL_Driver/Src/stm32f3xx_hal_i2c.o
                0x00000000080021d2                HAL_I2C_ListenCpltCallback
 .text.HAL_I2C_ErrorCallback
                0x00000000080021e6       0x14 Drivers/STM32F3xx_HAL_Driver/Src/stm32f3xx_hal_i2c.o
                0x00000000080021e6                HAL_I2C_ErrorCallback
 .text.HAL_I2C_AbortCpltCallback
                0x00000000080021fa       0x14 Drivers/STM32F3xx_HAL_Driver/Src/stm32f3xx_hal_i2c.o
                0x00000000080021fa                HAL_I2C_AbortCpltCallback
 .text.I2C_Slave_ISR_IT
                0x000000000800220e      0x206 Drivers/STM32F3xx_HAL_Driver/Src/stm32f3xx_hal_i2c.o
 .text.I2C_RequestMemoryWrite
                0x0000000008002414       0xa8 Drivers/STM32F3xx_HAL_Driver/Src/stm32f3xx_hal_i2c.o
 .text.I2C_RequestMemoryRead
                0x00000000080024bc       0xa8 Drivers/STM32F3xx_HAL_Driver/Src/stm32f3xx_hal_i2c.o
 .text.I2C_ITAddrCplt
                0x0000000008002564      0x108 Drivers/STM32F3xx_HAL_Driver/Src/stm32f3xx_hal_i2c.o
 .text.I2C_ITSlaveSeqCplt
                0x000000000800266c       0xbc Drivers/STM32F3xx_HAL_Driver/Src/stm32f3xx_hal_i2c.o
 .text.I2C_ITSlaveCplt
                0x0000000008002728      0x214 Drivers/STM32F3xx_HAL_Driver/Src/stm32f3xx_hal_i2c.o
 .text.I2C_ITListenCplt
                0x000000000800293c       0xac Drivers/STM32F3xx_HAL_Driver/Src/stm32f3xx_hal_i2c.o
 .text.I2C_ITError
                0x00000000080029e8      0x1a0 Drivers/STM32F3xx_HAL_Driver/Src/stm32f3xx_hal_i2c.o
 .text.I2C_TreatErrorCallback
                0x0000000008002b88       0x4e Drivers/STM32F3xx_HAL_Driver/Src/stm32f3xx_hal_i2c.o
 .text.I2C_Flush_TXDR
                0x0000000008002bd6       0x48 Drivers/STM32F3xx_HAL_Driver/Src/stm32f3xx_hal_i2c.o
 .text.I2C_DMAAbort
                0x0000000008002c1e       0x3c Drivers/STM32F3xx_HAL_Driver/Src/stm32f3xx_hal_i2c.o
 .text.I2C_WaitOnFlagUntilTimeout
                0x0000000008002c5a       0x80 Drivers/STM32F3xx_HAL_Driver/Src/stm32f3xx_hal_i2c.o
 .text.I2C_WaitOnTXISFlagUntilTimeout
                0x0000000008002cda       0x80 Drivers/STM32F3xx_HAL_Driver/Src/stm32f3xx_hal_i2c.o
 .text.I2C_WaitOnSTOPFlagUntilTimeout
                0x0000000008002d5a       0x78 Drivers/STM32F3xx_HAL_Driver/Src/stm32f3xx_hal_i2c.o
 *fill*         0x0000000008002dd2        0x2 
 .text.I2C_IsAcknowledgeFailed
                0x0000000008002dd4       0xcc Drivers/STM32F3xx_HAL_Driver/Src/stm32f3xx_hal_i2c.o
 .text.I2C_TransferConfig
                0x0000000008002ea0       0x5c Drivers/STM32F3xx_HAL_Driver/Src/stm32f3xx_hal_i2c.o
 .text.I2C_Disable_IRQ
                0x0000000008002efc       0xbc Drivers/STM32F3xx_HAL_Driver/Src/stm32f3xx_hal_i2c.o
 .text.HAL_I2CEx_ConfigAnalogFilter
                0x0000000008002fb8       0x96 Drivers/STM32F3xx_HAL_Driver/Src/stm32f3xx_hal_i2c_ex.o
                0x0000000008002fb8                HAL_I2CEx_ConfigAnalogFilter
 .text.HAL_I2CEx_ConfigDigitalFilter
                0x000000000800304e       0x98 Drivers/STM32F3xx_HAL_Driver/Src/stm32f3xx_hal_i2c_ex.o
                0x000000000800304e                HAL_I2CEx_ConfigDigitalFilter
 *fill*         0x00000000080030e6        0x2 
 .text.HAL_RCC_OscConfig
                0x00000000080030e8      0xe10 Drivers/STM32F3xx_HAL_Driver/Src/stm32f3xx_hal_rcc.o
                0x00000000080030e8                HAL_RCC_OscConfig
 .text.HAL_RCC_ClockConfig
                0x0000000008003ef8      0x2f8 Drivers/STM32F3xx_HAL_Driver/Src/stm32f3xx_hal_rcc.o
                0x0000000008003ef8                HAL_RCC_ClockConfig
 .text.HAL_RCC_GetSysClockFreq
                0x00000000080041f0       0xd4 Drivers/STM32F3xx_HAL_Driver/Src/stm32f3xx_hal_rcc.o
                0x00000000080041f0                HAL_RCC_GetSysClockFreq
 .text.HAL_RCC_GetHCLKFreq
                0x00000000080042c4       0x18 Drivers/STM32F3xx_HAL_Driver/Src/stm32f3xx_hal_rcc.o
                0x00000000080042c4                HAL_RCC_GetHCLKFreq
 .text.HAL_RCC_GetPCLK1Freq
                0x00000000080042dc       0x44 Drivers/STM32F3xx_HAL_Driver/Src/stm32f3xx_hal_rcc.o
                0x00000000080042dc                HAL_RCC_GetPCLK1Freq
 .text.HAL_RCC_GetPCLK2Freq
                0x0000000008004320       0x44 Drivers/STM32F3xx_HAL_Driver/Src/stm32f3xx_hal_rcc.o
                0x0000000008004320                HAL_RCC_GetPCLK2Freq
 .text.HAL_RCCEx_PeriphCLKConfig
                0x0000000008004364      0x26c Drivers/STM32F3xx_HAL_Driver/Src/stm32f3xx_hal_rcc_ex.o
                0x0000000008004364                HAL_RCCEx_PeriphCLKConfig
 .text.HAL_UART_Init
                0x00000000080045d0       0x9c Drivers/STM32F3xx_HAL_Driver/Src/stm32f3xx_hal_uart.o
                0x00000000080045d0                HAL_UART_Init
 .text.HAL_UART_Transmit
                0x000000000800466c      0x128 Drivers/STM32F3xx_HAL_Driver/Src/stm32f3xx_hal_uart.o
                0x000000000800466c                HAL_UART_Transmit
 .text.HAL_UART_Receive_IT
                0x0000000008004794       0x7a Drivers/STM32F3xx_HAL_Driver/Src/stm32f3xx_hal_uart.o
                0x0000000008004794                HAL_UART_Receive_IT
 *fill*         0x000000000800480e        0x2 
 .text.HAL_UART_IRQHandler
                0x0000000008004810      0x400 Drivers/STM32F3xx_HAL_Driver/Src/stm32f3xx_hal_uart.o
                0x0000000008004810                HAL_UART_IRQHandler
 .text.HAL_UART_TxCpltCallback
                0x0000000008004c10       0x14 Drivers/STM32F3xx_HAL_Driver/Src/stm32f3xx_hal_uart.o
                0x0000000008004c10                HAL_UART_TxCpltCallback
 .text.HAL_UARTEx_RxEventCallback
                0x0000000008004c24       0x18 Drivers/STM32F3xx_HAL_Driver/Src/stm32f3xx_hal_uart.o
                0x0000000008004c24                HAL_UARTEx_RxEventCallback
 .text.UART_SetConfig
                0x0000000008004c3c      0x270 Drivers/STM32F3xx_HAL_Driver/Src/stm32f3xx_hal_uart.o
                0x0000000008004c3c                UART_SetConfig
 .text.UART_AdvFeatureConfig
                0x0000000008004eac      0x144 Drivers/STM32F3xx_HAL_Driver/Src/stm32f3xx_hal_uart.o
                0x0000000008004eac                UART_AdvFeatureConfig
 .text.UART_CheckIdleState
                0x0000000008004ff0       0x92 Drivers/STM32F3xx_HAL_Driver/Src/stm32f3xx_hal_uart.o
                0x0000000008004ff0                UART_CheckIdleState
 .text.UART_WaitOnFlagUntilTimeout
                0x0000000008005082       0xf8 Drivers/STM32F3xx_HAL_Driver/Src/stm32f3xx_hal_uart.o
                0x0000000008005082                UART_WaitOnFlagUntilTimeout
 *fill*         0x000000000800517a        0x2 
 .text.UART_Start_Receive_IT
                0x000000000800517c      0x110 Drivers/STM32F3xx_HAL_Driver/Src/stm32f3xx_hal_uart.o
                0x000000000800517c                UART_Start_Receive_IT
 .text.UART_EndRxTransfer
                0x000000000800528c       0x5e Drivers/STM32F3xx_HAL_Driver/Src/stm32f3xx_hal_uart.o
 .text.UART_DMAAbortOnError
                0x00000000080052ea       0x2c Drivers/STM32F3xx_HAL_Driver/Src/stm32f3xx_hal_uart.o
 .text.UART_EndTransmit_IT
                0x0000000008005316       0x32 Drivers/STM32F3xx_HAL_Driver/Src/stm32f3xx_hal_uart.o
 .text.UART_RxISR_8BIT
                0x0000000008005348       0xd4 Drivers/STM32F3xx_HAL_Driver/Src/stm32f3xx_hal_uart.o
 .text.UART_RxISR_16BIT
                0x000000000800541c       0xd4 Drivers/STM32F3xx_HAL_Driver/Src/stm32f3xx_hal_uart.o
 .text.HAL_UARTEx_WakeupCallback
                0x00000000080054f0       0x14 Drivers/STM32F3xx_HAL_Driver/Src/stm32f3xx_hal_uart_ex.o
                0x00000000080054f0                HAL_UARTEx_WakeupCallback
 .text.__libc_init_array
                0x0000000008005504       0x48 c:/st/stm32cubeide_1.2.0/stm32cubeide/plugins/com.st.stm32cube.ide.mcu.externaltools.gnu-tools-for-stm32.7-2018-q2-update.win32_1.0.0.201904181610/tools/bin/../lib/gcc/arm-none-eabi/7.3.1/../../../../arm-none-eabi/lib/thumb/v7e-m/fpv4-sp/hard\libc_nano.a(lib_a-init.o)
                0x0000000008005504                __libc_init_array
 .text.memcpy   0x000000000800554c       0x16 c:/st/stm32cubeide_1.2.0/stm32cubeide/plugins/com.st.stm32cube.ide.mcu.externaltools.gnu-tools-for-stm32.7-2018-q2-update.win32_1.0.0.201904181610/tools/bin/../lib/gcc/arm-none-eabi/7.3.1/../../../../arm-none-eabi/lib/thumb/v7e-m/fpv4-sp/hard\libc_nano.a(lib_a-memcpy-stub.o)
                0x000000000800554c                memcpy
 .text.memset   0x0000000008005562       0x10 c:/st/stm32cubeide_1.2.0/stm32cubeide/plugins/com.st.stm32cube.ide.mcu.externaltools.gnu-tools-for-stm32.7-2018-q2-update.win32_1.0.0.201904181610/tools/bin/../lib/gcc/arm-none-eabi/7.3.1/../../../../arm-none-eabi/lib/thumb/v7e-m/fpv4-sp/hard\libc_nano.a(lib_a-memset.o)
                0x0000000008005562                memset
 *(.glue_7)
 .glue_7        0x0000000008005572        0x0 linker stubs
 *(.glue_7t)
 .glue_7t       0x0000000008005572        0x0 linker stubs
 *(.eh_frame)
 *fill*         0x0000000008005572        0x2 
 .eh_frame      0x0000000008005574        0x0 c:/st/stm32cubeide_1.2.0/stm32cubeide/plugins/com.st.stm32cube.ide.mcu.externaltools.gnu-tools-for-stm32.7-2018-q2-update.win32_1.0.0.201904181610/tools/bin/../lib/gcc/arm-none-eabi/7.3.1/thumb/v7e-m/fpv4-sp/hard/crtbegin.o
 *(.init)
 .init          0x0000000008005574        0x4 c:/st/stm32cubeide_1.2.0/stm32cubeide/plugins/com.st.stm32cube.ide.mcu.externaltools.gnu-tools-for-stm32.7-2018-q2-update.win32_1.0.0.201904181610/tools/bin/../lib/gcc/arm-none-eabi/7.3.1/thumb/v7e-m/fpv4-sp/hard/crti.o
                0x0000000008005574                _init
 .init          0x0000000008005578        0x8 c:/st/stm32cubeide_1.2.0/stm32cubeide/plugins/com.st.stm32cube.ide.mcu.externaltools.gnu-tools-for-stm32.7-2018-q2-update.win32_1.0.0.201904181610/tools/bin/../lib/gcc/arm-none-eabi/7.3.1/thumb/v7e-m/fpv4-sp/hard/crtn.o
 *(.fini)
 .fini          0x0000000008005580        0x4 c:/st/stm32cubeide_1.2.0/stm32cubeide/plugins/com.st.stm32cube.ide.mcu.externaltools.gnu-tools-for-stm32.7-2018-q2-update.win32_1.0.0.201904181610/tools/bin/../lib/gcc/arm-none-eabi/7.3.1/thumb/v7e-m/fpv4-sp/hard/crti.o
                0x0000000008005580                _fini
 .fini          0x0000000008005584        0x8 c:/st/stm32cubeide_1.2.0/stm32cubeide/plugins/com.st.stm32cube.ide.mcu.externaltools.gnu-tools-for-stm32.7-2018-q2-update.win32_1.0.0.201904181610/tools/bin/../lib/gcc/arm-none-eabi/7.3.1/thumb/v7e-m/fpv4-sp/hard/crtn.o
                0x000000000800558c                . = ALIGN (0x4)
                0x000000000800558c                _etext = .

.vfp11_veneer   0x000000000800558c        0x0
 .vfp11_veneer  0x000000000800558c        0x0 linker stubs

.v4_bx          0x000000000800558c        0x0
 .v4_bx         0x000000000800558c        0x0 linker stubs

.iplt           0x000000000800558c        0x0
 .iplt          0x000000000800558c        0x0 c:/st/stm32cubeide_1.2.0/stm32cubeide/plugins/com.st.stm32cube.ide.mcu.externaltools.gnu-tools-for-stm32.7-2018-q2-update.win32_1.0.0.201904181610/tools/bin/../lib/gcc/arm-none-eabi/7.3.1/thumb/v7e-m/fpv4-sp/hard/crtbegin.o

.rodata         0x000000000800558c       0x48
                0x000000000800558c                . = ALIGN (0x4)
 *(.rodata)
 *(.rodata*)
 .rodata.rs485_commands_array
                0x000000000800558c       0x10 Core/Src/HID_Manual_LOGIC.o
 .rodata.AHBPrescTable
                0x000000000800559c       0x10 Core/Src/system_stm32f3xx.o
                0x000000000800559c                AHBPrescTable
 .rodata.APBPrescTable
                0x00000000080055ac        0x8 Core/Src/system_stm32f3xx.o
                0x00000000080055ac                APBPrescTable
 .rodata.aPLLMULFactorTable
                0x00000000080055b4       0x10 Drivers/STM32F3xx_HAL_Driver/Src/stm32f3xx_hal_rcc.o
                0x00000000080055b4                aPLLMULFactorTable
 .rodata.aPredivFactorTable
                0x00000000080055c4       0x10 Drivers/STM32F3xx_HAL_Driver/Src/stm32f3xx_hal_rcc.o
                0x00000000080055c4                aPredivFactorTable
                0x00000000080055d4                . = ALIGN (0x4)

.rel.dyn        0x00000000080055d4        0x0
 .rel.iplt      0x00000000080055d4        0x0 c:/st/stm32cubeide_1.2.0/stm32cubeide/plugins/com.st.stm32cube.ide.mcu.externaltools.gnu-tools-for-stm32.7-2018-q2-update.win32_1.0.0.201904181610/tools/bin/../lib/gcc/arm-none-eabi/7.3.1/thumb/v7e-m/fpv4-sp/hard/crtbegin.o

.ARM.extab      0x00000000080055d4        0x0
                0x00000000080055d4                . = ALIGN (0x4)
 *(.ARM.extab* .gnu.linkonce.armextab.*)
                0x00000000080055d4                . = ALIGN (0x4)

.ARM            0x00000000080055d4        0x0
                0x00000000080055d4                . = ALIGN (0x4)
                0x00000000080055d4                __exidx_start = .
 *(.ARM.exidx*)
                0x00000000080055d4                __exidx_end = .
                0x00000000080055d4                . = ALIGN (0x4)

.preinit_array  0x00000000080055d4        0x0
                0x00000000080055d4                . = ALIGN (0x4)
                0x00000000080055d4                PROVIDE (__preinit_array_start = .)
 *(.preinit_array*)
                0x00000000080055d4                PROVIDE (__preinit_array_end = .)
                0x00000000080055d4                . = ALIGN (0x4)

.init_array     0x00000000080055d4        0x4
                0x00000000080055d4                . = ALIGN (0x4)
                0x00000000080055d4                PROVIDE (__init_array_start = .)
 *(SORT_BY_NAME(.init_array.*))
 *(.init_array*)
 .init_array    0x00000000080055d4        0x4 c:/st/stm32cubeide_1.2.0/stm32cubeide/plugins/com.st.stm32cube.ide.mcu.externaltools.gnu-tools-for-stm32.7-2018-q2-update.win32_1.0.0.201904181610/tools/bin/../lib/gcc/arm-none-eabi/7.3.1/thumb/v7e-m/fpv4-sp/hard/crtbegin.o
                0x00000000080055d8                PROVIDE (__init_array_end = .)
                0x00000000080055d8                . = ALIGN (0x4)

.fini_array     0x00000000080055d8        0x4
                0x00000000080055d8                . = ALIGN (0x4)
                [!provide]                        PROVIDE (__fini_array_start = .)
 *(SORT_BY_NAME(.fini_array.*))
 *(.fini_array*)
 .fini_array    0x00000000080055d8        0x4 c:/st/stm32cubeide_1.2.0/stm32cubeide/plugins/com.st.stm32cube.ide.mcu.externaltools.gnu-tools-for-stm32.7-2018-q2-update.win32_1.0.0.201904181610/tools/bin/../lib/gcc/arm-none-eabi/7.3.1/thumb/v7e-m/fpv4-sp/hard/crtbegin.o
                [!provide]                        PROVIDE (__fini_array_end = .)
                0x00000000080055dc                . = ALIGN (0x4)
                0x00000000080055dc                _sidata = LOADADDR (.data)

.data           0x0000000020000000        0xc load address 0x00000000080055dc
                0x0000000020000000                . = ALIGN (0x4)
                0x0000000020000000                _sdata = .
 *(.data)
 *(.data*)
 .data.SystemCoreClock
                0x0000000020000000        0x4 Core/Src/system_stm32f3xx.o
                0x0000000020000000                SystemCoreClock
 .data.uwTickPrio
                0x0000000020000004        0x4 Drivers/STM32F3xx_HAL_Driver/Src/stm32f3xx_hal.o
                0x0000000020000004                uwTickPrio
 .data.uwTickFreq
                0x0000000020000008        0x1 Drivers/STM32F3xx_HAL_Driver/Src/stm32f3xx_hal.o
                0x0000000020000008                uwTickFreq
                0x000000002000000c                . = ALIGN (0x4)
 *fill*         0x0000000020000009        0x3 
                0x000000002000000c                _edata = .

.igot.plt       0x000000002000000c        0x0 load address 0x00000000080055e8
 .igot.plt      0x000000002000000c        0x0 c:/st/stm32cubeide_1.2.0/stm32cubeide/plugins/com.st.stm32cube.ide.mcu.externaltools.gnu-tools-for-stm32.7-2018-q2-update.win32_1.0.0.201904181610/tools/bin/../lib/gcc/arm-none-eabi/7.3.1/thumb/v7e-m/fpv4-sp/hard/crtbegin.o
                0x000000002000000c                . = ALIGN (0x4)

.bss            0x000000002000000c      0x160 load address 0x00000000080055e8
                0x000000002000000c                _sbss = .
                0x000000002000000c                __bss_start__ = _sbss
 *(.bss)
 .bss           0x000000002000000c       0x1c c:/st/stm32cubeide_1.2.0/stm32cubeide/plugins/com.st.stm32cube.ide.mcu.externaltools.gnu-tools-for-stm32.7-2018-q2-update.win32_1.0.0.201904181610/tools/bin/../lib/gcc/arm-none-eabi/7.3.1/thumb/v7e-m/fpv4-sp/hard/crtbegin.o
 *(.bss*)
 .bss.calb_gyroX
                0x0000000020000028        0x2 Core/Src/LSM6DS0.o
                0x0000000020000028                calb_gyroX
 .bss.calb_gyroY
                0x000000002000002a        0x2 Core/Src/LSM6DS0.o
                0x000000002000002a                calb_gyroY
 .bss.calb_gyroZ
                0x000000002000002c        0x2 Core/Src/LSM6DS0.o
                0x000000002000002c                calb_gyroZ
 .bss.calb_accelX
                0x000000002000002e        0x2 Core/Src/LSM6DS0.o
                0x000000002000002e                calb_accelX
 .bss.calb_accelY
                0x0000000020000030        0x2 Core/Src/LSM6DS0.o
                0x0000000020000030                calb_accelY
 .bss.calb_accelZ
                0x0000000020000032        0x2 Core/Src/LSM6DS0.o
                0x0000000020000032                calb_accelZ
 .bss.IsMuted   0x0000000020000034        0x1 Core/Src/RS485Prot.o
                0x0000000020000034                IsMuted
 .bss.IsDataAvalible
                0x0000000020000035        0x1 Core/Src/RS485Prot.o
                0x0000000020000035                IsDataAvalible
 *(COMMON)
 *fill*         0x0000000020000036        0x2 
 COMMON         0x0000000020000038       0x16 Core/Src/HID_Manual_LOGIC.o
                0x0000000020000038                _model_state
 *fill*         0x000000002000004e        0x2 
 COMMON         0x0000000020000050       0x45 Core/Src/RS485Prot.o
                0x0000000020000050                RX_BUFF
                0x0000000020000068                TX_BUFF
                0x0000000020000080                _dataProtocol
 *fill*         0x0000000020000095        0x3 
 COMMON         0x0000000020000098       0x4c Core/Src/i2c.o
                0x0000000020000098                hi2c1
 COMMON         0x00000000200000e4       0x84 Core/Src/usart.o
                0x00000000200000e4                huart2
 COMMON         0x0000000020000168        0x4 Drivers/STM32F3xx_HAL_Driver/Src/stm32f3xx_hal.o
                0x0000000020000168                uwTick
                0x000000002000016c                . = ALIGN (0x4)
                0x000000002000016c                _ebss = .
                0x000000002000016c                __bss_end__ = _ebss

._user_heap_stack
                0x000000002000016c      0x604 load address 0x00000000080055e8
                0x0000000020000170                . = ALIGN (0x8)
 *fill*         0x000000002000016c        0x4 
                0x0000000020000170                PROVIDE (end = .)
                [!provide]                        PROVIDE (_end = .)
                0x0000000020000370                . = (. + _Min_Heap_Size)
 *fill*         0x0000000020000170      0x200 
                0x0000000020000770                . = (. + _Min_Stack_Size)
 *fill*         0x0000000020000370      0x400 
                0x0000000020000770                . = ALIGN (0x8)

/DISCARD/
 libc.a(*)
 libm.a(*)
 libgcc.a(*)

.ARM.attributes
                0x0000000000000000       0x30
 *(.ARM.attributes)
 .ARM.attributes
                0x0000000000000000       0x22 c:/st/stm32cubeide_1.2.0/stm32cubeide/plugins/com.st.stm32cube.ide.mcu.externaltools.gnu-tools-for-stm32.7-2018-q2-update.win32_1.0.0.201904181610/tools/bin/../lib/gcc/arm-none-eabi/7.3.1/thumb/v7e-m/fpv4-sp/hard/crti.o
 .ARM.attributes
                0x0000000000000022       0x34 c:/st/stm32cubeide_1.2.0/stm32cubeide/plugins/com.st.stm32cube.ide.mcu.externaltools.gnu-tools-for-stm32.7-2018-q2-update.win32_1.0.0.201904181610/tools/bin/../lib/gcc/arm-none-eabi/7.3.1/thumb/v7e-m/fpv4-sp/hard/crtbegin.o
 .ARM.attributes
                0x0000000000000056       0x39 Core/Src/HID_Manual_LOGIC.o
 .ARM.attributes
                0x000000000000008f       0x39 Core/Src/LSM6DS0.o
 .ARM.attributes
                0x00000000000000c8       0x39 Core/Src/RS485Prot.o
 .ARM.attributes
                0x0000000000000101       0x39 Core/Src/i2c.o
 .ARM.attributes
                0x000000000000013a       0x39 Core/Src/main.o
 .ARM.attributes
                0x0000000000000173       0x39 Core/Src/stm32f3xx_hal_msp.o
 .ARM.attributes
                0x00000000000001ac       0x39 Core/Src/stm32f3xx_it.o
 .ARM.attributes
                0x00000000000001e5       0x39 Core/Src/system_stm32f3xx.o
 .ARM.attributes
                0x000000000000021e       0x39 Core/Src/usart.o
 .ARM.attributes
                0x0000000000000257       0x21 Core/Startup/startup_stm32f334r8tx.o
 .ARM.attributes
                0x0000000000000278       0x39 Drivers/STM32F3xx_HAL_Driver/Src/stm32f3xx_hal.o
 .ARM.attributes
                0x00000000000002b1       0x39 Drivers/STM32F3xx_HAL_Driver/Src/stm32f3xx_hal_cortex.o
 .ARM.attributes
                0x00000000000002ea       0x39 Drivers/STM32F3xx_HAL_Driver/Src/stm32f3xx_hal_dma.o
 .ARM.attributes
                0x0000000000000323       0x39 Drivers/STM32F3xx_HAL_Driver/Src/stm32f3xx_hal_gpio.o
 .ARM.attributes
                0x000000000000035c       0x39 Drivers/STM32F3xx_HAL_Driver/Src/stm32f3xx_hal_i2c.o
 .ARM.attributes
                0x0000000000000395       0x39 Drivers/STM32F3xx_HAL_Driver/Src/stm32f3xx_hal_i2c_ex.o
 .ARM.attributes
                0x00000000000003ce       0x39 Drivers/STM32F3xx_HAL_Driver/Src/stm32f3xx_hal_rcc.o
 .ARM.attributes
                0x0000000000000407       0x39 Drivers/STM32F3xx_HAL_Driver/Src/stm32f3xx_hal_rcc_ex.o
 .ARM.attributes
                0x0000000000000440       0x39 Drivers/STM32F3xx_HAL_Driver/Src/stm32f3xx_hal_uart.o
 .ARM.attributes
                0x0000000000000479       0x39 Drivers/STM32F3xx_HAL_Driver/Src/stm32f3xx_hal_uart_ex.o
 .ARM.attributes
                0x00000000000004b2       0x34 c:/st/stm32cubeide_1.2.0/stm32cubeide/plugins/com.st.stm32cube.ide.mcu.externaltools.gnu-tools-for-stm32.7-2018-q2-update.win32_1.0.0.201904181610/tools/bin/../lib/gcc/arm-none-eabi/7.3.1/../../../../arm-none-eabi/lib/thumb/v7e-m/fpv4-sp/hard\libc_nano.a(lib_a-init.o)
 .ARM.attributes
                0x00000000000004e6       0x34 c:/st/stm32cubeide_1.2.0/stm32cubeide/plugins/com.st.stm32cube.ide.mcu.externaltools.gnu-tools-for-stm32.7-2018-q2-update.win32_1.0.0.201904181610/tools/bin/../lib/gcc/arm-none-eabi/7.3.1/../../../../arm-none-eabi/lib/thumb/v7e-m/fpv4-sp/hard\libc_nano.a(lib_a-memcpy-stub.o)
 .ARM.attributes
                0x000000000000051a       0x34 c:/st/stm32cubeide_1.2.0/stm32cubeide/plugins/com.st.stm32cube.ide.mcu.externaltools.gnu-tools-for-stm32.7-2018-q2-update.win32_1.0.0.201904181610/tools/bin/../lib/gcc/arm-none-eabi/7.3.1/../../../../arm-none-eabi/lib/thumb/v7e-m/fpv4-sp/hard\libc_nano.a(lib_a-memset.o)
 .ARM.attributes
                0x000000000000054e       0x22 c:/st/stm32cubeide_1.2.0/stm32cubeide/plugins/com.st.stm32cube.ide.mcu.externaltools.gnu-tools-for-stm32.7-2018-q2-update.win32_1.0.0.201904181610/tools/bin/../lib/gcc/arm-none-eabi/7.3.1/thumb/v7e-m/fpv4-sp/hard/crtn.o
OUTPUT(Project_Unreal_Engine_Gyro_Accel_DRV.elf elf32-littlearm)

.debug_info     0x0000000000000000    0x13f85
 .debug_info    0x0000000000000000     0x1b5b Core/Src/HID_Manual_LOGIC.o
 .debug_info    0x0000000000001b5b     0x1895 Core/Src/LSM6DS0.o
 .debug_info    0x00000000000033f0     0x18ab Core/Src/RS485Prot.o
 .debug_info    0x0000000000004c9b     0x157a Core/Src/i2c.o
 .debug_info    0x0000000000006215     0x138a Core/Src/main.o
 .debug_info    0x000000000000759f     0x12a5 Core/Src/stm32f3xx_hal_msp.o
 .debug_info    0x0000000000008844     0x126d Core/Src/stm32f3xx_it.o
 .debug_info    0x0000000000009ab1      0x45c Core/Src/system_stm32f3xx.o
 .debug_info    0x0000000000009f0d     0x157a Core/Src/usart.o
 .debug_info    0x000000000000b487       0x22 Core/Startup/startup_stm32f334r8tx.o
 .debug_info    0x000000000000b4a9      0x782 Drivers/STM32F3xx_HAL_Driver/Src/stm32f3xx_hal.o
 .debug_info    0x000000000000bc2b      0xb7e Drivers/STM32F3xx_HAL_Driver/Src/stm32f3xx_hal_cortex.o
 .debug_info    0x000000000000c7a9      0x7cb Drivers/STM32F3xx_HAL_Driver/Src/stm32f3xx_hal_dma.o
 .debug_info    0x000000000000cf74      0x7c1 Drivers/STM32F3xx_HAL_Driver/Src/stm32f3xx_hal_gpio.o
 .debug_info    0x000000000000d735     0x1fe5 Drivers/STM32F3xx_HAL_Driver/Src/stm32f3xx_hal_i2c.o
 .debug_info    0x000000000000f71a      0x994 Drivers/STM32F3xx_HAL_Driver/Src/stm32f3xx_hal_i2c_ex.o
 .debug_info    0x00000000000100ae     0x180f Drivers/STM32F3xx_HAL_Driver/Src/stm32f3xx_hal_rcc.o
 .debug_info    0x00000000000118bd      0x615 Drivers/STM32F3xx_HAL_Driver/Src/stm32f3xx_hal_rcc_ex.o
 .debug_info    0x0000000000011ed2     0x16a2 Drivers/STM32F3xx_HAL_Driver/Src/stm32f3xx_hal_uart.o
 .debug_info    0x0000000000013574      0xa11 Drivers/STM32F3xx_HAL_Driver/Src/stm32f3xx_hal_uart_ex.o

.debug_abbrev   0x0000000000000000     0x2804
 .debug_abbrev  0x0000000000000000      0x304 Core/Src/HID_Manual_LOGIC.o
 .debug_abbrev  0x0000000000000304      0x2d1 Core/Src/LSM6DS0.o
 .debug_abbrev  0x00000000000005d5      0x2be Core/Src/RS485Prot.o
 .debug_abbrev  0x0000000000000893      0x204 Core/Src/i2c.o
 .debug_abbrev  0x0000000000000a97      0x1e5 Core/Src/main.o
 .debug_abbrev  0x0000000000000c7c      0x1c5 Core/Src/stm32f3xx_hal_msp.o
 .debug_abbrev  0x0000000000000e41      0x1ba Core/Src/stm32f3xx_it.o
 .debug_abbrev  0x0000000000000ffb      0x12b Core/Src/system_stm32f3xx.o
 .debug_abbrev  0x0000000000001126      0x204 Core/Src/usart.o
 .debug_abbrev  0x000000000000132a       0x12 Core/Startup/startup_stm32f334r8tx.o
 .debug_abbrev  0x000000000000133c      0x1c7 Drivers/STM32F3xx_HAL_Driver/Src/stm32f3xx_hal.o
 .debug_abbrev  0x0000000000001503      0x2d5 Drivers/STM32F3xx_HAL_Driver/Src/stm32f3xx_hal_cortex.o
 .debug_abbrev  0x00000000000017d8      0x1fe Drivers/STM32F3xx_HAL_Driver/Src/stm32f3xx_hal_dma.o
 .debug_abbrev  0x00000000000019d6      0x1c0 Drivers/STM32F3xx_HAL_Driver/Src/stm32f3xx_hal_gpio.o
 .debug_abbrev  0x0000000000001b96      0x22a Drivers/STM32F3xx_HAL_Driver/Src/stm32f3xx_hal_i2c.o
 .debug_abbrev  0x0000000000001dc0      0x1b9 Drivers/STM32F3xx_HAL_Driver/Src/stm32f3xx_hal_i2c_ex.o
 .debug_abbrev  0x0000000000001f79      0x28c Drivers/STM32F3xx_HAL_Driver/Src/stm32f3xx_hal_rcc.o
 .debug_abbrev  0x0000000000002205      0x208 Drivers/STM32F3xx_HAL_Driver/Src/stm32f3xx_hal_rcc_ex.o
 .debug_abbrev  0x000000000000240d      0x215 Drivers/STM32F3xx_HAL_Driver/Src/stm32f3xx_hal_uart.o
 .debug_abbrev  0x0000000000002622      0x1e2 Drivers/STM32F3xx_HAL_Driver/Src/stm32f3xx_hal_uart_ex.o

.debug_aranges  0x0000000000000000      0xc08
 .debug_aranges
                0x0000000000000000       0xa8 Core/Src/HID_Manual_LOGIC.o
 .debug_aranges
                0x00000000000000a8       0x80 Core/Src/LSM6DS0.o
 .debug_aranges
                0x0000000000000128       0x80 Core/Src/RS485Prot.o
 .debug_aranges
                0x00000000000001a8       0x30 Core/Src/i2c.o
 .debug_aranges
                0x00000000000001d8       0x30 Core/Src/main.o
 .debug_aranges
                0x0000000000000208       0x20 Core/Src/stm32f3xx_hal_msp.o
 .debug_aranges
                0x0000000000000228       0x78 Core/Src/stm32f3xx_it.o
 .debug_aranges
                0x00000000000002a0       0x28 Core/Src/system_stm32f3xx.o
 .debug_aranges
                0x00000000000002c8       0x30 Core/Src/usart.o
 .debug_aranges
                0x00000000000002f8       0x28 Core/Startup/startup_stm32f334r8tx.o
 .debug_aranges
                0x0000000000000320       0xe0 Drivers/STM32F3xx_HAL_Driver/Src/stm32f3xx_hal.o
 .debug_aranges
                0x0000000000000400      0x100 Drivers/STM32F3xx_HAL_Driver/Src/stm32f3xx_hal_cortex.o
 .debug_aranges
                0x0000000000000500       0x88 Drivers/STM32F3xx_HAL_Driver/Src/stm32f3xx_hal_dma.o
 .debug_aranges
                0x0000000000000588       0x58 Drivers/STM32F3xx_HAL_Driver/Src/stm32f3xx_hal_gpio.o
 .debug_aranges
                0x00000000000005e0      0x290 Drivers/STM32F3xx_HAL_Driver/Src/stm32f3xx_hal_i2c.o
 .debug_aranges
                0x0000000000000870       0x48 Drivers/STM32F3xx_HAL_Driver/Src/stm32f3xx_hal_i2c_ex.o
 .debug_aranges
                0x00000000000008b8       0x88 Drivers/STM32F3xx_HAL_Driver/Src/stm32f3xx_hal_rcc.o
 .debug_aranges
                0x0000000000000940       0x38 Drivers/STM32F3xx_HAL_Driver/Src/stm32f3xx_hal_rcc_ex.o
 .debug_aranges
                0x0000000000000978      0x228 Drivers/STM32F3xx_HAL_Driver/Src/stm32f3xx_hal_uart.o
 .debug_aranges
                0x0000000000000ba0       0x68 Drivers/STM32F3xx_HAL_Driver/Src/stm32f3xx_hal_uart_ex.o

.debug_ranges   0x0000000000000000      0xb00
 .debug_ranges  0x0000000000000000       0x98 Core/Src/HID_Manual_LOGIC.o
 .debug_ranges  0x0000000000000098       0x70 Core/Src/LSM6DS0.o
 .debug_ranges  0x0000000000000108       0x70 Core/Src/RS485Prot.o
 .debug_ranges  0x0000000000000178       0x20 Core/Src/i2c.o
 .debug_ranges  0x0000000000000198       0x20 Core/Src/main.o
 .debug_ranges  0x00000000000001b8       0x10 Core/Src/stm32f3xx_hal_msp.o
 .debug_ranges  0x00000000000001c8       0x68 Core/Src/stm32f3xx_it.o
 .debug_ranges  0x0000000000000230       0x18 Core/Src/system_stm32f3xx.o
 .debug_ranges  0x0000000000000248       0x20 Core/Src/usart.o
 .debug_ranges  0x0000000000000268       0x20 Core/Startup/startup_stm32f334r8tx.o
 .debug_ranges  0x0000000000000288       0xd0 Drivers/STM32F3xx_HAL_Driver/Src/stm32f3xx_hal.o
 .debug_ranges  0x0000000000000358       0xf0 Drivers/STM32F3xx_HAL_Driver/Src/stm32f3xx_hal_cortex.o
 .debug_ranges  0x0000000000000448       0x78 Drivers/STM32F3xx_HAL_Driver/Src/stm32f3xx_hal_dma.o
 .debug_ranges  0x00000000000004c0       0x48 Drivers/STM32F3xx_HAL_Driver/Src/stm32f3xx_hal_gpio.o
 .debug_ranges  0x0000000000000508      0x280 Drivers/STM32F3xx_HAL_Driver/Src/stm32f3xx_hal_i2c.o
 .debug_ranges  0x0000000000000788       0x38 Drivers/STM32F3xx_HAL_Driver/Src/stm32f3xx_hal_i2c_ex.o
 .debug_ranges  0x00000000000007c0       0x78 Drivers/STM32F3xx_HAL_Driver/Src/stm32f3xx_hal_rcc.o
 .debug_ranges  0x0000000000000838       0x28 Drivers/STM32F3xx_HAL_Driver/Src/stm32f3xx_hal_rcc_ex.o
 .debug_ranges  0x0000000000000860      0x248 Drivers/STM32F3xx_HAL_Driver/Src/stm32f3xx_hal_uart.o
 .debug_ranges  0x0000000000000aa8       0x58 Drivers/STM32F3xx_HAL_Driver/Src/stm32f3xx_hal_uart_ex.o

.debug_macro    0x0000000000000000    0x20f80
 .debug_macro   0x0000000000000000      0x3ef Core/Src/HID_Manual_LOGIC.o
 .debug_macro   0x00000000000003ef      0xa5a Core/Src/HID_Manual_LOGIC.o
 .debug_macro   0x0000000000000e49       0x28 Core/Src/HID_Manual_LOGIC.o
 .debug_macro   0x0000000000000e71       0x22 Core/Src/HID_Manual_LOGIC.o
 .debug_macro   0x0000000000000e93       0x8e Core/Src/HID_Manual_LOGIC.o
 .debug_macro   0x0000000000000f21       0x51 Core/Src/HID_Manual_LOGIC.o
 .debug_macro   0x0000000000000f72       0xef Core/Src/HID_Manual_LOGIC.o
 .debug_macro   0x0000000000001061       0x6a Core/Src/HID_Manual_LOGIC.o
 .debug_macro   0x00000000000010cb      0x1df Core/Src/HID_Manual_LOGIC.o
 .debug_macro   0x00000000000012aa       0x1c Core/Src/HID_Manual_LOGIC.o
 .debug_macro   0x00000000000012c6       0x22 Core/Src/HID_Manual_LOGIC.o
 .debug_macro   0x00000000000012e8       0xdf Core/Src/HID_Manual_LOGIC.o
 .debug_macro   0x00000000000013c7      0xf07 Core/Src/HID_Manual_LOGIC.o
 .debug_macro   0x00000000000022ce    0x15464 Core/Src/HID_Manual_LOGIC.o
 .debug_macro   0x0000000000017732      0x151 Core/Src/HID_Manual_LOGIC.o
 .debug_macro   0x0000000000017883       0x2e Core/Src/HID_Manual_LOGIC.o
 .debug_macro   0x00000000000178b1       0x43 Core/Src/HID_Manual_LOGIC.o
 .debug_macro   0x00000000000178f4     0x35e9 Core/Src/HID_Manual_LOGIC.o
 .debug_macro   0x000000000001aedd      0x174 Core/Src/HID_Manual_LOGIC.o
 .debug_macro   0x000000000001b051       0x55 Core/Src/HID_Manual_LOGIC.o
 .debug_macro   0x000000000001b0a6      0x8f9 Core/Src/HID_Manual_LOGIC.o
 .debug_macro   0x000000000001b99f      0x358 Core/Src/HID_Manual_LOGIC.o
 .debug_macro   0x000000000001bcf7      0x12f Core/Src/HID_Manual_LOGIC.o
 .debug_macro   0x000000000001be26      0x130 Core/Src/HID_Manual_LOGIC.o
 .debug_macro   0x000000000001bf56      0x1d5 Core/Src/HID_Manual_LOGIC.o
 .debug_macro   0x000000000001c12b      0x1bc Core/Src/HID_Manual_LOGIC.o
 .debug_macro   0x000000000001c2e7       0x34 Core/Src/HID_Manual_LOGIC.o
 .debug_macro   0x000000000001c31b       0x3c Core/Src/HID_Manual_LOGIC.o
 .debug_macro   0x000000000001c357       0x57 Core/Src/HID_Manual_LOGIC.o
 .debug_macro   0x000000000001c3ae       0xc5 Core/Src/HID_Manual_LOGIC.o
 .debug_macro   0x000000000001c473      0x19f Core/Src/HID_Manual_LOGIC.o
 .debug_macro   0x000000000001c612      0x22c Core/Src/HID_Manual_LOGIC.o
 .debug_macro   0x000000000001c83e       0x5b Core/Src/HID_Manual_LOGIC.o
 .debug_macro   0x000000000001c899       0xa5 Core/Src/HID_Manual_LOGIC.o
 .debug_macro   0x000000000001c93e       0x81 Core/Src/HID_Manual_LOGIC.o
 .debug_macro   0x000000000001c9bf       0xd3 Core/Src/HID_Manual_LOGIC.o
 .debug_macro   0x000000000001ca92      0x5a5 Core/Src/HID_Manual_LOGIC.o
 .debug_macro   0x000000000001d037       0x44 Core/Src/HID_Manual_LOGIC.o
 .debug_macro   0x000000000001d07b      0x2a1 Core/Src/HID_Manual_LOGIC.o
 .debug_macro   0x000000000001d31c       0x22 Core/Src/HID_Manual_LOGIC.o
 .debug_macro   0x000000000001d33e       0x46 Core/Src/HID_Manual_LOGIC.o
 .debug_macro   0x000000000001d384       0x18 Core/Src/HID_Manual_LOGIC.o
 .debug_macro   0x000000000001d39c       0x3c Core/Src/HID_Manual_LOGIC.o
 .debug_macro   0x000000000001d3d8       0x34 Core/Src/HID_Manual_LOGIC.o
 .debug_macro   0x000000000001d40c       0x16 Core/Src/HID_Manual_LOGIC.o
 .debug_macro   0x000000000001d422       0x35 Core/Src/HID_Manual_LOGIC.o
 .debug_macro   0x000000000001d457      0x32a Core/Src/HID_Manual_LOGIC.o
 .debug_macro   0x000000000001d781       0x10 Core/Src/HID_Manual_LOGIC.o
 .debug_macro   0x000000000001d791       0x52 Core/Src/HID_Manual_LOGIC.o
 .debug_macro   0x000000000001d7e3       0x1f Core/Src/HID_Manual_LOGIC.o
 .debug_macro   0x000000000001d802       0x43 Core/Src/HID_Manual_LOGIC.o
 .debug_macro   0x000000000001d845       0x20 Core/Src/HID_Manual_LOGIC.o
 .debug_macro   0x000000000001d865      0x1a3 Core/Src/HID_Manual_LOGIC.o
 .debug_macro   0x000000000001da08       0x10 Core/Src/HID_Manual_LOGIC.o
 .debug_macro   0x000000000001da18       0x1c Core/Src/HID_Manual_LOGIC.o
 .debug_macro   0x000000000001da34       0x52 Core/Src/HID_Manual_LOGIC.o
 .debug_macro   0x000000000001da86       0x40 Core/Src/HID_Manual_LOGIC.o
 .debug_macro   0x000000000001dac6       0x10 Core/Src/HID_Manual_LOGIC.o
 .debug_macro   0x000000000001dad6       0x40 Core/Src/HID_Manual_LOGIC.o
 .debug_macro   0x000000000001db16       0xd7 Core/Src/HID_Manual_LOGIC.o
 .debug_macro   0x000000000001dbed       0x1c Core/Src/HID_Manual_LOGIC.o
 .debug_macro   0x000000000001dc09       0x3d Core/Src/HID_Manual_LOGIC.o
 .debug_macro   0x000000000001dc46       0x16 Core/Src/HID_Manual_LOGIC.o
 .debug_macro   0x000000000001dc5c      0x145 Core/Src/HID_Manual_LOGIC.o
 .debug_macro   0x000000000001dda1       0x16 Core/Src/HID_Manual_LOGIC.o
 .debug_macro   0x000000000001ddb7       0x20 Core/Src/HID_Manual_LOGIC.o
 .debug_macro   0x000000000001ddd7       0x16 Core/Src/HID_Manual_LOGIC.o
 .debug_macro   0x000000000001dded       0x16 Core/Src/HID_Manual_LOGIC.o
 .debug_macro   0x000000000001de03       0x29 Core/Src/HID_Manual_LOGIC.o
 .debug_macro   0x000000000001de2c      0x1ea Core/Src/HID_Manual_LOGIC.o
 .debug_macro   0x000000000001e016       0x16 Core/Src/HID_Manual_LOGIC.o
 .debug_macro   0x000000000001e02c       0x1c Core/Src/HID_Manual_LOGIC.o
 .debug_macro   0x000000000001e048      0x406 Core/Src/LSM6DS0.o
 .debug_macro   0x000000000001e44e      0x40c Core/Src/RS485Prot.o
 .debug_macro   0x000000000001e85a       0x10 Core/Src/RS485Prot.o
 .debug_macro   0x000000000001e86a      0x3d0 Core/Src/i2c.o
 .debug_macro   0x000000000001ec3a      0x3cc Core/Src/main.o
 .debug_macro   0x000000000001f006      0x3cc Core/Src/stm32f3xx_hal_msp.o
 .debug_macro   0x000000000001f3d2      0x3d6 Core/Src/stm32f3xx_it.o
 .debug_macro   0x000000000001f7a8      0x1b2 Core/Src/system_stm32f3xx.o
 .debug_macro   0x000000000001f95a      0x3d0 Core/Src/usart.o
 .debug_macro   0x000000000001fd2a      0x1d6 Drivers/STM32F3xx_HAL_Driver/Src/stm32f3xx_hal.o
 .debug_macro   0x000000000001ff00      0x1b2 Drivers/STM32F3xx_HAL_Driver/Src/stm32f3xx_hal_cortex.o
 .debug_macro   0x00000000000200b2      0x1b2 Drivers/STM32F3xx_HAL_Driver/Src/stm32f3xx_hal_dma.o
 .debug_macro   0x0000000000020264      0x1ea Drivers/STM32F3xx_HAL_Driver/Src/stm32f3xx_hal_gpio.o
 .debug_macro   0x000000000002044e      0x277 Drivers/STM32F3xx_HAL_Driver/Src/stm32f3xx_hal_i2c.o
 .debug_macro   0x00000000000206c5      0x1b2 Drivers/STM32F3xx_HAL_Driver/Src/stm32f3xx_hal_i2c_ex.o
 .debug_macro   0x0000000000020877      0x1d6 Drivers/STM32F3xx_HAL_Driver/Src/stm32f3xx_hal_rcc.o
 .debug_macro   0x0000000000020a4d      0x1b2 Drivers/STM32F3xx_HAL_Driver/Src/stm32f3xx_hal_rcc_ex.o
 .debug_macro   0x0000000000020bff      0x1cf Drivers/STM32F3xx_HAL_Driver/Src/stm32f3xx_hal_uart.o
 .debug_macro   0x0000000000020dce      0x1b2 Drivers/STM32F3xx_HAL_Driver/Src/stm32f3xx_hal_uart_ex.o

.debug_line     0x0000000000000000     0xcd40
 .debug_line    0x0000000000000000      0xac5 Core/Src/HID_Manual_LOGIC.o
 .debug_line    0x0000000000000ac5      0xadd Core/Src/LSM6DS0.o
 .debug_line    0x00000000000015a2      0xa7c Core/Src/RS485Prot.o
 .debug_line    0x000000000000201e      0x966 Core/Src/i2c.o
 .debug_line    0x0000000000002984      0x969 Core/Src/main.o
 .debug_line    0x00000000000032ed      0x935 Core/Src/stm32f3xx_hal_msp.o
 .debug_line    0x0000000000003c22      0xa0e Core/Src/stm32f3xx_it.o
 .debug_line    0x0000000000004630      0x6c9 Core/Src/system_stm32f3xx.o
 .debug_line    0x0000000000004cf9      0x962 Core/Src/usart.o
 .debug_line    0x000000000000565b       0x88 Core/Startup/startup_stm32f334r8tx.o
 .debug_line    0x00000000000056e3      0x887 Drivers/STM32F3xx_HAL_Driver/Src/stm32f3xx_hal.o
 .debug_line    0x0000000000005f6a      0x95e Drivers/STM32F3xx_HAL_Driver/Src/stm32f3xx_hal_cortex.o
 .debug_line    0x00000000000068c8      0x8c0 Drivers/STM32F3xx_HAL_Driver/Src/stm32f3xx_hal_dma.o
 .debug_line    0x0000000000007188      0x826 Drivers/STM32F3xx_HAL_Driver/Src/stm32f3xx_hal_gpio.o
 .debug_line    0x00000000000079ae     0x1a8f Drivers/STM32F3xx_HAL_Driver/Src/stm32f3xx_hal_i2c.o
 .debug_line    0x000000000000943d      0x7f0 Drivers/STM32F3xx_HAL_Driver/Src/stm32f3xx_hal_i2c_ex.o
 .debug_line    0x0000000000009c2d      0xdff Drivers/STM32F3xx_HAL_Driver/Src/stm32f3xx_hal_rcc.o
 .debug_line    0x000000000000aa2c      0x86f Drivers/STM32F3xx_HAL_Driver/Src/stm32f3xx_hal_rcc_ex.o
 .debug_line    0x000000000000b29b     0x11cc Drivers/STM32F3xx_HAL_Driver/Src/stm32f3xx_hal_uart.o
 .debug_line    0x000000000000c467      0x8d9 Drivers/STM32F3xx_HAL_Driver/Src/stm32f3xx_hal_uart_ex.o

.debug_str      0x0000000000000000    0xba3e1
 .debug_str     0x0000000000000000    0xb7360 Core/Src/HID_Manual_LOGIC.o
                                      0xb7895 (size before relaxing)
 .debug_str     0x00000000000b7360      0x289 Core/Src/LSM6DS0.o
                                      0xb76ea (size before relaxing)
 .debug_str     0x00000000000b75e9      0x2f4 Core/Src/RS485Prot.o
                                      0xb77fa (size before relaxing)
 .debug_str     0x00000000000b78dd       0x4b Core/Src/i2c.o
                                      0xb747d (size before relaxing)
 .debug_str     0x00000000000b7928      0x1fb Core/Src/main.o
                                      0xb720f (size before relaxing)
 .debug_str     0x00000000000b7b23       0x2c Core/Src/stm32f3xx_hal_msp.o
                                      0xb709a (size before relaxing)
 .debug_str     0x00000000000b7b4f       0xf5 Core/Src/stm32f3xx_it.o
                                      0xb7109 (size before relaxing)
 .debug_str     0x00000000000b7c44       0xed Core/Src/system_stm32f3xx.o
                                      0xb1bf7 (size before relaxing)
 .debug_str     0x00000000000b7d31       0x57 Core/Src/usart.o
                                      0xb7489 (size before relaxing)
 .debug_str     0x00000000000b7d88       0x36 Core/Startup/startup_stm32f334r8tx.o
                                         0x70 (size before relaxing)
 .debug_str     0x00000000000b7dbe      0x305 Drivers/STM32F3xx_HAL_Driver/Src/stm32f3xx_hal.o
                                      0xb22bd (size before relaxing)
 .debug_str     0x00000000000b80c3      0x249 Drivers/STM32F3xx_HAL_Driver/Src/stm32f3xx_hal_cortex.o
                                      0xb229e (size before relaxing)
 .debug_str     0x00000000000b830c      0x24d Drivers/STM32F3xx_HAL_Driver/Src/stm32f3xx_hal_dma.o
                                      0xb1f71 (size before relaxing)
 .debug_str     0x00000000000b8559      0x278 Drivers/STM32F3xx_HAL_Driver/Src/stm32f3xx_hal_gpio.o
                                      0xb1ecf (size before relaxing)
 .debug_str     0x00000000000b87d1      0xdc5 Drivers/STM32F3xx_HAL_Driver/Src/stm32f3xx_hal_i2c.o
                                      0xb2e4b (size before relaxing)
 .debug_str     0x00000000000b9596       0xb8 Drivers/STM32F3xx_HAL_Driver/Src/stm32f3xx_hal_i2c_ex.o
                                      0xb21b4 (size before relaxing)
 .debug_str     0x00000000000b964e      0x2e5 Drivers/STM32F3xx_HAL_Driver/Src/stm32f3xx_hal_rcc.o
                                      0xb2065 (size before relaxing)
 .debug_str     0x00000000000b9933       0xd8 Drivers/STM32F3xx_HAL_Driver/Src/stm32f3xx_hal_rcc_ex.o
                                      0xb1d8e (size before relaxing)
 .debug_str     0x00000000000b9a0b      0x82f Drivers/STM32F3xx_HAL_Driver/Src/stm32f3xx_hal_uart.o
                                      0xb2852 (size before relaxing)
 .debug_str     0x00000000000ba23a      0x1a7 Drivers/STM32F3xx_HAL_Driver/Src/stm32f3xx_hal_uart_ex.o
                                      0xb213b (size before relaxing)

.comment        0x0000000000000000       0x7b
 .comment       0x0000000000000000       0x7b Core/Src/HID_Manual_LOGIC.o
                                         0x7c (size before relaxing)
 .comment       0x000000000000007b       0x7c Core/Src/LSM6DS0.o
 .comment       0x000000000000007b       0x7c Core/Src/RS485Prot.o
 .comment       0x000000000000007b       0x7c Core/Src/i2c.o
 .comment       0x000000000000007b       0x7c Core/Src/main.o
 .comment       0x000000000000007b       0x7c Core/Src/stm32f3xx_hal_msp.o
 .comment       0x000000000000007b       0x7c Core/Src/stm32f3xx_it.o
 .comment       0x000000000000007b       0x7c Core/Src/system_stm32f3xx.o
 .comment       0x000000000000007b       0x7c Core/Src/usart.o
 .comment       0x000000000000007b       0x7c Drivers/STM32F3xx_HAL_Driver/Src/stm32f3xx_hal.o
 .comment       0x000000000000007b       0x7c Drivers/STM32F3xx_HAL_Driver/Src/stm32f3xx_hal_cortex.o
 .comment       0x000000000000007b       0x7c Drivers/STM32F3xx_HAL_Driver/Src/stm32f3xx_hal_dma.o
 .comment       0x000000000000007b       0x7c Drivers/STM32F3xx_HAL_Driver/Src/stm32f3xx_hal_gpio.o
 .comment       0x000000000000007b       0x7c Drivers/STM32F3xx_HAL_Driver/Src/stm32f3xx_hal_i2c.o
 .comment       0x000000000000007b       0x7c Drivers/STM32F3xx_HAL_Driver/Src/stm32f3xx_hal_i2c_ex.o
 .comment       0x000000000000007b       0x7c Drivers/STM32F3xx_HAL_Driver/Src/stm32f3xx_hal_rcc.o
 .comment       0x000000000000007b       0x7c Drivers/STM32F3xx_HAL_Driver/Src/stm32f3xx_hal_rcc_ex.o
 .comment       0x000000000000007b       0x7c Drivers/STM32F3xx_HAL_Driver/Src/stm32f3xx_hal_uart.o
 .comment       0x000000000000007b       0x7c Drivers/STM32F3xx_HAL_Driver/Src/stm32f3xx_hal_uart_ex.o

.debug_frame    0x0000000000000000     0x2fdc
 .debug_frame   0x0000000000000000      0x26c Core/Src/HID_Manual_LOGIC.o
 .debug_frame   0x000000000000026c      0x1d8 Core/Src/LSM6DS0.o
 .debug_frame   0x0000000000000444      0x1f4 Core/Src/RS485Prot.o
 .debug_frame   0x0000000000000638       0x74 Core/Src/i2c.o
 .debug_frame   0x00000000000006ac       0x70 Core/Src/main.o
 .debug_frame   0x000000000000071c       0x34 Core/Src/stm32f3xx_hal_msp.o
 .debug_frame   0x0000000000000750      0x160 Core/Src/stm32f3xx_it.o
 .debug_frame   0x00000000000008b0       0x58 Core/Src/system_stm32f3xx.o
 .debug_frame   0x0000000000000908       0x74 Core/Src/usart.o
 .debug_frame   0x000000000000097c      0x334 Drivers/STM32F3xx_HAL_Driver/Src/stm32f3xx_hal.o
 .debug_frame   0x0000000000000cb0      0x428 Drivers/STM32F3xx_HAL_Driver/Src/stm32f3xx_hal_cortex.o
 .debug_frame   0x00000000000010d8      0x224 Drivers/STM32F3xx_HAL_Driver/Src/stm32f3xx_hal_dma.o
 .debug_frame   0x00000000000012fc      0x14c Drivers/STM32F3xx_HAL_Driver/Src/stm32f3xx_hal_gpio.o
 .debug_frame   0x0000000000001448      0xbe8 Drivers/STM32F3xx_HAL_Driver/Src/stm32f3xx_hal_i2c.o
 .debug_frame   0x0000000000002030      0x100 Drivers/STM32F3xx_HAL_Driver/Src/stm32f3xx_hal_i2c_ex.o
 .debug_frame   0x0000000000002130      0x214 Drivers/STM32F3xx_HAL_Driver/Src/stm32f3xx_hal_rcc.o
 .debug_frame   0x0000000000002344       0xb4 Drivers/STM32F3xx_HAL_Driver/Src/stm32f3xx_hal_rcc_ex.o
 .debug_frame   0x00000000000023f8      0x9e0 Drivers/STM32F3xx_HAL_Driver/Src/stm32f3xx_hal_uart.o
 .debug_frame   0x0000000000002dd8      0x190 Drivers/STM32F3xx_HAL_Driver/Src/stm32f3xx_hal_uart_ex.o
 .debug_frame   0x0000000000002f68       0x2c c:/st/stm32cubeide_1.2.0/stm32cubeide/plugins/com.st.stm32cube.ide.mcu.externaltools.gnu-tools-for-stm32.7-2018-q2-update.win32_1.0.0.201904181610/tools/bin/../lib/gcc/arm-none-eabi/7.3.1/../../../../arm-none-eabi/lib/thumb/v7e-m/fpv4-sp/hard\libc_nano.a(lib_a-init.o)
 .debug_frame   0x0000000000002f94       0x28 c:/st/stm32cubeide_1.2.0/stm32cubeide/plugins/com.st.stm32cube.ide.mcu.externaltools.gnu-tools-for-stm32.7-2018-q2-update.win32_1.0.0.201904181610/tools/bin/../lib/gcc/arm-none-eabi/7.3.1/../../../../arm-none-eabi/lib/thumb/v7e-m/fpv4-sp/hard\libc_nano.a(lib_a-memcpy-stub.o)
 .debug_frame   0x0000000000002fbc       0x20 c:/st/stm32cubeide_1.2.0/stm32cubeide/plugins/com.st.stm32cube.ide.mcu.externaltools.gnu-tools-for-stm32.7-2018-q2-update.win32_1.0.0.201904181610/tools/bin/../lib/gcc/arm-none-eabi/7.3.1/../../../../arm-none-eabi/lib/thumb/v7e-m/fpv4-sp/hard\libc_nano.a(lib_a-memset.o)
