
ADC_Test_F401.elf:     file format elf32-littlearm

Sections:
Idx Name          Size      VMA       LMA       File off  Algn
  0 .isr_vector   00000194  08000000  08000000  00010000  2**0
                  CONTENTS, ALLOC, LOAD, READONLY, DATA
  1 .text         00002700  08000194  08000194  00010194  2**2
                  CONTENTS, ALLOC, LOAD, READONLY, CODE
  2 .rodata       00000018  08002894  08002894  00012894  2**2
                  CONTENTS, ALLOC, LOAD, READONLY, DATA
  3 .ARM.extab    00000000  080028ac  080028ac  0002000c  2**0
                  CONTENTS
  4 .ARM          00000008  080028ac  080028ac  000128ac  2**2
                  CONTENTS, ALLOC, LOAD, READONLY, DATA
  5 .preinit_array 00000000  080028b4  080028b4  0002000c  2**0
                  CONTENTS, ALLOC, LOAD, DATA
  6 .init_array   00000004  080028b4  080028b4  000128b4  2**2
                  CONTENTS, ALLOC, LOAD, DATA
  7 .fini_array   00000004  080028b8  080028b8  000128b8  2**2
                  CONTENTS, ALLOC, LOAD, DATA
  8 .data         0000000c  20000000  080028bc  00020000  2**2
                  CONTENTS, ALLOC, LOAD, DATA
  9 .bss          000000d4  2000000c  080028c8  0002000c  2**2
                  ALLOC
 10 ._user_heap_stack 00000600  200000e0  080028c8  000200e0  2**0
                  ALLOC
 11 .ARM.attributes 00000030  00000000  00000000  0002000c  2**0
                  CONTENTS, READONLY
 12 .debug_info   00006fdd  00000000  00000000  0002003c  2**0
                  CONTENTS, READONLY, DEBUGGING, OCTETS
 13 .debug_abbrev 00001795  00000000  00000000  00027019  2**0
                  CONTENTS, READONLY, DEBUGGING, OCTETS
 14 .debug_aranges 000005d8  00000000  00000000  000287b0  2**3
                  CONTENTS, READONLY, DEBUGGING, OCTETS
 15 .debug_ranges 00000500  00000000  00000000  00028d88  2**3
                  CONTENTS, READONLY, DEBUGGING, OCTETS
 16 .debug_macro  00015c96  00000000  00000000  00029288  2**0
                  CONTENTS, READONLY, DEBUGGING, OCTETS
 17 .debug_line   0000817a  00000000  00000000  0003ef1e  2**0
                  CONTENTS, READONLY, DEBUGGING, OCTETS
 18 .debug_str    0008a56e  00000000  00000000  00047098  2**0
                  CONTENTS, READONLY, DEBUGGING, OCTETS
 19 .comment      00000053  00000000  00000000  000d1606  2**0
                  CONTENTS, READONLY
 20 .debug_frame  00001538  00000000  00000000  000d165c  2**2
                  CONTENTS, READONLY, DEBUGGING, OCTETS

Disassembly of section .text:

08000194 <__do_global_dtors_aux>:
 8000194:	b510      	push	{r4, lr}
 8000196:	4c05      	ldr	r4, [pc, #20]	; (80001ac <__do_global_dtors_aux+0x18>)
 8000198:	7823      	ldrb	r3, [r4, #0]
 800019a:	b933      	cbnz	r3, 80001aa <__do_global_dtors_aux+0x16>
 800019c:	4b04      	ldr	r3, [pc, #16]	; (80001b0 <__do_global_dtors_aux+0x1c>)
 800019e:	b113      	cbz	r3, 80001a6 <__do_global_dtors_aux+0x12>
 80001a0:	4804      	ldr	r0, [pc, #16]	; (80001b4 <__do_global_dtors_aux+0x20>)
 80001a2:	f3af 8000 	nop.w
 80001a6:	2301      	movs	r3, #1
 80001a8:	7023      	strb	r3, [r4, #0]
 80001aa:	bd10      	pop	{r4, pc}
 80001ac:	2000000c 	.word	0x2000000c
 80001b0:	00000000 	.word	0x00000000
 80001b4:	0800287c 	.word	0x0800287c

080001b8 <frame_dummy>:
 80001b8:	b508      	push	{r3, lr}
 80001ba:	4b03      	ldr	r3, [pc, #12]	; (80001c8 <frame_dummy+0x10>)
 80001bc:	b11b      	cbz	r3, 80001c6 <frame_dummy+0xe>
 80001be:	4903      	ldr	r1, [pc, #12]	; (80001cc <frame_dummy+0x14>)
 80001c0:	4803      	ldr	r0, [pc, #12]	; (80001d0 <frame_dummy+0x18>)
 80001c2:	f3af 8000 	nop.w
 80001c6:	bd08      	pop	{r3, pc}
 80001c8:	00000000 	.word	0x00000000
 80001cc:	20000010 	.word	0x20000010
 80001d0:	0800287c 	.word	0x0800287c

080001d4 <__aeabi_uldivmod>:
 80001d4:	b953      	cbnz	r3, 80001ec <__aeabi_uldivmod+0x18>
 80001d6:	b94a      	cbnz	r2, 80001ec <__aeabi_uldivmod+0x18>
 80001d8:	2900      	cmp	r1, #0
 80001da:	bf08      	it	eq
 80001dc:	2800      	cmpeq	r0, #0
 80001de:	bf1c      	itt	ne
 80001e0:	f04f 31ff 	movne.w	r1, #4294967295
 80001e4:	f04f 30ff 	movne.w	r0, #4294967295
 80001e8:	f000 b96e 	b.w	80004c8 <__aeabi_idiv0>
 80001ec:	f1ad 0c08 	sub.w	ip, sp, #8
 80001f0:	e96d ce04 	strd	ip, lr, [sp, #-16]!
 80001f4:	f000 f806 	bl	8000204 <__udivmoddi4>
 80001f8:	f8dd e004 	ldr.w	lr, [sp, #4]
 80001fc:	e9dd 2302 	ldrd	r2, r3, [sp, #8]
 8000200:	b004      	add	sp, #16
 8000202:	4770      	bx	lr

08000204 <__udivmoddi4>:
 8000204:	e92d 47f0 	stmdb	sp!, {r4, r5, r6, r7, r8, r9, sl, lr}
 8000208:	9d08      	ldr	r5, [sp, #32]
 800020a:	4604      	mov	r4, r0
 800020c:	468c      	mov	ip, r1
 800020e:	2b00      	cmp	r3, #0
 8000210:	f040 8083 	bne.w	800031a <__udivmoddi4+0x116>
 8000214:	428a      	cmp	r2, r1
 8000216:	4617      	mov	r7, r2
 8000218:	d947      	bls.n	80002aa <__udivmoddi4+0xa6>
 800021a:	fab2 f282 	clz	r2, r2
 800021e:	b142      	cbz	r2, 8000232 <__udivmoddi4+0x2e>
 8000220:	f1c2 0020 	rsb	r0, r2, #32
 8000224:	fa24 f000 	lsr.w	r0, r4, r0
 8000228:	4091      	lsls	r1, r2
 800022a:	4097      	lsls	r7, r2
 800022c:	ea40 0c01 	orr.w	ip, r0, r1
 8000230:	4094      	lsls	r4, r2
 8000232:	ea4f 4817 	mov.w	r8, r7, lsr #16
 8000236:	0c23      	lsrs	r3, r4, #16
 8000238:	fbbc f6f8 	udiv	r6, ip, r8
 800023c:	fa1f fe87 	uxth.w	lr, r7
 8000240:	fb08 c116 	mls	r1, r8, r6, ip
 8000244:	ea43 4301 	orr.w	r3, r3, r1, lsl #16
 8000248:	fb06 f10e 	mul.w	r1, r6, lr
 800024c:	4299      	cmp	r1, r3
 800024e:	d909      	bls.n	8000264 <__udivmoddi4+0x60>
 8000250:	18fb      	adds	r3, r7, r3
 8000252:	f106 30ff 	add.w	r0, r6, #4294967295
 8000256:	f080 8119 	bcs.w	800048c <__udivmoddi4+0x288>
 800025a:	4299      	cmp	r1, r3
 800025c:	f240 8116 	bls.w	800048c <__udivmoddi4+0x288>
 8000260:	3e02      	subs	r6, #2
 8000262:	443b      	add	r3, r7
 8000264:	1a5b      	subs	r3, r3, r1
 8000266:	b2a4      	uxth	r4, r4
 8000268:	fbb3 f0f8 	udiv	r0, r3, r8
 800026c:	fb08 3310 	mls	r3, r8, r0, r3
 8000270:	ea44 4403 	orr.w	r4, r4, r3, lsl #16
 8000274:	fb00 fe0e 	mul.w	lr, r0, lr
 8000278:	45a6      	cmp	lr, r4
 800027a:	d909      	bls.n	8000290 <__udivmoddi4+0x8c>
 800027c:	193c      	adds	r4, r7, r4
 800027e:	f100 33ff 	add.w	r3, r0, #4294967295
 8000282:	f080 8105 	bcs.w	8000490 <__udivmoddi4+0x28c>
 8000286:	45a6      	cmp	lr, r4
 8000288:	f240 8102 	bls.w	8000490 <__udivmoddi4+0x28c>
 800028c:	3802      	subs	r0, #2
 800028e:	443c      	add	r4, r7
 8000290:	ea40 4006 	orr.w	r0, r0, r6, lsl #16
 8000294:	eba4 040e 	sub.w	r4, r4, lr
 8000298:	2600      	movs	r6, #0
 800029a:	b11d      	cbz	r5, 80002a4 <__udivmoddi4+0xa0>
 800029c:	40d4      	lsrs	r4, r2
 800029e:	2300      	movs	r3, #0
 80002a0:	e9c5 4300 	strd	r4, r3, [r5]
 80002a4:	4631      	mov	r1, r6
 80002a6:	e8bd 87f0 	ldmia.w	sp!, {r4, r5, r6, r7, r8, r9, sl, pc}
 80002aa:	b902      	cbnz	r2, 80002ae <__udivmoddi4+0xaa>
 80002ac:	deff      	udf	#255	; 0xff
 80002ae:	fab2 f282 	clz	r2, r2
 80002b2:	2a00      	cmp	r2, #0
 80002b4:	d150      	bne.n	8000358 <__udivmoddi4+0x154>
 80002b6:	1bcb      	subs	r3, r1, r7
 80002b8:	ea4f 4e17 	mov.w	lr, r7, lsr #16
 80002bc:	fa1f f887 	uxth.w	r8, r7
 80002c0:	2601      	movs	r6, #1
 80002c2:	fbb3 fcfe 	udiv	ip, r3, lr
 80002c6:	0c21      	lsrs	r1, r4, #16
 80002c8:	fb0e 331c 	mls	r3, lr, ip, r3
 80002cc:	ea41 4103 	orr.w	r1, r1, r3, lsl #16
 80002d0:	fb08 f30c 	mul.w	r3, r8, ip
 80002d4:	428b      	cmp	r3, r1
 80002d6:	d907      	bls.n	80002e8 <__udivmoddi4+0xe4>
 80002d8:	1879      	adds	r1, r7, r1
 80002da:	f10c 30ff 	add.w	r0, ip, #4294967295
 80002de:	d202      	bcs.n	80002e6 <__udivmoddi4+0xe2>
 80002e0:	428b      	cmp	r3, r1
 80002e2:	f200 80e9 	bhi.w	80004b8 <__udivmoddi4+0x2b4>
 80002e6:	4684      	mov	ip, r0
 80002e8:	1ac9      	subs	r1, r1, r3
 80002ea:	b2a3      	uxth	r3, r4
 80002ec:	fbb1 f0fe 	udiv	r0, r1, lr
 80002f0:	fb0e 1110 	mls	r1, lr, r0, r1
 80002f4:	ea43 4401 	orr.w	r4, r3, r1, lsl #16
 80002f8:	fb08 f800 	mul.w	r8, r8, r0
 80002fc:	45a0      	cmp	r8, r4
 80002fe:	d907      	bls.n	8000310 <__udivmoddi4+0x10c>
 8000300:	193c      	adds	r4, r7, r4
 8000302:	f100 33ff 	add.w	r3, r0, #4294967295
 8000306:	d202      	bcs.n	800030e <__udivmoddi4+0x10a>
 8000308:	45a0      	cmp	r8, r4
 800030a:	f200 80d9 	bhi.w	80004c0 <__udivmoddi4+0x2bc>
 800030e:	4618      	mov	r0, r3
 8000310:	eba4 0408 	sub.w	r4, r4, r8
 8000314:	ea40 400c 	orr.w	r0, r0, ip, lsl #16
 8000318:	e7bf      	b.n	800029a <__udivmoddi4+0x96>
 800031a:	428b      	cmp	r3, r1
 800031c:	d909      	bls.n	8000332 <__udivmoddi4+0x12e>
 800031e:	2d00      	cmp	r5, #0
 8000320:	f000 80b1 	beq.w	8000486 <__udivmoddi4+0x282>
 8000324:	2600      	movs	r6, #0
 8000326:	e9c5 0100 	strd	r0, r1, [r5]
 800032a:	4630      	mov	r0, r6
 800032c:	4631      	mov	r1, r6
 800032e:	e8bd 87f0 	ldmia.w	sp!, {r4, r5, r6, r7, r8, r9, sl, pc}
 8000332:	fab3 f683 	clz	r6, r3
 8000336:	2e00      	cmp	r6, #0
 8000338:	d14a      	bne.n	80003d0 <__udivmoddi4+0x1cc>
 800033a:	428b      	cmp	r3, r1
 800033c:	d302      	bcc.n	8000344 <__udivmoddi4+0x140>
 800033e:	4282      	cmp	r2, r0
 8000340:	f200 80b8 	bhi.w	80004b4 <__udivmoddi4+0x2b0>
 8000344:	1a84      	subs	r4, r0, r2
 8000346:	eb61 0103 	sbc.w	r1, r1, r3
 800034a:	2001      	movs	r0, #1
 800034c:	468c      	mov	ip, r1
 800034e:	2d00      	cmp	r5, #0
 8000350:	d0a8      	beq.n	80002a4 <__udivmoddi4+0xa0>
 8000352:	e9c5 4c00 	strd	r4, ip, [r5]
 8000356:	e7a5      	b.n	80002a4 <__udivmoddi4+0xa0>
 8000358:	f1c2 0320 	rsb	r3, r2, #32
 800035c:	fa20 f603 	lsr.w	r6, r0, r3
 8000360:	4097      	lsls	r7, r2
 8000362:	fa01 f002 	lsl.w	r0, r1, r2
 8000366:	ea4f 4e17 	mov.w	lr, r7, lsr #16
 800036a:	40d9      	lsrs	r1, r3
 800036c:	4330      	orrs	r0, r6
 800036e:	0c03      	lsrs	r3, r0, #16
 8000370:	fbb1 f6fe 	udiv	r6, r1, lr
 8000374:	fa1f f887 	uxth.w	r8, r7
 8000378:	fb0e 1116 	mls	r1, lr, r6, r1
 800037c:	ea43 4301 	orr.w	r3, r3, r1, lsl #16
 8000380:	fb06 f108 	mul.w	r1, r6, r8
 8000384:	4299      	cmp	r1, r3
 8000386:	fa04 f402 	lsl.w	r4, r4, r2
 800038a:	d909      	bls.n	80003a0 <__udivmoddi4+0x19c>
 800038c:	18fb      	adds	r3, r7, r3
 800038e:	f106 3cff 	add.w	ip, r6, #4294967295
 8000392:	f080 808d 	bcs.w	80004b0 <__udivmoddi4+0x2ac>
 8000396:	4299      	cmp	r1, r3
 8000398:	f240 808a 	bls.w	80004b0 <__udivmoddi4+0x2ac>
 800039c:	3e02      	subs	r6, #2
 800039e:	443b      	add	r3, r7
 80003a0:	1a5b      	subs	r3, r3, r1
 80003a2:	b281      	uxth	r1, r0
 80003a4:	fbb3 f0fe 	udiv	r0, r3, lr
 80003a8:	fb0e 3310 	mls	r3, lr, r0, r3
 80003ac:	ea41 4103 	orr.w	r1, r1, r3, lsl #16
 80003b0:	fb00 f308 	mul.w	r3, r0, r8
 80003b4:	428b      	cmp	r3, r1
 80003b6:	d907      	bls.n	80003c8 <__udivmoddi4+0x1c4>
 80003b8:	1879      	adds	r1, r7, r1
 80003ba:	f100 3cff 	add.w	ip, r0, #4294967295
 80003be:	d273      	bcs.n	80004a8 <__udivmoddi4+0x2a4>
 80003c0:	428b      	cmp	r3, r1
 80003c2:	d971      	bls.n	80004a8 <__udivmoddi4+0x2a4>
 80003c4:	3802      	subs	r0, #2
 80003c6:	4439      	add	r1, r7
 80003c8:	1acb      	subs	r3, r1, r3
 80003ca:	ea40 4606 	orr.w	r6, r0, r6, lsl #16
 80003ce:	e778      	b.n	80002c2 <__udivmoddi4+0xbe>
 80003d0:	f1c6 0c20 	rsb	ip, r6, #32
 80003d4:	fa03 f406 	lsl.w	r4, r3, r6
 80003d8:	fa22 f30c 	lsr.w	r3, r2, ip
 80003dc:	431c      	orrs	r4, r3
 80003de:	fa20 f70c 	lsr.w	r7, r0, ip
 80003e2:	fa01 f306 	lsl.w	r3, r1, r6
 80003e6:	ea4f 4e14 	mov.w	lr, r4, lsr #16
 80003ea:	fa21 f10c 	lsr.w	r1, r1, ip
 80003ee:	431f      	orrs	r7, r3
 80003f0:	0c3b      	lsrs	r3, r7, #16
 80003f2:	fbb1 f9fe 	udiv	r9, r1, lr
 80003f6:	fa1f f884 	uxth.w	r8, r4
 80003fa:	fb0e 1119 	mls	r1, lr, r9, r1
 80003fe:	ea43 4101 	orr.w	r1, r3, r1, lsl #16
 8000402:	fb09 fa08 	mul.w	sl, r9, r8
 8000406:	458a      	cmp	sl, r1
 8000408:	fa02 f206 	lsl.w	r2, r2, r6
 800040c:	fa00 f306 	lsl.w	r3, r0, r6
 8000410:	d908      	bls.n	8000424 <__udivmoddi4+0x220>
 8000412:	1861      	adds	r1, r4, r1
 8000414:	f109 30ff 	add.w	r0, r9, #4294967295
 8000418:	d248      	bcs.n	80004ac <__udivmoddi4+0x2a8>
 800041a:	458a      	cmp	sl, r1
 800041c:	d946      	bls.n	80004ac <__udivmoddi4+0x2a8>
 800041e:	f1a9 0902 	sub.w	r9, r9, #2
 8000422:	4421      	add	r1, r4
 8000424:	eba1 010a 	sub.w	r1, r1, sl
 8000428:	b2bf      	uxth	r7, r7
 800042a:	fbb1 f0fe 	udiv	r0, r1, lr
 800042e:	fb0e 1110 	mls	r1, lr, r0, r1
 8000432:	ea47 4701 	orr.w	r7, r7, r1, lsl #16
 8000436:	fb00 f808 	mul.w	r8, r0, r8
 800043a:	45b8      	cmp	r8, r7
 800043c:	d907      	bls.n	800044e <__udivmoddi4+0x24a>
 800043e:	19e7      	adds	r7, r4, r7
 8000440:	f100 31ff 	add.w	r1, r0, #4294967295
 8000444:	d22e      	bcs.n	80004a4 <__udivmoddi4+0x2a0>
 8000446:	45b8      	cmp	r8, r7
 8000448:	d92c      	bls.n	80004a4 <__udivmoddi4+0x2a0>
 800044a:	3802      	subs	r0, #2
 800044c:	4427      	add	r7, r4
 800044e:	ea40 4009 	orr.w	r0, r0, r9, lsl #16
 8000452:	eba7 0708 	sub.w	r7, r7, r8
 8000456:	fba0 8902 	umull	r8, r9, r0, r2
 800045a:	454f      	cmp	r7, r9
 800045c:	46c6      	mov	lr, r8
 800045e:	4649      	mov	r1, r9
 8000460:	d31a      	bcc.n	8000498 <__udivmoddi4+0x294>
 8000462:	d017      	beq.n	8000494 <__udivmoddi4+0x290>
 8000464:	b15d      	cbz	r5, 800047e <__udivmoddi4+0x27a>
 8000466:	ebb3 020e 	subs.w	r2, r3, lr
 800046a:	eb67 0701 	sbc.w	r7, r7, r1
 800046e:	fa07 fc0c 	lsl.w	ip, r7, ip
 8000472:	40f2      	lsrs	r2, r6
 8000474:	ea4c 0202 	orr.w	r2, ip, r2
 8000478:	40f7      	lsrs	r7, r6
 800047a:	e9c5 2700 	strd	r2, r7, [r5]
 800047e:	2600      	movs	r6, #0
 8000480:	4631      	mov	r1, r6
 8000482:	e8bd 87f0 	ldmia.w	sp!, {r4, r5, r6, r7, r8, r9, sl, pc}
 8000486:	462e      	mov	r6, r5
 8000488:	4628      	mov	r0, r5
 800048a:	e70b      	b.n	80002a4 <__udivmoddi4+0xa0>
 800048c:	4606      	mov	r6, r0
 800048e:	e6e9      	b.n	8000264 <__udivmoddi4+0x60>
 8000490:	4618      	mov	r0, r3
 8000492:	e6fd      	b.n	8000290 <__udivmoddi4+0x8c>
 8000494:	4543      	cmp	r3, r8
 8000496:	d2e5      	bcs.n	8000464 <__udivmoddi4+0x260>
 8000498:	ebb8 0e02 	subs.w	lr, r8, r2
 800049c:	eb69 0104 	sbc.w	r1, r9, r4
 80004a0:	3801      	subs	r0, #1
 80004a2:	e7df      	b.n	8000464 <__udivmoddi4+0x260>
 80004a4:	4608      	mov	r0, r1
 80004a6:	e7d2      	b.n	800044e <__udivmoddi4+0x24a>
 80004a8:	4660      	mov	r0, ip
 80004aa:	e78d      	b.n	80003c8 <__udivmoddi4+0x1c4>
 80004ac:	4681      	mov	r9, r0
 80004ae:	e7b9      	b.n	8000424 <__udivmoddi4+0x220>
 80004b0:	4666      	mov	r6, ip
 80004b2:	e775      	b.n	80003a0 <__udivmoddi4+0x19c>
 80004b4:	4630      	mov	r0, r6
 80004b6:	e74a      	b.n	800034e <__udivmoddi4+0x14a>
 80004b8:	f1ac 0c02 	sub.w	ip, ip, #2
 80004bc:	4439      	add	r1, r7
 80004be:	e713      	b.n	80002e8 <__udivmoddi4+0xe4>
 80004c0:	3802      	subs	r0, #2
 80004c2:	443c      	add	r4, r7
 80004c4:	e724      	b.n	8000310 <__udivmoddi4+0x10c>
 80004c6:	bf00      	nop

080004c8 <__aeabi_idiv0>:
 80004c8:	4770      	bx	lr
 80004ca:	bf00      	nop

080004cc <MX_ADC1_Init>:
ADC_HandleTypeDef hadc1;
DMA_HandleTypeDef hdma_adc1;

/* ADC1 init function */
void MX_ADC1_Init(void)
{
 80004cc:	b580      	push	{r7, lr}
 80004ce:	b084      	sub	sp, #16
 80004d0:	af00      	add	r7, sp, #0

  /* USER CODE BEGIN ADC1_Init 0 */

  /* USER CODE END ADC1_Init 0 */

  ADC_ChannelConfTypeDef sConfig = {0};
 80004d2:	463b      	mov	r3, r7
 80004d4:	2200      	movs	r2, #0
 80004d6:	601a      	str	r2, [r3, #0]
 80004d8:	605a      	str	r2, [r3, #4]
 80004da:	609a      	str	r2, [r3, #8]
 80004dc:	60da      	str	r2, [r3, #12]
  /* USER CODE BEGIN ADC1_Init 1 */

  /* USER CODE END ADC1_Init 1 */
  /** Configure the global features of the ADC (Clock, Resolution, Data Alignment and number of conversion)
  */
  hadc1.Instance = ADC1;
 80004de:	4b45      	ldr	r3, [pc, #276]	; (80005f4 <MX_ADC1_Init+0x128>)
 80004e0:	4a45      	ldr	r2, [pc, #276]	; (80005f8 <MX_ADC1_Init+0x12c>)
 80004e2:	601a      	str	r2, [r3, #0]
  hadc1.Init.ClockPrescaler = ADC_CLOCK_SYNC_PCLK_DIV6;
 80004e4:	4b43      	ldr	r3, [pc, #268]	; (80005f4 <MX_ADC1_Init+0x128>)
 80004e6:	f44f 3200 	mov.w	r2, #131072	; 0x20000
 80004ea:	605a      	str	r2, [r3, #4]
  hadc1.Init.Resolution = ADC_RESOLUTION_12B;
 80004ec:	4b41      	ldr	r3, [pc, #260]	; (80005f4 <MX_ADC1_Init+0x128>)
 80004ee:	2200      	movs	r2, #0
 80004f0:	609a      	str	r2, [r3, #8]
  hadc1.Init.ScanConvMode = ENABLE;
 80004f2:	4b40      	ldr	r3, [pc, #256]	; (80005f4 <MX_ADC1_Init+0x128>)
 80004f4:	2201      	movs	r2, #1
 80004f6:	611a      	str	r2, [r3, #16]
  hadc1.Init.ContinuousConvMode = ENABLE;
 80004f8:	4b3e      	ldr	r3, [pc, #248]	; (80005f4 <MX_ADC1_Init+0x128>)
 80004fa:	2201      	movs	r2, #1
 80004fc:	761a      	strb	r2, [r3, #24]
  hadc1.Init.DiscontinuousConvMode = DISABLE;
 80004fe:	4b3d      	ldr	r3, [pc, #244]	; (80005f4 <MX_ADC1_Init+0x128>)
 8000500:	2200      	movs	r2, #0
 8000502:	f883 2020 	strb.w	r2, [r3, #32]
  hadc1.Init.ExternalTrigConvEdge = ADC_EXTERNALTRIGCONVEDGE_NONE;
 8000506:	4b3b      	ldr	r3, [pc, #236]	; (80005f4 <MX_ADC1_Init+0x128>)
 8000508:	2200      	movs	r2, #0
 800050a:	62da      	str	r2, [r3, #44]	; 0x2c
  hadc1.Init.ExternalTrigConv = ADC_SOFTWARE_START;
 800050c:	4b39      	ldr	r3, [pc, #228]	; (80005f4 <MX_ADC1_Init+0x128>)
 800050e:	4a3b      	ldr	r2, [pc, #236]	; (80005fc <MX_ADC1_Init+0x130>)
 8000510:	629a      	str	r2, [r3, #40]	; 0x28
  hadc1.Init.DataAlign = ADC_DATAALIGN_RIGHT;
 8000512:	4b38      	ldr	r3, [pc, #224]	; (80005f4 <MX_ADC1_Init+0x128>)
 8000514:	2200      	movs	r2, #0
 8000516:	60da      	str	r2, [r3, #12]
  hadc1.Init.NbrOfConversion = 6;
 8000518:	4b36      	ldr	r3, [pc, #216]	; (80005f4 <MX_ADC1_Init+0x128>)
 800051a:	2206      	movs	r2, #6
 800051c:	61da      	str	r2, [r3, #28]
  hadc1.Init.DMAContinuousRequests = ENABLE;
 800051e:	4b35      	ldr	r3, [pc, #212]	; (80005f4 <MX_ADC1_Init+0x128>)
 8000520:	2201      	movs	r2, #1
 8000522:	f883 2030 	strb.w	r2, [r3, #48]	; 0x30
  hadc1.Init.EOCSelection = ADC_EOC_SINGLE_CONV;
 8000526:	4b33      	ldr	r3, [pc, #204]	; (80005f4 <MX_ADC1_Init+0x128>)
 8000528:	2201      	movs	r2, #1
 800052a:	615a      	str	r2, [r3, #20]
  if (HAL_ADC_Init(&hadc1) != HAL_OK)
 800052c:	4831      	ldr	r0, [pc, #196]	; (80005f4 <MX_ADC1_Init+0x128>)
 800052e:	f000 fb27 	bl	8000b80 <HAL_ADC_Init>
 8000532:	4603      	mov	r3, r0
 8000534:	2b00      	cmp	r3, #0
 8000536:	d001      	beq.n	800053c <MX_ADC1_Init+0x70>
  {
    Error_Handler();
 8000538:	f000 fa12 	bl	8000960 <Error_Handler>
  }
  /** Configure for the selected ADC regular channel its corresponding rank in the sequencer and its sample time.
  */
  sConfig.Channel = ADC_CHANNEL_0;
 800053c:	2300      	movs	r3, #0
 800053e:	603b      	str	r3, [r7, #0]
  sConfig.Rank = 1;
 8000540:	2301      	movs	r3, #1
 8000542:	607b      	str	r3, [r7, #4]
  sConfig.SamplingTime = ADC_SAMPLETIME_3CYCLES;
 8000544:	2300      	movs	r3, #0
 8000546:	60bb      	str	r3, [r7, #8]
  if (HAL_ADC_ConfigChannel(&hadc1, &sConfig) != HAL_OK)
 8000548:	463b      	mov	r3, r7
 800054a:	4619      	mov	r1, r3
 800054c:	4829      	ldr	r0, [pc, #164]	; (80005f4 <MX_ADC1_Init+0x128>)
 800054e:	f000 fc69 	bl	8000e24 <HAL_ADC_ConfigChannel>
 8000552:	4603      	mov	r3, r0
 8000554:	2b00      	cmp	r3, #0
 8000556:	d001      	beq.n	800055c <MX_ADC1_Init+0x90>
  {
    Error_Handler();
 8000558:	f000 fa02 	bl	8000960 <Error_Handler>
  }
  /** Configure for the selected ADC regular channel its corresponding rank in the sequencer and its sample time.
  */
  sConfig.Channel = ADC_CHANNEL_1;
 800055c:	2301      	movs	r3, #1
 800055e:	603b      	str	r3, [r7, #0]
  sConfig.Rank = 2;
 8000560:	2302      	movs	r3, #2
 8000562:	607b      	str	r3, [r7, #4]
  if (HAL_ADC_ConfigChannel(&hadc1, &sConfig) != HAL_OK)
 8000564:	463b      	mov	r3, r7
 8000566:	4619      	mov	r1, r3
 8000568:	4822      	ldr	r0, [pc, #136]	; (80005f4 <MX_ADC1_Init+0x128>)
 800056a:	f000 fc5b 	bl	8000e24 <HAL_ADC_ConfigChannel>
 800056e:	4603      	mov	r3, r0
 8000570:	2b00      	cmp	r3, #0
 8000572:	d001      	beq.n	8000578 <MX_ADC1_Init+0xac>
  {
    Error_Handler();
 8000574:	f000 f9f4 	bl	8000960 <Error_Handler>
  }
  /** Configure for the selected ADC regular channel its corresponding rank in the sequencer and its sample time.
  */
  sConfig.Channel = ADC_CHANNEL_8;
 8000578:	2308      	movs	r3, #8
 800057a:	603b      	str	r3, [r7, #0]
  sConfig.Rank = 3;
 800057c:	2303      	movs	r3, #3
 800057e:	607b      	str	r3, [r7, #4]
  if (HAL_ADC_ConfigChannel(&hadc1, &sConfig) != HAL_OK)
 8000580:	463b      	mov	r3, r7
 8000582:	4619      	mov	r1, r3
 8000584:	481b      	ldr	r0, [pc, #108]	; (80005f4 <MX_ADC1_Init+0x128>)
 8000586:	f000 fc4d 	bl	8000e24 <HAL_ADC_ConfigChannel>
 800058a:	4603      	mov	r3, r0
 800058c:	2b00      	cmp	r3, #0
 800058e:	d001      	beq.n	8000594 <MX_ADC1_Init+0xc8>
  {
    Error_Handler();
 8000590:	f000 f9e6 	bl	8000960 <Error_Handler>
  }
  /** Configure for the selected ADC regular channel its corresponding rank in the sequencer and its sample time.
  */
  sConfig.Channel = ADC_CHANNEL_11;
 8000594:	230b      	movs	r3, #11
 8000596:	603b      	str	r3, [r7, #0]
  sConfig.Rank = 4;
 8000598:	2304      	movs	r3, #4
 800059a:	607b      	str	r3, [r7, #4]
  if (HAL_ADC_ConfigChannel(&hadc1, &sConfig) != HAL_OK)
 800059c:	463b      	mov	r3, r7
 800059e:	4619      	mov	r1, r3
 80005a0:	4814      	ldr	r0, [pc, #80]	; (80005f4 <MX_ADC1_Init+0x128>)
 80005a2:	f000 fc3f 	bl	8000e24 <HAL_ADC_ConfigChannel>
 80005a6:	4603      	mov	r3, r0
 80005a8:	2b00      	cmp	r3, #0
 80005aa:	d001      	beq.n	80005b0 <MX_ADC1_Init+0xe4>
  {
    Error_Handler();
 80005ac:	f000 f9d8 	bl	8000960 <Error_Handler>
  }
  /** Configure for the selected ADC regular channel its corresponding rank in the sequencer and its sample time.
  */
  sConfig.Channel = ADC_CHANNEL_4;
 80005b0:	2304      	movs	r3, #4
 80005b2:	603b      	str	r3, [r7, #0]
  sConfig.Rank = 5;
 80005b4:	2305      	movs	r3, #5
 80005b6:	607b      	str	r3, [r7, #4]
  if (HAL_ADC_ConfigChannel(&hadc1, &sConfig) != HAL_OK)
 80005b8:	463b      	mov	r3, r7
 80005ba:	4619      	mov	r1, r3
 80005bc:	480d      	ldr	r0, [pc, #52]	; (80005f4 <MX_ADC1_Init+0x128>)
 80005be:	f000 fc31 	bl	8000e24 <HAL_ADC_ConfigChannel>
 80005c2:	4603      	mov	r3, r0
 80005c4:	2b00      	cmp	r3, #0
 80005c6:	d001      	beq.n	80005cc <MX_ADC1_Init+0x100>
  {
    Error_Handler();
 80005c8:	f000 f9ca 	bl	8000960 <Error_Handler>
  }
  /** Configure for the selected ADC regular channel its corresponding rank in the sequencer and its sample time.
  */
  sConfig.Channel = ADC_CHANNEL_TEMPSENSOR;
 80005cc:	2310      	movs	r3, #16
 80005ce:	603b      	str	r3, [r7, #0]
  sConfig.Rank = 6;
 80005d0:	2306      	movs	r3, #6
 80005d2:	607b      	str	r3, [r7, #4]
  sConfig.SamplingTime = ADC_SAMPLETIME_112CYCLES;
 80005d4:	2305      	movs	r3, #5
 80005d6:	60bb      	str	r3, [r7, #8]
  if (HAL_ADC_ConfigChannel(&hadc1, &sConfig) != HAL_OK)
 80005d8:	463b      	mov	r3, r7
 80005da:	4619      	mov	r1, r3
 80005dc:	4805      	ldr	r0, [pc, #20]	; (80005f4 <MX_ADC1_Init+0x128>)
 80005de:	f000 fc21 	bl	8000e24 <HAL_ADC_ConfigChannel>
 80005e2:	4603      	mov	r3, r0
 80005e4:	2b00      	cmp	r3, #0
 80005e6:	d001      	beq.n	80005ec <MX_ADC1_Init+0x120>
  {
    Error_Handler();
 80005e8:	f000 f9ba 	bl	8000960 <Error_Handler>
  }
  /* USER CODE BEGIN ADC1_Init 2 */

  /* USER CODE END ADC1_Init 2 */

}
 80005ec:	bf00      	nop
 80005ee:	3710      	adds	r7, #16
 80005f0:	46bd      	mov	sp, r7
 80005f2:	bd80      	pop	{r7, pc}
 80005f4:	20000034 	.word	0x20000034
 80005f8:	40012000 	.word	0x40012000
 80005fc:	0f000001 	.word	0x0f000001

08000600 <HAL_ADC_MspInit>:

void HAL_ADC_MspInit(ADC_HandleTypeDef* adcHandle)
{
 8000600:	b580      	push	{r7, lr}
 8000602:	b08c      	sub	sp, #48	; 0x30
 8000604:	af00      	add	r7, sp, #0
 8000606:	6078      	str	r0, [r7, #4]

  GPIO_InitTypeDef GPIO_InitStruct = {0};
 8000608:	f107 031c 	add.w	r3, r7, #28
 800060c:	2200      	movs	r2, #0
 800060e:	601a      	str	r2, [r3, #0]
 8000610:	605a      	str	r2, [r3, #4]
 8000612:	609a      	str	r2, [r3, #8]
 8000614:	60da      	str	r2, [r3, #12]
 8000616:	611a      	str	r2, [r3, #16]
  if(adcHandle->Instance==ADC1)
 8000618:	687b      	ldr	r3, [r7, #4]
 800061a:	681b      	ldr	r3, [r3, #0]
 800061c:	4a49      	ldr	r2, [pc, #292]	; (8000744 <HAL_ADC_MspInit+0x144>)
 800061e:	4293      	cmp	r3, r2
 8000620:	f040 808c 	bne.w	800073c <HAL_ADC_MspInit+0x13c>
  {
  /* USER CODE BEGIN ADC1_MspInit 0 */

  /* USER CODE END ADC1_MspInit 0 */
    /* ADC1 clock enable */
    __HAL_RCC_ADC1_CLK_ENABLE();
 8000624:	2300      	movs	r3, #0
 8000626:	61bb      	str	r3, [r7, #24]
 8000628:	4b47      	ldr	r3, [pc, #284]	; (8000748 <HAL_ADC_MspInit+0x148>)
 800062a:	6c5b      	ldr	r3, [r3, #68]	; 0x44
 800062c:	4a46      	ldr	r2, [pc, #280]	; (8000748 <HAL_ADC_MspInit+0x148>)
 800062e:	f443 7380 	orr.w	r3, r3, #256	; 0x100
 8000632:	6453      	str	r3, [r2, #68]	; 0x44
 8000634:	4b44      	ldr	r3, [pc, #272]	; (8000748 <HAL_ADC_MspInit+0x148>)
 8000636:	6c5b      	ldr	r3, [r3, #68]	; 0x44
 8000638:	f403 7380 	and.w	r3, r3, #256	; 0x100
 800063c:	61bb      	str	r3, [r7, #24]
 800063e:	69bb      	ldr	r3, [r7, #24]

    __HAL_RCC_GPIOC_CLK_ENABLE();
 8000640:	2300      	movs	r3, #0
 8000642:	617b      	str	r3, [r7, #20]
 8000644:	4b40      	ldr	r3, [pc, #256]	; (8000748 <HAL_ADC_MspInit+0x148>)
 8000646:	6b1b      	ldr	r3, [r3, #48]	; 0x30
 8000648:	4a3f      	ldr	r2, [pc, #252]	; (8000748 <HAL_ADC_MspInit+0x148>)
 800064a:	f043 0304 	orr.w	r3, r3, #4
 800064e:	6313      	str	r3, [r2, #48]	; 0x30
 8000650:	4b3d      	ldr	r3, [pc, #244]	; (8000748 <HAL_ADC_MspInit+0x148>)
 8000652:	6b1b      	ldr	r3, [r3, #48]	; 0x30
 8000654:	f003 0304 	and.w	r3, r3, #4
 8000658:	617b      	str	r3, [r7, #20]
 800065a:	697b      	ldr	r3, [r7, #20]
    __HAL_RCC_GPIOA_CLK_ENABLE();
 800065c:	2300      	movs	r3, #0
 800065e:	613b      	str	r3, [r7, #16]
 8000660:	4b39      	ldr	r3, [pc, #228]	; (8000748 <HAL_ADC_MspInit+0x148>)
 8000662:	6b1b      	ldr	r3, [r3, #48]	; 0x30
 8000664:	4a38      	ldr	r2, [pc, #224]	; (8000748 <HAL_ADC_MspInit+0x148>)
 8000666:	f043 0301 	orr.w	r3, r3, #1
 800066a:	6313      	str	r3, [r2, #48]	; 0x30
 800066c:	4b36      	ldr	r3, [pc, #216]	; (8000748 <HAL_ADC_MspInit+0x148>)
 800066e:	6b1b      	ldr	r3, [r3, #48]	; 0x30
 8000670:	f003 0301 	and.w	r3, r3, #1
 8000674:	613b      	str	r3, [r7, #16]
 8000676:	693b      	ldr	r3, [r7, #16]
    __HAL_RCC_GPIOB_CLK_ENABLE();
 8000678:	2300      	movs	r3, #0
 800067a:	60fb      	str	r3, [r7, #12]
 800067c:	4b32      	ldr	r3, [pc, #200]	; (8000748 <HAL_ADC_MspInit+0x148>)
 800067e:	6b1b      	ldr	r3, [r3, #48]	; 0x30
 8000680:	4a31      	ldr	r2, [pc, #196]	; (8000748 <HAL_ADC_MspInit+0x148>)
 8000682:	f043 0302 	orr.w	r3, r3, #2
 8000686:	6313      	str	r3, [r2, #48]	; 0x30
 8000688:	4b2f      	ldr	r3, [pc, #188]	; (8000748 <HAL_ADC_MspInit+0x148>)
 800068a:	6b1b      	ldr	r3, [r3, #48]	; 0x30
 800068c:	f003 0302 	and.w	r3, r3, #2
 8000690:	60fb      	str	r3, [r7, #12]
 8000692:	68fb      	ldr	r3, [r7, #12]
    PA0-WKUP     ------> ADC1_IN0
    PA1     ------> ADC1_IN1
    PA4     ------> ADC1_IN4
    PB0     ------> ADC1_IN8
    */
    GPIO_InitStruct.Pin = GPIO_PIN_1;
 8000694:	2302      	movs	r3, #2
 8000696:	61fb      	str	r3, [r7, #28]
    GPIO_InitStruct.Mode = GPIO_MODE_ANALOG;
 8000698:	2303      	movs	r3, #3
 800069a:	623b      	str	r3, [r7, #32]
    GPIO_InitStruct.Pull = GPIO_NOPULL;
 800069c:	2300      	movs	r3, #0
 800069e:	627b      	str	r3, [r7, #36]	; 0x24
    HAL_GPIO_Init(GPIOC, &GPIO_InitStruct);
 80006a0:	f107 031c 	add.w	r3, r7, #28
 80006a4:	4619      	mov	r1, r3
 80006a6:	4829      	ldr	r0, [pc, #164]	; (800074c <HAL_ADC_MspInit+0x14c>)
 80006a8:	f001 fade 	bl	8001c68 <HAL_GPIO_Init>

    GPIO_InitStruct.Pin = GPIO_PIN_0|GPIO_PIN_1|GPIO_PIN_4;
 80006ac:	2313      	movs	r3, #19
 80006ae:	61fb      	str	r3, [r7, #28]
    GPIO_InitStruct.Mode = GPIO_MODE_ANALOG;
 80006b0:	2303      	movs	r3, #3
 80006b2:	623b      	str	r3, [r7, #32]
    GPIO_InitStruct.Pull = GPIO_NOPULL;
 80006b4:	2300      	movs	r3, #0
 80006b6:	627b      	str	r3, [r7, #36]	; 0x24
    HAL_GPIO_Init(GPIOA, &GPIO_InitStruct);
 80006b8:	f107 031c 	add.w	r3, r7, #28
 80006bc:	4619      	mov	r1, r3
 80006be:	4824      	ldr	r0, [pc, #144]	; (8000750 <HAL_ADC_MspInit+0x150>)
 80006c0:	f001 fad2 	bl	8001c68 <HAL_GPIO_Init>

    GPIO_InitStruct.Pin = GPIO_PIN_0;
 80006c4:	2301      	movs	r3, #1
 80006c6:	61fb      	str	r3, [r7, #28]
    GPIO_InitStruct.Mode = GPIO_MODE_ANALOG;
 80006c8:	2303      	movs	r3, #3
 80006ca:	623b      	str	r3, [r7, #32]
    GPIO_InitStruct.Pull = GPIO_NOPULL;
 80006cc:	2300      	movs	r3, #0
 80006ce:	627b      	str	r3, [r7, #36]	; 0x24
    HAL_GPIO_Init(GPIOB, &GPIO_InitStruct);
 80006d0:	f107 031c 	add.w	r3, r7, #28
 80006d4:	4619      	mov	r1, r3
 80006d6:	481f      	ldr	r0, [pc, #124]	; (8000754 <HAL_ADC_MspInit+0x154>)
 80006d8:	f001 fac6 	bl	8001c68 <HAL_GPIO_Init>

    /* ADC1 DMA Init */
    /* ADC1 Init */
    hdma_adc1.Instance = DMA2_Stream0;
 80006dc:	4b1e      	ldr	r3, [pc, #120]	; (8000758 <HAL_ADC_MspInit+0x158>)
 80006de:	4a1f      	ldr	r2, [pc, #124]	; (800075c <HAL_ADC_MspInit+0x15c>)
 80006e0:	601a      	str	r2, [r3, #0]
    hdma_adc1.Init.Channel = DMA_CHANNEL_0;
 80006e2:	4b1d      	ldr	r3, [pc, #116]	; (8000758 <HAL_ADC_MspInit+0x158>)
 80006e4:	2200      	movs	r2, #0
 80006e6:	605a      	str	r2, [r3, #4]
    hdma_adc1.Init.Direction = DMA_PERIPH_TO_MEMORY;
 80006e8:	4b1b      	ldr	r3, [pc, #108]	; (8000758 <HAL_ADC_MspInit+0x158>)
 80006ea:	2200      	movs	r2, #0
 80006ec:	609a      	str	r2, [r3, #8]
    hdma_adc1.Init.PeriphInc = DMA_PINC_DISABLE;
 80006ee:	4b1a      	ldr	r3, [pc, #104]	; (8000758 <HAL_ADC_MspInit+0x158>)
 80006f0:	2200      	movs	r2, #0
 80006f2:	60da      	str	r2, [r3, #12]
    hdma_adc1.Init.MemInc = DMA_MINC_ENABLE;
 80006f4:	4b18      	ldr	r3, [pc, #96]	; (8000758 <HAL_ADC_MspInit+0x158>)
 80006f6:	f44f 6280 	mov.w	r2, #1024	; 0x400
 80006fa:	611a      	str	r2, [r3, #16]
    hdma_adc1.Init.PeriphDataAlignment = DMA_PDATAALIGN_HALFWORD;
 80006fc:	4b16      	ldr	r3, [pc, #88]	; (8000758 <HAL_ADC_MspInit+0x158>)
 80006fe:	f44f 6200 	mov.w	r2, #2048	; 0x800
 8000702:	615a      	str	r2, [r3, #20]
    hdma_adc1.Init.MemDataAlignment = DMA_MDATAALIGN_HALFWORD;
 8000704:	4b14      	ldr	r3, [pc, #80]	; (8000758 <HAL_ADC_MspInit+0x158>)
 8000706:	f44f 5200 	mov.w	r2, #8192	; 0x2000
 800070a:	619a      	str	r2, [r3, #24]
    hdma_adc1.Init.Mode = DMA_CIRCULAR;
 800070c:	4b12      	ldr	r3, [pc, #72]	; (8000758 <HAL_ADC_MspInit+0x158>)
 800070e:	f44f 7280 	mov.w	r2, #256	; 0x100
 8000712:	61da      	str	r2, [r3, #28]
    hdma_adc1.Init.Priority = DMA_PRIORITY_LOW;
 8000714:	4b10      	ldr	r3, [pc, #64]	; (8000758 <HAL_ADC_MspInit+0x158>)
 8000716:	2200      	movs	r2, #0
 8000718:	621a      	str	r2, [r3, #32]
    hdma_adc1.Init.FIFOMode = DMA_FIFOMODE_DISABLE;
 800071a:	4b0f      	ldr	r3, [pc, #60]	; (8000758 <HAL_ADC_MspInit+0x158>)
 800071c:	2200      	movs	r2, #0
 800071e:	625a      	str	r2, [r3, #36]	; 0x24
    if (HAL_DMA_Init(&hdma_adc1) != HAL_OK)
 8000720:	480d      	ldr	r0, [pc, #52]	; (8000758 <HAL_ADC_MspInit+0x158>)
 8000722:	f000 ff31 	bl	8001588 <HAL_DMA_Init>
 8000726:	4603      	mov	r3, r0
 8000728:	2b00      	cmp	r3, #0
 800072a:	d001      	beq.n	8000730 <HAL_ADC_MspInit+0x130>
    {
      Error_Handler();
 800072c:	f000 f918 	bl	8000960 <Error_Handler>
    }

    __HAL_LINKDMA(adcHandle,DMA_Handle,hdma_adc1);
 8000730:	687b      	ldr	r3, [r7, #4]
 8000732:	4a09      	ldr	r2, [pc, #36]	; (8000758 <HAL_ADC_MspInit+0x158>)
 8000734:	639a      	str	r2, [r3, #56]	; 0x38
 8000736:	4a08      	ldr	r2, [pc, #32]	; (8000758 <HAL_ADC_MspInit+0x158>)
 8000738:	687b      	ldr	r3, [r7, #4]
 800073a:	6393      	str	r3, [r2, #56]	; 0x38

  /* USER CODE BEGIN ADC1_MspInit 1 */

  /* USER CODE END ADC1_MspInit 1 */
  }
}
 800073c:	bf00      	nop
 800073e:	3730      	adds	r7, #48	; 0x30
 8000740:	46bd      	mov	sp, r7
 8000742:	bd80      	pop	{r7, pc}
 8000744:	40012000 	.word	0x40012000
 8000748:	40023800 	.word	0x40023800
 800074c:	40020800 	.word	0x40020800
 8000750:	40020000 	.word	0x40020000
 8000754:	40020400 	.word	0x40020400
 8000758:	2000007c 	.word	0x2000007c
 800075c:	40026410 	.word	0x40026410

08000760 <MX_DMA_Init>:

/**
  * Enable DMA controller clock
  */
void MX_DMA_Init(void)
{
 8000760:	b580      	push	{r7, lr}
 8000762:	b082      	sub	sp, #8
 8000764:	af00      	add	r7, sp, #0

  /* DMA controller clock enable */
  __HAL_RCC_DMA2_CLK_ENABLE();
 8000766:	2300      	movs	r3, #0
 8000768:	607b      	str	r3, [r7, #4]
 800076a:	4b0c      	ldr	r3, [pc, #48]	; (800079c <MX_DMA_Init+0x3c>)
 800076c:	6b1b      	ldr	r3, [r3, #48]	; 0x30
 800076e:	4a0b      	ldr	r2, [pc, #44]	; (800079c <MX_DMA_Init+0x3c>)
 8000770:	f443 0380 	orr.w	r3, r3, #4194304	; 0x400000
 8000774:	6313      	str	r3, [r2, #48]	; 0x30
 8000776:	4b09      	ldr	r3, [pc, #36]	; (800079c <MX_DMA_Init+0x3c>)
 8000778:	6b1b      	ldr	r3, [r3, #48]	; 0x30
 800077a:	f403 0380 	and.w	r3, r3, #4194304	; 0x400000
 800077e:	607b      	str	r3, [r7, #4]
 8000780:	687b      	ldr	r3, [r7, #4]

  /* DMA interrupt init */
  /* DMA2_Stream0_IRQn interrupt configuration */
  HAL_NVIC_SetPriority(DMA2_Stream0_IRQn, 0, 0);
 8000782:	2200      	movs	r2, #0
 8000784:	2100      	movs	r1, #0
 8000786:	2038      	movs	r0, #56	; 0x38
 8000788:	f000 fec7 	bl	800151a <HAL_NVIC_SetPriority>
  HAL_NVIC_EnableIRQ(DMA2_Stream0_IRQn);
 800078c:	2038      	movs	r0, #56	; 0x38
 800078e:	f000 fee0 	bl	8001552 <HAL_NVIC_EnableIRQ>

}
 8000792:	bf00      	nop
 8000794:	3708      	adds	r7, #8
 8000796:	46bd      	mov	sp, r7
 8000798:	bd80      	pop	{r7, pc}
 800079a:	bf00      	nop
 800079c:	40023800 	.word	0x40023800

080007a0 <MX_GPIO_Init>:
        * Output
        * EVENT_OUT
        * EXTI
*/
void MX_GPIO_Init(void)
{
 80007a0:	b580      	push	{r7, lr}
 80007a2:	b08a      	sub	sp, #40	; 0x28
 80007a4:	af00      	add	r7, sp, #0

  GPIO_InitTypeDef GPIO_InitStruct = {0};
 80007a6:	f107 0314 	add.w	r3, r7, #20
 80007aa:	2200      	movs	r2, #0
 80007ac:	601a      	str	r2, [r3, #0]
 80007ae:	605a      	str	r2, [r3, #4]
 80007b0:	609a      	str	r2, [r3, #8]
 80007b2:	60da      	str	r2, [r3, #12]
 80007b4:	611a      	str	r2, [r3, #16]

  /* GPIO Ports Clock Enable */
  __HAL_RCC_GPIOH_CLK_ENABLE();
 80007b6:	2300      	movs	r3, #0
 80007b8:	613b      	str	r3, [r7, #16]
 80007ba:	4b26      	ldr	r3, [pc, #152]	; (8000854 <MX_GPIO_Init+0xb4>)
 80007bc:	6b1b      	ldr	r3, [r3, #48]	; 0x30
 80007be:	4a25      	ldr	r2, [pc, #148]	; (8000854 <MX_GPIO_Init+0xb4>)
 80007c0:	f043 0380 	orr.w	r3, r3, #128	; 0x80
 80007c4:	6313      	str	r3, [r2, #48]	; 0x30
 80007c6:	4b23      	ldr	r3, [pc, #140]	; (8000854 <MX_GPIO_Init+0xb4>)
 80007c8:	6b1b      	ldr	r3, [r3, #48]	; 0x30
 80007ca:	f003 0380 	and.w	r3, r3, #128	; 0x80
 80007ce:	613b      	str	r3, [r7, #16]
 80007d0:	693b      	ldr	r3, [r7, #16]
  __HAL_RCC_GPIOC_CLK_ENABLE();
 80007d2:	2300      	movs	r3, #0
 80007d4:	60fb      	str	r3, [r7, #12]
 80007d6:	4b1f      	ldr	r3, [pc, #124]	; (8000854 <MX_GPIO_Init+0xb4>)
 80007d8:	6b1b      	ldr	r3, [r3, #48]	; 0x30
 80007da:	4a1e      	ldr	r2, [pc, #120]	; (8000854 <MX_GPIO_Init+0xb4>)
 80007dc:	f043 0304 	orr.w	r3, r3, #4
 80007e0:	6313      	str	r3, [r2, #48]	; 0x30
 80007e2:	4b1c      	ldr	r3, [pc, #112]	; (8000854 <MX_GPIO_Init+0xb4>)
 80007e4:	6b1b      	ldr	r3, [r3, #48]	; 0x30
 80007e6:	f003 0304 	and.w	r3, r3, #4
 80007ea:	60fb      	str	r3, [r7, #12]
 80007ec:	68fb      	ldr	r3, [r7, #12]
  __HAL_RCC_GPIOA_CLK_ENABLE();
 80007ee:	2300      	movs	r3, #0
 80007f0:	60bb      	str	r3, [r7, #8]
 80007f2:	4b18      	ldr	r3, [pc, #96]	; (8000854 <MX_GPIO_Init+0xb4>)
 80007f4:	6b1b      	ldr	r3, [r3, #48]	; 0x30
 80007f6:	4a17      	ldr	r2, [pc, #92]	; (8000854 <MX_GPIO_Init+0xb4>)
 80007f8:	f043 0301 	orr.w	r3, r3, #1
 80007fc:	6313      	str	r3, [r2, #48]	; 0x30
 80007fe:	4b15      	ldr	r3, [pc, #84]	; (8000854 <MX_GPIO_Init+0xb4>)
 8000800:	6b1b      	ldr	r3, [r3, #48]	; 0x30
 8000802:	f003 0301 	and.w	r3, r3, #1
 8000806:	60bb      	str	r3, [r7, #8]
 8000808:	68bb      	ldr	r3, [r7, #8]
  __HAL_RCC_GPIOB_CLK_ENABLE();
 800080a:	2300      	movs	r3, #0
 800080c:	607b      	str	r3, [r7, #4]
 800080e:	4b11      	ldr	r3, [pc, #68]	; (8000854 <MX_GPIO_Init+0xb4>)
 8000810:	6b1b      	ldr	r3, [r3, #48]	; 0x30
 8000812:	4a10      	ldr	r2, [pc, #64]	; (8000854 <MX_GPIO_Init+0xb4>)
 8000814:	f043 0302 	orr.w	r3, r3, #2
 8000818:	6313      	str	r3, [r2, #48]	; 0x30
 800081a:	4b0e      	ldr	r3, [pc, #56]	; (8000854 <MX_GPIO_Init+0xb4>)
 800081c:	6b1b      	ldr	r3, [r3, #48]	; 0x30
 800081e:	f003 0302 	and.w	r3, r3, #2
 8000822:	607b      	str	r3, [r7, #4]
 8000824:	687b      	ldr	r3, [r7, #4]

  /*Configure GPIO pin Output Level */
  HAL_GPIO_WritePin(GPIOA, GPIO_PIN_5, GPIO_PIN_RESET);
 8000826:	2200      	movs	r2, #0
 8000828:	2120      	movs	r1, #32
 800082a:	480b      	ldr	r0, [pc, #44]	; (8000858 <MX_GPIO_Init+0xb8>)
 800082c:	f001 fba0 	bl	8001f70 <HAL_GPIO_WritePin>

  /*Configure GPIO pin : PA5 */
  GPIO_InitStruct.Pin = GPIO_PIN_5;
 8000830:	2320      	movs	r3, #32
 8000832:	617b      	str	r3, [r7, #20]
  GPIO_InitStruct.Mode = GPIO_MODE_OUTPUT_PP;
 8000834:	2301      	movs	r3, #1
 8000836:	61bb      	str	r3, [r7, #24]
  GPIO_InitStruct.Pull = GPIO_NOPULL;
 8000838:	2300      	movs	r3, #0
 800083a:	61fb      	str	r3, [r7, #28]
  GPIO_InitStruct.Speed = GPIO_SPEED_FREQ_LOW;
 800083c:	2300      	movs	r3, #0
 800083e:	623b      	str	r3, [r7, #32]
  HAL_GPIO_Init(GPIOA, &GPIO_InitStruct);
 8000840:	f107 0314 	add.w	r3, r7, #20
 8000844:	4619      	mov	r1, r3
 8000846:	4804      	ldr	r0, [pc, #16]	; (8000858 <MX_GPIO_Init+0xb8>)
 8000848:	f001 fa0e 	bl	8001c68 <HAL_GPIO_Init>

}
 800084c:	bf00      	nop
 800084e:	3728      	adds	r7, #40	; 0x28
 8000850:	46bd      	mov	sp, r7
 8000852:	bd80      	pop	{r7, pc}
 8000854:	40023800 	.word	0x40023800
 8000858:	40020000 	.word	0x40020000

0800085c <main>:
/**
  * @brief  The application entry point.
  * @retval int
  */
int main(void)
{
 800085c:	b580      	push	{r7, lr}
 800085e:	af00      	add	r7, sp, #0
  /* USER CODE END 1 */

  /* MCU Configuration--------------------------------------------------------*/

  /* Reset of all peripherals, Initializes the Flash interface and the Systick. */
  HAL_Init();
 8000860:	f000 f91c 	bl	8000a9c <HAL_Init>
  /* USER CODE BEGIN Init */

  /* USER CODE END Init */

  /* Configure the system clock */
  SystemClock_Config();
 8000864:	f000 f810 	bl	8000888 <SystemClock_Config>
  /* USER CODE BEGIN SysInit */

  /* USER CODE END SysInit */

  /* Initialize all configured peripherals */
  MX_GPIO_Init();
 8000868:	f7ff ff9a 	bl	80007a0 <MX_GPIO_Init>
  MX_DMA_Init();
 800086c:	f7ff ff78 	bl	8000760 <MX_DMA_Init>
  MX_ADC1_Init();
 8000870:	f7ff fe2c 	bl	80004cc <MX_ADC1_Init>
  /* USER CODE BEGIN 2 */
  HAL_ADC_Start_DMA(&hadc1, (uint32_t*)value, 6);
 8000874:	2206      	movs	r2, #6
 8000876:	4902      	ldr	r1, [pc, #8]	; (8000880 <main+0x24>)
 8000878:	4802      	ldr	r0, [pc, #8]	; (8000884 <main+0x28>)
 800087a:	f000 f9c5 	bl	8000c08 <HAL_ADC_Start_DMA>
  /* USER CODE END 2 */

  /* Infinite loop */
  /* USER CODE BEGIN WHILE */
  while (1)
 800087e:	e7fe      	b.n	800087e <main+0x22>
 8000880:	20000028 	.word	0x20000028
 8000884:	20000034 	.word	0x20000034

08000888 <SystemClock_Config>:
/**
  * @brief System Clock Configuration
  * @retval None
  */
void SystemClock_Config(void)
{
 8000888:	b580      	push	{r7, lr}
 800088a:	b094      	sub	sp, #80	; 0x50
 800088c:	af00      	add	r7, sp, #0
  RCC_OscInitTypeDef RCC_OscInitStruct = {0};
 800088e:	f107 0320 	add.w	r3, r7, #32
 8000892:	2230      	movs	r2, #48	; 0x30
 8000894:	2100      	movs	r1, #0
 8000896:	4618      	mov	r0, r3
 8000898:	f001 ffe8 	bl	800286c <memset>
  RCC_ClkInitTypeDef RCC_ClkInitStruct = {0};
 800089c:	f107 030c 	add.w	r3, r7, #12
 80008a0:	2200      	movs	r2, #0
 80008a2:	601a      	str	r2, [r3, #0]
 80008a4:	605a      	str	r2, [r3, #4]
 80008a6:	609a      	str	r2, [r3, #8]
 80008a8:	60da      	str	r2, [r3, #12]
 80008aa:	611a      	str	r2, [r3, #16]

  /** Configure the main internal regulator output voltage
  */
  __HAL_RCC_PWR_CLK_ENABLE();
 80008ac:	2300      	movs	r3, #0
 80008ae:	60bb      	str	r3, [r7, #8]
 80008b0:	4b29      	ldr	r3, [pc, #164]	; (8000958 <SystemClock_Config+0xd0>)
 80008b2:	6c1b      	ldr	r3, [r3, #64]	; 0x40
 80008b4:	4a28      	ldr	r2, [pc, #160]	; (8000958 <SystemClock_Config+0xd0>)
 80008b6:	f043 5380 	orr.w	r3, r3, #268435456	; 0x10000000
 80008ba:	6413      	str	r3, [r2, #64]	; 0x40
 80008bc:	4b26      	ldr	r3, [pc, #152]	; (8000958 <SystemClock_Config+0xd0>)
 80008be:	6c1b      	ldr	r3, [r3, #64]	; 0x40
 80008c0:	f003 5380 	and.w	r3, r3, #268435456	; 0x10000000
 80008c4:	60bb      	str	r3, [r7, #8]
 80008c6:	68bb      	ldr	r3, [r7, #8]
  __HAL_PWR_VOLTAGESCALING_CONFIG(PWR_REGULATOR_VOLTAGE_SCALE2);
 80008c8:	2300      	movs	r3, #0
 80008ca:	607b      	str	r3, [r7, #4]
 80008cc:	4b23      	ldr	r3, [pc, #140]	; (800095c <SystemClock_Config+0xd4>)
 80008ce:	681b      	ldr	r3, [r3, #0]
 80008d0:	f423 4340 	bic.w	r3, r3, #49152	; 0xc000
 80008d4:	4a21      	ldr	r2, [pc, #132]	; (800095c <SystemClock_Config+0xd4>)
 80008d6:	f443 4300 	orr.w	r3, r3, #32768	; 0x8000
 80008da:	6013      	str	r3, [r2, #0]
 80008dc:	4b1f      	ldr	r3, [pc, #124]	; (800095c <SystemClock_Config+0xd4>)
 80008de:	681b      	ldr	r3, [r3, #0]
 80008e0:	f403 4340 	and.w	r3, r3, #49152	; 0xc000
 80008e4:	607b      	str	r3, [r7, #4]
 80008e6:	687b      	ldr	r3, [r7, #4]
  /** Initializes the RCC Oscillators according to the specified parameters
  * in the RCC_OscInitTypeDef structure.
  */
  RCC_OscInitStruct.OscillatorType = RCC_OSCILLATORTYPE_HSE;
 80008e8:	2301      	movs	r3, #1
 80008ea:	623b      	str	r3, [r7, #32]
  RCC_OscInitStruct.HSEState = RCC_HSE_ON;
 80008ec:	f44f 3380 	mov.w	r3, #65536	; 0x10000
 80008f0:	627b      	str	r3, [r7, #36]	; 0x24
  RCC_OscInitStruct.PLL.PLLState = RCC_PLL_ON;
 80008f2:	2302      	movs	r3, #2
 80008f4:	63bb      	str	r3, [r7, #56]	; 0x38
  RCC_OscInitStruct.PLL.PLLSource = RCC_PLLSOURCE_HSE;
 80008f6:	f44f 0380 	mov.w	r3, #4194304	; 0x400000
 80008fa:	63fb      	str	r3, [r7, #60]	; 0x3c
  RCC_OscInitStruct.PLL.PLLM = 4;
 80008fc:	2304      	movs	r3, #4
 80008fe:	643b      	str	r3, [r7, #64]	; 0x40
  RCC_OscInitStruct.PLL.PLLN = 84;
 8000900:	2354      	movs	r3, #84	; 0x54
 8000902:	647b      	str	r3, [r7, #68]	; 0x44
  RCC_OscInitStruct.PLL.PLLP = RCC_PLLP_DIV2;
 8000904:	2302      	movs	r3, #2
 8000906:	64bb      	str	r3, [r7, #72]	; 0x48
  RCC_OscInitStruct.PLL.PLLQ = 7;
 8000908:	2307      	movs	r3, #7
 800090a:	64fb      	str	r3, [r7, #76]	; 0x4c
  if (HAL_RCC_OscConfig(&RCC_OscInitStruct) != HAL_OK)
 800090c:	f107 0320 	add.w	r3, r7, #32
 8000910:	4618      	mov	r0, r3
 8000912:	f001 fb47 	bl	8001fa4 <HAL_RCC_OscConfig>
 8000916:	4603      	mov	r3, r0
 8000918:	2b00      	cmp	r3, #0
 800091a:	d001      	beq.n	8000920 <SystemClock_Config+0x98>
  {
    Error_Handler();
 800091c:	f000 f820 	bl	8000960 <Error_Handler>
  }
  /** Initializes the CPU, AHB and APB buses clocks
  */
  RCC_ClkInitStruct.ClockType = RCC_CLOCKTYPE_HCLK|RCC_CLOCKTYPE_SYSCLK
 8000920:	230f      	movs	r3, #15
 8000922:	60fb      	str	r3, [r7, #12]
                              |RCC_CLOCKTYPE_PCLK1|RCC_CLOCKTYPE_PCLK2;
  RCC_ClkInitStruct.SYSCLKSource = RCC_SYSCLKSOURCE_PLLCLK;
 8000924:	2302      	movs	r3, #2
 8000926:	613b      	str	r3, [r7, #16]
  RCC_ClkInitStruct.AHBCLKDivider = RCC_SYSCLK_DIV1;
 8000928:	2300      	movs	r3, #0
 800092a:	617b      	str	r3, [r7, #20]
  RCC_ClkInitStruct.APB1CLKDivider = RCC_HCLK_DIV2;
 800092c:	f44f 5380 	mov.w	r3, #4096	; 0x1000
 8000930:	61bb      	str	r3, [r7, #24]
  RCC_ClkInitStruct.APB2CLKDivider = RCC_HCLK_DIV2;
 8000932:	f44f 5380 	mov.w	r3, #4096	; 0x1000
 8000936:	61fb      	str	r3, [r7, #28]

  if (HAL_RCC_ClockConfig(&RCC_ClkInitStruct, FLASH_LATENCY_2) != HAL_OK)
 8000938:	f107 030c 	add.w	r3, r7, #12
 800093c:	2102      	movs	r1, #2
 800093e:	4618      	mov	r0, r3
 8000940:	f001 fda8 	bl	8002494 <HAL_RCC_ClockConfig>
 8000944:	4603      	mov	r3, r0
 8000946:	2b00      	cmp	r3, #0
 8000948:	d001      	beq.n	800094e <SystemClock_Config+0xc6>
  {
    Error_Handler();
 800094a:	f000 f809 	bl	8000960 <Error_Handler>
  }
}
 800094e:	bf00      	nop
 8000950:	3750      	adds	r7, #80	; 0x50
 8000952:	46bd      	mov	sp, r7
 8000954:	bd80      	pop	{r7, pc}
 8000956:	bf00      	nop
 8000958:	40023800 	.word	0x40023800
 800095c:	40007000 	.word	0x40007000

08000960 <Error_Handler>:
/**
  * @brief  This function is executed in case of error occurrence.
  * @retval None
  */
void Error_Handler(void)
{
 8000960:	b480      	push	{r7}
 8000962:	af00      	add	r7, sp, #0
  \details Disables IRQ interrupts by setting the I-bit in the CPSR.
           Can only be executed in Privileged modes.
 */
__STATIC_FORCEINLINE void __disable_irq(void)
{
  __ASM volatile ("cpsid i" : : : "memory");
 8000964:	b672      	cpsid	i
}
 8000966:	bf00      	nop
  /* USER CODE BEGIN Error_Handler_Debug */
  /* User can add his own implementation to report the HAL error return state */
  __disable_irq();
  while (1)
 8000968:	e7fe      	b.n	8000968 <Error_Handler+0x8>
	...

0800096c <HAL_MspInit>:
/* USER CODE END 0 */
/**
  * Initializes the Global MSP.
  */
void HAL_MspInit(void)
{
 800096c:	b580      	push	{r7, lr}
 800096e:	b082      	sub	sp, #8
 8000970:	af00      	add	r7, sp, #0
  /* USER CODE BEGIN MspInit 0 */

  /* USER CODE END MspInit 0 */

  __HAL_RCC_SYSCFG_CLK_ENABLE();
 8000972:	2300      	movs	r3, #0
 8000974:	607b      	str	r3, [r7, #4]
 8000976:	4b10      	ldr	r3, [pc, #64]	; (80009b8 <HAL_MspInit+0x4c>)
 8000978:	6c5b      	ldr	r3, [r3, #68]	; 0x44
 800097a:	4a0f      	ldr	r2, [pc, #60]	; (80009b8 <HAL_MspInit+0x4c>)
 800097c:	f443 4380 	orr.w	r3, r3, #16384	; 0x4000
 8000980:	6453      	str	r3, [r2, #68]	; 0x44
 8000982:	4b0d      	ldr	r3, [pc, #52]	; (80009b8 <HAL_MspInit+0x4c>)
 8000984:	6c5b      	ldr	r3, [r3, #68]	; 0x44
 8000986:	f403 4380 	and.w	r3, r3, #16384	; 0x4000
 800098a:	607b      	str	r3, [r7, #4]
 800098c:	687b      	ldr	r3, [r7, #4]
  __HAL_RCC_PWR_CLK_ENABLE();
 800098e:	2300      	movs	r3, #0
 8000990:	603b      	str	r3, [r7, #0]
 8000992:	4b09      	ldr	r3, [pc, #36]	; (80009b8 <HAL_MspInit+0x4c>)
 8000994:	6c1b      	ldr	r3, [r3, #64]	; 0x40
 8000996:	4a08      	ldr	r2, [pc, #32]	; (80009b8 <HAL_MspInit+0x4c>)
 8000998:	f043 5380 	orr.w	r3, r3, #268435456	; 0x10000000
 800099c:	6413      	str	r3, [r2, #64]	; 0x40
 800099e:	4b06      	ldr	r3, [pc, #24]	; (80009b8 <HAL_MspInit+0x4c>)
 80009a0:	6c1b      	ldr	r3, [r3, #64]	; 0x40
 80009a2:	f003 5380 	and.w	r3, r3, #268435456	; 0x10000000
 80009a6:	603b      	str	r3, [r7, #0]
 80009a8:	683b      	ldr	r3, [r7, #0]

  HAL_NVIC_SetPriorityGrouping(NVIC_PRIORITYGROUP_0);
 80009aa:	2007      	movs	r0, #7
 80009ac:	f000 fdaa 	bl	8001504 <HAL_NVIC_SetPriorityGrouping>
  /* System interrupt init*/

  /* USER CODE BEGIN MspInit 1 */

  /* USER CODE END MspInit 1 */
}
 80009b0:	bf00      	nop
 80009b2:	3708      	adds	r7, #8
 80009b4:	46bd      	mov	sp, r7
 80009b6:	bd80      	pop	{r7, pc}
 80009b8:	40023800 	.word	0x40023800

080009bc <NMI_Handler>:
/******************************************************************************/
/**
  * @brief This function handles Non maskable interrupt.
  */
void NMI_Handler(void)
{
 80009bc:	b480      	push	{r7}
 80009be:	af00      	add	r7, sp, #0
  /* USER CODE BEGIN NonMaskableInt_IRQn 0 */

  /* USER CODE END NonMaskableInt_IRQn 0 */
  /* USER CODE BEGIN NonMaskableInt_IRQn 1 */
  while (1)
 80009c0:	e7fe      	b.n	80009c0 <NMI_Handler+0x4>

080009c2 <HardFault_Handler>:

/**
  * @brief This function handles Hard fault interrupt.
  */
void HardFault_Handler(void)
{
 80009c2:	b480      	push	{r7}
 80009c4:	af00      	add	r7, sp, #0
  /* USER CODE BEGIN HardFault_IRQn 0 */

  /* USER CODE END HardFault_IRQn 0 */
  while (1)
 80009c6:	e7fe      	b.n	80009c6 <HardFault_Handler+0x4>

080009c8 <MemManage_Handler>:

/**
  * @brief This function handles Memory management fault.
  */
void MemManage_Handler(void)
{
 80009c8:	b480      	push	{r7}
 80009ca:	af00      	add	r7, sp, #0
  /* USER CODE BEGIN MemoryManagement_IRQn 0 */

  /* USER CODE END MemoryManagement_IRQn 0 */
  while (1)
 80009cc:	e7fe      	b.n	80009cc <MemManage_Handler+0x4>

080009ce <BusFault_Handler>:

/**
  * @brief This function handles Pre-fetch fault, memory access fault.
  */
void BusFault_Handler(void)
{
 80009ce:	b480      	push	{r7}
 80009d0:	af00      	add	r7, sp, #0
  /* USER CODE BEGIN BusFault_IRQn 0 */

  /* USER CODE END BusFault_IRQn 0 */
  while (1)
 80009d2:	e7fe      	b.n	80009d2 <BusFault_Handler+0x4>

080009d4 <UsageFault_Handler>:

/**
  * @brief This function handles Undefined instruction or illegal state.
  */
void UsageFault_Handler(void)
{
 80009d4:	b480      	push	{r7}
 80009d6:	af00      	add	r7, sp, #0
  /* USER CODE BEGIN UsageFault_IRQn 0 */

  /* USER CODE END UsageFault_IRQn 0 */
  while (1)
 80009d8:	e7fe      	b.n	80009d8 <UsageFault_Handler+0x4>

080009da <SVC_Handler>:

/**
  * @brief This function handles System service call via SWI instruction.
  */
void SVC_Handler(void)
{
 80009da:	b480      	push	{r7}
 80009dc:	af00      	add	r7, sp, #0

  /* USER CODE END SVCall_IRQn 0 */
  /* USER CODE BEGIN SVCall_IRQn 1 */

  /* USER CODE END SVCall_IRQn 1 */
}
 80009de:	bf00      	nop
 80009e0:	46bd      	mov	sp, r7
 80009e2:	f85d 7b04 	ldr.w	r7, [sp], #4
 80009e6:	4770      	bx	lr

080009e8 <DebugMon_Handler>:

/**
  * @brief This function handles Debug monitor.
  */
void DebugMon_Handler(void)
{
 80009e8:	b480      	push	{r7}
 80009ea:	af00      	add	r7, sp, #0

  /* USER CODE END DebugMonitor_IRQn 0 */
  /* USER CODE BEGIN DebugMonitor_IRQn 1 */

  /* USER CODE END DebugMonitor_IRQn 1 */
}
 80009ec:	bf00      	nop
 80009ee:	46bd      	mov	sp, r7
 80009f0:	f85d 7b04 	ldr.w	r7, [sp], #4
 80009f4:	4770      	bx	lr

080009f6 <PendSV_Handler>:

/**
  * @brief This function handles Pendable request for system service.
  */
void PendSV_Handler(void)
{
 80009f6:	b480      	push	{r7}
 80009f8:	af00      	add	r7, sp, #0

  /* USER CODE END PendSV_IRQn 0 */
  /* USER CODE BEGIN PendSV_IRQn 1 */

  /* USER CODE END PendSV_IRQn 1 */
}
 80009fa:	bf00      	nop
 80009fc:	46bd      	mov	sp, r7
 80009fe:	f85d 7b04 	ldr.w	r7, [sp], #4
 8000a02:	4770      	bx	lr

08000a04 <SysTick_Handler>:

/**
  * @brief This function handles System tick timer.
  */
void SysTick_Handler(void)
{
 8000a04:	b580      	push	{r7, lr}
 8000a06:	af00      	add	r7, sp, #0
  /* USER CODE BEGIN SysTick_IRQn 0 */

  /* USER CODE END SysTick_IRQn 0 */
  HAL_IncTick();
 8000a08:	f000 f89a 	bl	8000b40 <HAL_IncTick>
  /* USER CODE BEGIN SysTick_IRQn 1 */

  /* USER CODE END SysTick_IRQn 1 */
}
 8000a0c:	bf00      	nop
 8000a0e:	bd80      	pop	{r7, pc}

08000a10 <DMA2_Stream0_IRQHandler>:

/**
  * @brief This function handles DMA2 stream0 global interrupt.
  */
void DMA2_Stream0_IRQHandler(void)
{
 8000a10:	b580      	push	{r7, lr}
 8000a12:	af00      	add	r7, sp, #0
  /* USER CODE BEGIN DMA2_Stream0_IRQn 0 */

  /* USER CODE END DMA2_Stream0_IRQn 0 */
  HAL_DMA_IRQHandler(&hdma_adc1);
 8000a14:	4802      	ldr	r0, [pc, #8]	; (8000a20 <DMA2_Stream0_IRQHandler+0x10>)
 8000a16:	f000 febd 	bl	8001794 <HAL_DMA_IRQHandler>
  /* USER CODE BEGIN DMA2_Stream0_IRQn 1 */

  /* USER CODE END DMA2_Stream0_IRQn 1 */
}
 8000a1a:	bf00      	nop
 8000a1c:	bd80      	pop	{r7, pc}
 8000a1e:	bf00      	nop
 8000a20:	2000007c 	.word	0x2000007c

08000a24 <SystemInit>:
  *         configuration.
  * @param  None
  * @retval None
  */
void SystemInit(void)
{
 8000a24:	b480      	push	{r7}
 8000a26:	af00      	add	r7, sp, #0
  /* FPU settings ------------------------------------------------------------*/
  #if (__FPU_PRESENT == 1) && (__FPU_USED == 1)
    SCB->CPACR |= ((3UL << 10*2)|(3UL << 11*2));  /* set CP10 and CP11 Full Access */
 8000a28:	4b06      	ldr	r3, [pc, #24]	; (8000a44 <SystemInit+0x20>)
 8000a2a:	f8d3 3088 	ldr.w	r3, [r3, #136]	; 0x88
 8000a2e:	4a05      	ldr	r2, [pc, #20]	; (8000a44 <SystemInit+0x20>)
 8000a30:	f443 0370 	orr.w	r3, r3, #15728640	; 0xf00000
 8000a34:	f8c2 3088 	str.w	r3, [r2, #136]	; 0x88

  /* Configure the Vector Table location -------------------------------------*/
#if defined(USER_VECT_TAB_ADDRESS)
  SCB->VTOR = VECT_TAB_BASE_ADDRESS | VECT_TAB_OFFSET; /* Vector Table Relocation in Internal SRAM */
#endif /* USER_VECT_TAB_ADDRESS */
}
 8000a38:	bf00      	nop
 8000a3a:	46bd      	mov	sp, r7
 8000a3c:	f85d 7b04 	ldr.w	r7, [sp], #4
 8000a40:	4770      	bx	lr
 8000a42:	bf00      	nop
 8000a44:	e000ed00 	.word	0xe000ed00

08000a48 <Reset_Handler>:

    .section  .text.Reset_Handler
  .weak  Reset_Handler
  .type  Reset_Handler, %function
Reset_Handler:  
  ldr   sp, =_estack    		 /* set stack pointer */
 8000a48:	f8df d034 	ldr.w	sp, [pc, #52]	; 8000a80 <LoopFillZerobss+0x12>

/* Copy the data segment initializers from flash to SRAM */  
  ldr r0, =_sdata
 8000a4c:	480d      	ldr	r0, [pc, #52]	; (8000a84 <LoopFillZerobss+0x16>)
  ldr r1, =_edata
 8000a4e:	490e      	ldr	r1, [pc, #56]	; (8000a88 <LoopFillZerobss+0x1a>)
  ldr r2, =_sidata
 8000a50:	4a0e      	ldr	r2, [pc, #56]	; (8000a8c <LoopFillZerobss+0x1e>)
  movs r3, #0
 8000a52:	2300      	movs	r3, #0
  b LoopCopyDataInit
 8000a54:	e002      	b.n	8000a5c <LoopCopyDataInit>

08000a56 <CopyDataInit>:

CopyDataInit:
  ldr r4, [r2, r3]
 8000a56:	58d4      	ldr	r4, [r2, r3]
  str r4, [r0, r3]
 8000a58:	50c4      	str	r4, [r0, r3]
  adds r3, r3, #4
 8000a5a:	3304      	adds	r3, #4

08000a5c <LoopCopyDataInit>:

LoopCopyDataInit:
  adds r4, r0, r3
 8000a5c:	18c4      	adds	r4, r0, r3
  cmp r4, r1
 8000a5e:	428c      	cmp	r4, r1
  bcc CopyDataInit
 8000a60:	d3f9      	bcc.n	8000a56 <CopyDataInit>
  
/* Zero fill the bss segment. */
  ldr r2, =_sbss
 8000a62:	4a0b      	ldr	r2, [pc, #44]	; (8000a90 <LoopFillZerobss+0x22>)
  ldr r4, =_ebss
 8000a64:	4c0b      	ldr	r4, [pc, #44]	; (8000a94 <LoopFillZerobss+0x26>)
  movs r3, #0
 8000a66:	2300      	movs	r3, #0
  b LoopFillZerobss
 8000a68:	e001      	b.n	8000a6e <LoopFillZerobss>

08000a6a <FillZerobss>:

FillZerobss:
  str  r3, [r2]
 8000a6a:	6013      	str	r3, [r2, #0]
  adds r2, r2, #4
 8000a6c:	3204      	adds	r2, #4

08000a6e <LoopFillZerobss>:

LoopFillZerobss:
  cmp r2, r4
 8000a6e:	42a2      	cmp	r2, r4
  bcc FillZerobss
 8000a70:	d3fb      	bcc.n	8000a6a <FillZerobss>

/* Call the clock system intitialization function.*/
  bl  SystemInit   
 8000a72:	f7ff ffd7 	bl	8000a24 <SystemInit>
/* Call static constructors */
    bl __libc_init_array
 8000a76:	f001 fed5 	bl	8002824 <__libc_init_array>
/* Call the application's entry point.*/
  bl  main
 8000a7a:	f7ff feef 	bl	800085c <main>
  bx  lr    
 8000a7e:	4770      	bx	lr
  ldr   sp, =_estack    		 /* set stack pointer */
 8000a80:	20018000 	.word	0x20018000
  ldr r0, =_sdata
 8000a84:	20000000 	.word	0x20000000
  ldr r1, =_edata
 8000a88:	2000000c 	.word	0x2000000c
  ldr r2, =_sidata
 8000a8c:	080028bc 	.word	0x080028bc
  ldr r2, =_sbss
 8000a90:	2000000c 	.word	0x2000000c
  ldr r4, =_ebss
 8000a94:	200000e0 	.word	0x200000e0

08000a98 <ADC_IRQHandler>:
 * @retval None       
*/
    .section  .text.Default_Handler,"ax",%progbits
Default_Handler:
Infinite_Loop:
  b  Infinite_Loop
 8000a98:	e7fe      	b.n	8000a98 <ADC_IRQHandler>
	...

08000a9c <HAL_Init>:
  *         need to ensure that the SysTick time base is always set to 1 millisecond
  *         to have correct HAL operation.
  * @retval HAL status
  */
HAL_StatusTypeDef HAL_Init(void)
{
 8000a9c:	b580      	push	{r7, lr}
 8000a9e:	af00      	add	r7, sp, #0
  /* Configure Flash prefetch, Instruction cache, Data cache */ 
#if (INSTRUCTION_CACHE_ENABLE != 0U)
  __HAL_FLASH_INSTRUCTION_CACHE_ENABLE();
 8000aa0:	4b0e      	ldr	r3, [pc, #56]	; (8000adc <HAL_Init+0x40>)
 8000aa2:	681b      	ldr	r3, [r3, #0]
 8000aa4:	4a0d      	ldr	r2, [pc, #52]	; (8000adc <HAL_Init+0x40>)
 8000aa6:	f443 7300 	orr.w	r3, r3, #512	; 0x200
 8000aaa:	6013      	str	r3, [r2, #0]
#endif /* INSTRUCTION_CACHE_ENABLE */

#if (DATA_CACHE_ENABLE != 0U)
  __HAL_FLASH_DATA_CACHE_ENABLE();
 8000aac:	4b0b      	ldr	r3, [pc, #44]	; (8000adc <HAL_Init+0x40>)
 8000aae:	681b      	ldr	r3, [r3, #0]
 8000ab0:	4a0a      	ldr	r2, [pc, #40]	; (8000adc <HAL_Init+0x40>)
 8000ab2:	f443 6380 	orr.w	r3, r3, #1024	; 0x400
 8000ab6:	6013      	str	r3, [r2, #0]
#endif /* DATA_CACHE_ENABLE */

#if (PREFETCH_ENABLE != 0U)
  __HAL_FLASH_PREFETCH_BUFFER_ENABLE();
 8000ab8:	4b08      	ldr	r3, [pc, #32]	; (8000adc <HAL_Init+0x40>)
 8000aba:	681b      	ldr	r3, [r3, #0]
 8000abc:	4a07      	ldr	r2, [pc, #28]	; (8000adc <HAL_Init+0x40>)
 8000abe:	f443 7380 	orr.w	r3, r3, #256	; 0x100
 8000ac2:	6013      	str	r3, [r2, #0]
#endif /* PREFETCH_ENABLE */

  /* Set Interrupt Group Priority */
  HAL_NVIC_SetPriorityGrouping(NVIC_PRIORITYGROUP_4);
 8000ac4:	2003      	movs	r0, #3
 8000ac6:	f000 fd1d 	bl	8001504 <HAL_NVIC_SetPriorityGrouping>

  /* Use systick as time base source and configure 1ms tick (default clock after Reset is HSI) */
  HAL_InitTick(TICK_INT_PRIORITY);
 8000aca:	2000      	movs	r0, #0
 8000acc:	f000 f808 	bl	8000ae0 <HAL_InitTick>

  /* Init the low level hardware */
  HAL_MspInit();
 8000ad0:	f7ff ff4c 	bl	800096c <HAL_MspInit>

  /* Return function status */
  return HAL_OK;
 8000ad4:	2300      	movs	r3, #0
}
 8000ad6:	4618      	mov	r0, r3
 8000ad8:	bd80      	pop	{r7, pc}
 8000ada:	bf00      	nop
 8000adc:	40023c00 	.word	0x40023c00

08000ae0 <HAL_InitTick>:
  *       implementation  in user file.
  * @param TickPriority Tick interrupt priority.
  * @retval HAL status
  */
__weak HAL_StatusTypeDef HAL_InitTick(uint32_t TickPriority)
{
 8000ae0:	b580      	push	{r7, lr}
 8000ae2:	b082      	sub	sp, #8
 8000ae4:	af00      	add	r7, sp, #0
 8000ae6:	6078      	str	r0, [r7, #4]
  /* Configure the SysTick to have interrupt in 1ms time basis*/
  if (HAL_SYSTICK_Config(SystemCoreClock / (1000U / uwTickFreq)) > 0U)
 8000ae8:	4b12      	ldr	r3, [pc, #72]	; (8000b34 <HAL_InitTick+0x54>)
 8000aea:	681a      	ldr	r2, [r3, #0]
 8000aec:	4b12      	ldr	r3, [pc, #72]	; (8000b38 <HAL_InitTick+0x58>)
 8000aee:	781b      	ldrb	r3, [r3, #0]
 8000af0:	4619      	mov	r1, r3
 8000af2:	f44f 737a 	mov.w	r3, #1000	; 0x3e8
 8000af6:	fbb3 f3f1 	udiv	r3, r3, r1
 8000afa:	fbb2 f3f3 	udiv	r3, r2, r3
 8000afe:	4618      	mov	r0, r3
 8000b00:	f000 fd35 	bl	800156e <HAL_SYSTICK_Config>
 8000b04:	4603      	mov	r3, r0
 8000b06:	2b00      	cmp	r3, #0
 8000b08:	d001      	beq.n	8000b0e <HAL_InitTick+0x2e>
  {
    return HAL_ERROR;
 8000b0a:	2301      	movs	r3, #1
 8000b0c:	e00e      	b.n	8000b2c <HAL_InitTick+0x4c>
  }

  /* Configure the SysTick IRQ priority */
  if (TickPriority < (1UL << __NVIC_PRIO_BITS))
 8000b0e:	687b      	ldr	r3, [r7, #4]
 8000b10:	2b0f      	cmp	r3, #15
 8000b12:	d80a      	bhi.n	8000b2a <HAL_InitTick+0x4a>
  {
    HAL_NVIC_SetPriority(SysTick_IRQn, TickPriority, 0U);
 8000b14:	2200      	movs	r2, #0
 8000b16:	6879      	ldr	r1, [r7, #4]
 8000b18:	f04f 30ff 	mov.w	r0, #4294967295
 8000b1c:	f000 fcfd 	bl	800151a <HAL_NVIC_SetPriority>
    uwTickPrio = TickPriority;
 8000b20:	4a06      	ldr	r2, [pc, #24]	; (8000b3c <HAL_InitTick+0x5c>)
 8000b22:	687b      	ldr	r3, [r7, #4]
 8000b24:	6013      	str	r3, [r2, #0]
  {
    return HAL_ERROR;
  }

  /* Return function status */
  return HAL_OK;
 8000b26:	2300      	movs	r3, #0
 8000b28:	e000      	b.n	8000b2c <HAL_InitTick+0x4c>
    return HAL_ERROR;
 8000b2a:	2301      	movs	r3, #1
}
 8000b2c:	4618      	mov	r0, r3
 8000b2e:	3708      	adds	r7, #8
 8000b30:	46bd      	mov	sp, r7
 8000b32:	bd80      	pop	{r7, pc}
 8000b34:	20000000 	.word	0x20000000
 8000b38:	20000008 	.word	0x20000008
 8000b3c:	20000004 	.word	0x20000004

08000b40 <HAL_IncTick>:
 * @note This function is declared as __weak to be overwritten in case of other 
  *      implementations in user file.
  * @retval None
  */
__weak void HAL_IncTick(void)
{
 8000b40:	b480      	push	{r7}
 8000b42:	af00      	add	r7, sp, #0
  uwTick += uwTickFreq;
 8000b44:	4b06      	ldr	r3, [pc, #24]	; (8000b60 <HAL_IncTick+0x20>)
 8000b46:	781b      	ldrb	r3, [r3, #0]
 8000b48:	461a      	mov	r2, r3
 8000b4a:	4b06      	ldr	r3, [pc, #24]	; (8000b64 <HAL_IncTick+0x24>)
 8000b4c:	681b      	ldr	r3, [r3, #0]
 8000b4e:	4413      	add	r3, r2
 8000b50:	4a04      	ldr	r2, [pc, #16]	; (8000b64 <HAL_IncTick+0x24>)
 8000b52:	6013      	str	r3, [r2, #0]
}
 8000b54:	bf00      	nop
 8000b56:	46bd      	mov	sp, r7
 8000b58:	f85d 7b04 	ldr.w	r7, [sp], #4
 8000b5c:	4770      	bx	lr
 8000b5e:	bf00      	nop
 8000b60:	20000008 	.word	0x20000008
 8000b64:	200000dc 	.word	0x200000dc

08000b68 <HAL_GetTick>:
  * @note This function is declared as __weak to be overwritten in case of other 
  *       implementations in user file.
  * @retval tick value
  */
__weak uint32_t HAL_GetTick(void)
{
 8000b68:	b480      	push	{r7}
 8000b6a:	af00      	add	r7, sp, #0
  return uwTick;
 8000b6c:	4b03      	ldr	r3, [pc, #12]	; (8000b7c <HAL_GetTick+0x14>)
 8000b6e:	681b      	ldr	r3, [r3, #0]
}
 8000b70:	4618      	mov	r0, r3
 8000b72:	46bd      	mov	sp, r7
 8000b74:	f85d 7b04 	ldr.w	r7, [sp], #4
 8000b78:	4770      	bx	lr
 8000b7a:	bf00      	nop
 8000b7c:	200000dc 	.word	0x200000dc

08000b80 <HAL_ADC_Init>:
  * @param  hadc pointer to a ADC_HandleTypeDef structure that contains
  *         the configuration information for the specified ADC.  
  * @retval HAL status
  */
HAL_StatusTypeDef HAL_ADC_Init(ADC_HandleTypeDef* hadc)
{
 8000b80:	b580      	push	{r7, lr}
 8000b82:	b084      	sub	sp, #16
 8000b84:	af00      	add	r7, sp, #0
 8000b86:	6078      	str	r0, [r7, #4]
  HAL_StatusTypeDef tmp_hal_status = HAL_OK;
 8000b88:	2300      	movs	r3, #0
 8000b8a:	73fb      	strb	r3, [r7, #15]
  
  /* Check ADC handle */
  if(hadc == NULL)
 8000b8c:	687b      	ldr	r3, [r7, #4]
 8000b8e:	2b00      	cmp	r3, #0
 8000b90:	d101      	bne.n	8000b96 <HAL_ADC_Init+0x16>
  {
    return HAL_ERROR;
 8000b92:	2301      	movs	r3, #1
 8000b94:	e033      	b.n	8000bfe <HAL_ADC_Init+0x7e>
  if(hadc->Init.ExternalTrigConv != ADC_SOFTWARE_START)
  {
    assert_param(IS_ADC_EXT_TRIG_EDGE(hadc->Init.ExternalTrigConvEdge));
  }
  
  if(hadc->State == HAL_ADC_STATE_RESET)
 8000b96:	687b      	ldr	r3, [r7, #4]
 8000b98:	6c1b      	ldr	r3, [r3, #64]	; 0x40
 8000b9a:	2b00      	cmp	r3, #0
 8000b9c:	d109      	bne.n	8000bb2 <HAL_ADC_Init+0x32>

    /* Init the low level hardware */
    hadc->MspInitCallback(hadc);
#else
    /* Init the low level hardware */
    HAL_ADC_MspInit(hadc);
 8000b9e:	6878      	ldr	r0, [r7, #4]
 8000ba0:	f7ff fd2e 	bl	8000600 <HAL_ADC_MspInit>
#endif /* USE_HAL_ADC_REGISTER_CALLBACKS */

    /* Initialize ADC error code */
    ADC_CLEAR_ERRORCODE(hadc);
 8000ba4:	687b      	ldr	r3, [r7, #4]
 8000ba6:	2200      	movs	r2, #0
 8000ba8:	645a      	str	r2, [r3, #68]	; 0x44
    
    /* Allocate lock resource and initialize it */
    hadc->Lock = HAL_UNLOCKED;
 8000baa:	687b      	ldr	r3, [r7, #4]
 8000bac:	2200      	movs	r2, #0
 8000bae:	f883 203c 	strb.w	r2, [r3, #60]	; 0x3c
  }
  
  /* Configuration of ADC parameters if previous preliminary actions are      */ 
  /* correctly completed.                                                     */
  if (HAL_IS_BIT_CLR(hadc->State, HAL_ADC_STATE_ERROR_INTERNAL))
 8000bb2:	687b      	ldr	r3, [r7, #4]
 8000bb4:	6c1b      	ldr	r3, [r3, #64]	; 0x40
 8000bb6:	f003 0310 	and.w	r3, r3, #16
 8000bba:	2b00      	cmp	r3, #0
 8000bbc:	d118      	bne.n	8000bf0 <HAL_ADC_Init+0x70>
  {
    /* Set ADC state */
    ADC_STATE_CLR_SET(hadc->State,
 8000bbe:	687b      	ldr	r3, [r7, #4]
 8000bc0:	6c1b      	ldr	r3, [r3, #64]	; 0x40
 8000bc2:	f423 5388 	bic.w	r3, r3, #4352	; 0x1100
 8000bc6:	f023 0302 	bic.w	r3, r3, #2
 8000bca:	f043 0202 	orr.w	r2, r3, #2
 8000bce:	687b      	ldr	r3, [r7, #4]
 8000bd0:	641a      	str	r2, [r3, #64]	; 0x40
                      HAL_ADC_STATE_REG_BUSY | HAL_ADC_STATE_INJ_BUSY,
                      HAL_ADC_STATE_BUSY_INTERNAL);
    
    /* Set ADC parameters */
    ADC_Init(hadc);
 8000bd2:	6878      	ldr	r0, [r7, #4]
 8000bd4:	f000 fa48 	bl	8001068 <ADC_Init>
    
    /* Set ADC error code to none */
    ADC_CLEAR_ERRORCODE(hadc);
 8000bd8:	687b      	ldr	r3, [r7, #4]
 8000bda:	2200      	movs	r2, #0
 8000bdc:	645a      	str	r2, [r3, #68]	; 0x44
    
    /* Set the ADC state */
    ADC_STATE_CLR_SET(hadc->State,
 8000bde:	687b      	ldr	r3, [r7, #4]
 8000be0:	6c1b      	ldr	r3, [r3, #64]	; 0x40
 8000be2:	f023 0303 	bic.w	r3, r3, #3
 8000be6:	f043 0201 	orr.w	r2, r3, #1
 8000bea:	687b      	ldr	r3, [r7, #4]
 8000bec:	641a      	str	r2, [r3, #64]	; 0x40
 8000bee:	e001      	b.n	8000bf4 <HAL_ADC_Init+0x74>
                      HAL_ADC_STATE_BUSY_INTERNAL,
                      HAL_ADC_STATE_READY);
  }
  else
  {
    tmp_hal_status = HAL_ERROR;
 8000bf0:	2301      	movs	r3, #1
 8000bf2:	73fb      	strb	r3, [r7, #15]
  }
  
  /* Release Lock */
  __HAL_UNLOCK(hadc);
 8000bf4:	687b      	ldr	r3, [r7, #4]
 8000bf6:	2200      	movs	r2, #0
 8000bf8:	f883 203c 	strb.w	r2, [r3, #60]	; 0x3c

  /* Return function status */
  return tmp_hal_status;
 8000bfc:	7bfb      	ldrb	r3, [r7, #15]
}
 8000bfe:	4618      	mov	r0, r3
 8000c00:	3710      	adds	r7, #16
 8000c02:	46bd      	mov	sp, r7
 8000c04:	bd80      	pop	{r7, pc}
	...

08000c08 <HAL_ADC_Start_DMA>:
  * @param  pData The destination Buffer address.
  * @param  Length The length of data to be transferred from ADC peripheral to memory.
  * @retval HAL status
  */
HAL_StatusTypeDef HAL_ADC_Start_DMA(ADC_HandleTypeDef* hadc, uint32_t* pData, uint32_t Length)
{
 8000c08:	b580      	push	{r7, lr}
 8000c0a:	b086      	sub	sp, #24
 8000c0c:	af00      	add	r7, sp, #0
 8000c0e:	60f8      	str	r0, [r7, #12]
 8000c10:	60b9      	str	r1, [r7, #8]
 8000c12:	607a      	str	r2, [r7, #4]
  __IO uint32_t counter = 0U;
 8000c14:	2300      	movs	r3, #0
 8000c16:	613b      	str	r3, [r7, #16]
  /* Check the parameters */
  assert_param(IS_FUNCTIONAL_STATE(hadc->Init.ContinuousConvMode));
  assert_param(IS_ADC_EXT_TRIG_EDGE(hadc->Init.ExternalTrigConvEdge)); 
  
  /* Process locked */
  __HAL_LOCK(hadc);
 8000c18:	68fb      	ldr	r3, [r7, #12]
 8000c1a:	f893 303c 	ldrb.w	r3, [r3, #60]	; 0x3c
 8000c1e:	2b01      	cmp	r3, #1
 8000c20:	d101      	bne.n	8000c26 <HAL_ADC_Start_DMA+0x1e>
 8000c22:	2302      	movs	r3, #2
 8000c24:	e0ce      	b.n	8000dc4 <HAL_ADC_Start_DMA+0x1bc>
 8000c26:	68fb      	ldr	r3, [r7, #12]
 8000c28:	2201      	movs	r2, #1
 8000c2a:	f883 203c 	strb.w	r2, [r3, #60]	; 0x3c
  
  /* Enable the ADC peripheral */
  /* Check if ADC peripheral is disabled in order to enable it and wait during 
  Tstab time the ADC's stabilization */
  if((hadc->Instance->CR2 & ADC_CR2_ADON) != ADC_CR2_ADON)
 8000c2e:	68fb      	ldr	r3, [r7, #12]
 8000c30:	681b      	ldr	r3, [r3, #0]
 8000c32:	689b      	ldr	r3, [r3, #8]
 8000c34:	f003 0301 	and.w	r3, r3, #1
 8000c38:	2b01      	cmp	r3, #1
 8000c3a:	d018      	beq.n	8000c6e <HAL_ADC_Start_DMA+0x66>
  {  
    /* Enable the Peripheral */
    __HAL_ADC_ENABLE(hadc);
 8000c3c:	68fb      	ldr	r3, [r7, #12]
 8000c3e:	681b      	ldr	r3, [r3, #0]
 8000c40:	689a      	ldr	r2, [r3, #8]
 8000c42:	68fb      	ldr	r3, [r7, #12]
 8000c44:	681b      	ldr	r3, [r3, #0]
 8000c46:	f042 0201 	orr.w	r2, r2, #1
 8000c4a:	609a      	str	r2, [r3, #8]
    
    /* Delay for ADC stabilization time */
    /* Compute number of CPU cycles to wait for */
    counter = (ADC_STAB_DELAY_US * (SystemCoreClock / 1000000U));
 8000c4c:	4b5f      	ldr	r3, [pc, #380]	; (8000dcc <HAL_ADC_Start_DMA+0x1c4>)
 8000c4e:	681b      	ldr	r3, [r3, #0]
 8000c50:	4a5f      	ldr	r2, [pc, #380]	; (8000dd0 <HAL_ADC_Start_DMA+0x1c8>)
 8000c52:	fba2 2303 	umull	r2, r3, r2, r3
 8000c56:	0c9a      	lsrs	r2, r3, #18
 8000c58:	4613      	mov	r3, r2
 8000c5a:	005b      	lsls	r3, r3, #1
 8000c5c:	4413      	add	r3, r2
 8000c5e:	613b      	str	r3, [r7, #16]
    while(counter != 0U)
 8000c60:	e002      	b.n	8000c68 <HAL_ADC_Start_DMA+0x60>
    {
      counter--;
 8000c62:	693b      	ldr	r3, [r7, #16]
 8000c64:	3b01      	subs	r3, #1
 8000c66:	613b      	str	r3, [r7, #16]
    while(counter != 0U)
 8000c68:	693b      	ldr	r3, [r7, #16]
 8000c6a:	2b00      	cmp	r3, #0
 8000c6c:	d1f9      	bne.n	8000c62 <HAL_ADC_Start_DMA+0x5a>
    }
  }
  
  /* Check ADC DMA Mode                                                     */
  /* - disable the DMA Mode if it is already enabled                        */
  if((hadc->Instance->CR2 & ADC_CR2_DMA) == ADC_CR2_DMA)
 8000c6e:	68fb      	ldr	r3, [r7, #12]
 8000c70:	681b      	ldr	r3, [r3, #0]
 8000c72:	689b      	ldr	r3, [r3, #8]
 8000c74:	f403 7380 	and.w	r3, r3, #256	; 0x100
 8000c78:	f5b3 7f80 	cmp.w	r3, #256	; 0x100
 8000c7c:	d107      	bne.n	8000c8e <HAL_ADC_Start_DMA+0x86>
  {
    CLEAR_BIT(hadc->Instance->CR2, ADC_CR2_DMA);
 8000c7e:	68fb      	ldr	r3, [r7, #12]
 8000c80:	681b      	ldr	r3, [r3, #0]
 8000c82:	689a      	ldr	r2, [r3, #8]
 8000c84:	68fb      	ldr	r3, [r7, #12]
 8000c86:	681b      	ldr	r3, [r3, #0]
 8000c88:	f422 7280 	bic.w	r2, r2, #256	; 0x100
 8000c8c:	609a      	str	r2, [r3, #8]
  }
  
  /* Start conversion if ADC is effectively enabled */
  if(HAL_IS_BIT_SET(hadc->Instance->CR2, ADC_CR2_ADON))
 8000c8e:	68fb      	ldr	r3, [r7, #12]
 8000c90:	681b      	ldr	r3, [r3, #0]
 8000c92:	689b      	ldr	r3, [r3, #8]
 8000c94:	f003 0301 	and.w	r3, r3, #1
 8000c98:	2b01      	cmp	r3, #1
 8000c9a:	f040 8086 	bne.w	8000daa <HAL_ADC_Start_DMA+0x1a2>
  {
    /* Set ADC state                                                          */
    /* - Clear state bitfield related to regular group conversion results     */
    /* - Set state bitfield related to regular group operation                */
    ADC_STATE_CLR_SET(hadc->State,
 8000c9e:	68fb      	ldr	r3, [r7, #12]
 8000ca0:	6c1b      	ldr	r3, [r3, #64]	; 0x40
 8000ca2:	f423 63e0 	bic.w	r3, r3, #1792	; 0x700
 8000ca6:	f023 0301 	bic.w	r3, r3, #1
 8000caa:	f443 7280 	orr.w	r2, r3, #256	; 0x100
 8000cae:	68fb      	ldr	r3, [r7, #12]
 8000cb0:	641a      	str	r2, [r3, #64]	; 0x40
                      HAL_ADC_STATE_READY | HAL_ADC_STATE_REG_EOC | HAL_ADC_STATE_REG_OVR,
                      HAL_ADC_STATE_REG_BUSY);
    
    /* If conversions on group regular are also triggering group injected,    */
    /* update ADC state.                                                      */
    if (READ_BIT(hadc->Instance->CR1, ADC_CR1_JAUTO) != RESET)
 8000cb2:	68fb      	ldr	r3, [r7, #12]
 8000cb4:	681b      	ldr	r3, [r3, #0]
 8000cb6:	685b      	ldr	r3, [r3, #4]
 8000cb8:	f403 6380 	and.w	r3, r3, #1024	; 0x400
 8000cbc:	2b00      	cmp	r3, #0
 8000cbe:	d007      	beq.n	8000cd0 <HAL_ADC_Start_DMA+0xc8>
    {
      ADC_STATE_CLR_SET(hadc->State, HAL_ADC_STATE_INJ_EOC, HAL_ADC_STATE_INJ_BUSY);  
 8000cc0:	68fb      	ldr	r3, [r7, #12]
 8000cc2:	6c1b      	ldr	r3, [r3, #64]	; 0x40
 8000cc4:	f423 5340 	bic.w	r3, r3, #12288	; 0x3000
 8000cc8:	f443 5280 	orr.w	r2, r3, #4096	; 0x1000
 8000ccc:	68fb      	ldr	r3, [r7, #12]
 8000cce:	641a      	str	r2, [r3, #64]	; 0x40
    }
    
    /* State machine update: Check if an injected conversion is ongoing */
    if (HAL_IS_BIT_SET(hadc->State, HAL_ADC_STATE_INJ_BUSY))
 8000cd0:	68fb      	ldr	r3, [r7, #12]
 8000cd2:	6c1b      	ldr	r3, [r3, #64]	; 0x40
 8000cd4:	f403 5380 	and.w	r3, r3, #4096	; 0x1000
 8000cd8:	f5b3 5f80 	cmp.w	r3, #4096	; 0x1000
 8000cdc:	d106      	bne.n	8000cec <HAL_ADC_Start_DMA+0xe4>
    {
      /* Reset ADC error code fields related to conversions on group regular */
      CLEAR_BIT(hadc->ErrorCode, (HAL_ADC_ERROR_OVR | HAL_ADC_ERROR_DMA));         
 8000cde:	68fb      	ldr	r3, [r7, #12]
 8000ce0:	6c5b      	ldr	r3, [r3, #68]	; 0x44
 8000ce2:	f023 0206 	bic.w	r2, r3, #6
 8000ce6:	68fb      	ldr	r3, [r7, #12]
 8000ce8:	645a      	str	r2, [r3, #68]	; 0x44
 8000cea:	e002      	b.n	8000cf2 <HAL_ADC_Start_DMA+0xea>
    }
    else
    {
      /* Reset ADC all error code fields */
      ADC_CLEAR_ERRORCODE(hadc);
 8000cec:	68fb      	ldr	r3, [r7, #12]
 8000cee:	2200      	movs	r2, #0
 8000cf0:	645a      	str	r2, [r3, #68]	; 0x44
    }

    /* Process unlocked */
    /* Unlock before starting ADC conversions: in case of potential           */
    /* interruption, to let the process to ADC IRQ Handler.                   */
    __HAL_UNLOCK(hadc);   
 8000cf2:	68fb      	ldr	r3, [r7, #12]
 8000cf4:	2200      	movs	r2, #0
 8000cf6:	f883 203c 	strb.w	r2, [r3, #60]	; 0x3c

    /* Pointer to the common control register to which is belonging hadc    */
    /* (Depending on STM32F4 product, there may be up to 3 ADCs and 1 common */
    /* control register)                                                    */
    tmpADC_Common = ADC_COMMON_REGISTER(hadc);
 8000cfa:	4b36      	ldr	r3, [pc, #216]	; (8000dd4 <HAL_ADC_Start_DMA+0x1cc>)
 8000cfc:	617b      	str	r3, [r7, #20]

    /* Set the DMA transfer complete callback */
    hadc->DMA_Handle->XferCpltCallback = ADC_DMAConvCplt;
 8000cfe:	68fb      	ldr	r3, [r7, #12]
 8000d00:	6b9b      	ldr	r3, [r3, #56]	; 0x38
 8000d02:	4a35      	ldr	r2, [pc, #212]	; (8000dd8 <HAL_ADC_Start_DMA+0x1d0>)
 8000d04:	63da      	str	r2, [r3, #60]	; 0x3c

    /* Set the DMA half transfer complete callback */
    hadc->DMA_Handle->XferHalfCpltCallback = ADC_DMAHalfConvCplt;
 8000d06:	68fb      	ldr	r3, [r7, #12]
 8000d08:	6b9b      	ldr	r3, [r3, #56]	; 0x38
 8000d0a:	4a34      	ldr	r2, [pc, #208]	; (8000ddc <HAL_ADC_Start_DMA+0x1d4>)
 8000d0c:	641a      	str	r2, [r3, #64]	; 0x40
    
    /* Set the DMA error callback */
    hadc->DMA_Handle->XferErrorCallback = ADC_DMAError;
 8000d0e:	68fb      	ldr	r3, [r7, #12]
 8000d10:	6b9b      	ldr	r3, [r3, #56]	; 0x38
 8000d12:	4a33      	ldr	r2, [pc, #204]	; (8000de0 <HAL_ADC_Start_DMA+0x1d8>)
 8000d14:	64da      	str	r2, [r3, #76]	; 0x4c
    /* Manage ADC and DMA start: ADC overrun interruption, DMA start, ADC     */
    /* start (in case of SW start):                                           */
    
    /* Clear regular group conversion flag and overrun flag */
    /* (To ensure of no unknown state from potential previous ADC operations) */
    __HAL_ADC_CLEAR_FLAG(hadc, ADC_FLAG_EOC | ADC_FLAG_OVR);
 8000d16:	68fb      	ldr	r3, [r7, #12]
 8000d18:	681b      	ldr	r3, [r3, #0]
 8000d1a:	f06f 0222 	mvn.w	r2, #34	; 0x22
 8000d1e:	601a      	str	r2, [r3, #0]

    /* Enable ADC overrun interrupt */
    __HAL_ADC_ENABLE_IT(hadc, ADC_IT_OVR);
 8000d20:	68fb      	ldr	r3, [r7, #12]
 8000d22:	681b      	ldr	r3, [r3, #0]
 8000d24:	685a      	ldr	r2, [r3, #4]
 8000d26:	68fb      	ldr	r3, [r7, #12]
 8000d28:	681b      	ldr	r3, [r3, #0]
 8000d2a:	f042 6280 	orr.w	r2, r2, #67108864	; 0x4000000
 8000d2e:	605a      	str	r2, [r3, #4]
    
    /* Enable ADC DMA mode */
    hadc->Instance->CR2 |= ADC_CR2_DMA;
 8000d30:	68fb      	ldr	r3, [r7, #12]
 8000d32:	681b      	ldr	r3, [r3, #0]
 8000d34:	689a      	ldr	r2, [r3, #8]
 8000d36:	68fb      	ldr	r3, [r7, #12]
 8000d38:	681b      	ldr	r3, [r3, #0]
 8000d3a:	f442 7280 	orr.w	r2, r2, #256	; 0x100
 8000d3e:	609a      	str	r2, [r3, #8]
    
    /* Start the DMA channel */
    HAL_DMA_Start_IT(hadc->DMA_Handle, (uint32_t)&hadc->Instance->DR, (uint32_t)pData, Length);
 8000d40:	68fb      	ldr	r3, [r7, #12]
 8000d42:	6b98      	ldr	r0, [r3, #56]	; 0x38
 8000d44:	68fb      	ldr	r3, [r7, #12]
 8000d46:	681b      	ldr	r3, [r3, #0]
 8000d48:	334c      	adds	r3, #76	; 0x4c
 8000d4a:	4619      	mov	r1, r3
 8000d4c:	68ba      	ldr	r2, [r7, #8]
 8000d4e:	687b      	ldr	r3, [r7, #4]
 8000d50:	f000 fcc8 	bl	80016e4 <HAL_DMA_Start_IT>
    
    /* Check if Multimode enabled */
    if(HAL_IS_BIT_CLR(tmpADC_Common->CCR, ADC_CCR_MULTI))
 8000d54:	697b      	ldr	r3, [r7, #20]
 8000d56:	685b      	ldr	r3, [r3, #4]
 8000d58:	f003 031f 	and.w	r3, r3, #31
 8000d5c:	2b00      	cmp	r3, #0
 8000d5e:	d10f      	bne.n	8000d80 <HAL_ADC_Start_DMA+0x178>
      if((hadc->Instance == ADC1) || ((hadc->Instance == ADC2) && ((ADC->CCR & ADC_CCR_MULTI_Msk) < ADC_CCR_MULTI_0)) \
                                  || ((hadc->Instance == ADC3) && ((ADC->CCR & ADC_CCR_MULTI_Msk) < ADC_CCR_MULTI_4)))
      {
#endif /* ADC2 || ADC3 */
        /* if no external trigger present enable software conversion of regular channels */
        if((hadc->Instance->CR2 & ADC_CR2_EXTEN) == RESET) 
 8000d60:	68fb      	ldr	r3, [r7, #12]
 8000d62:	681b      	ldr	r3, [r3, #0]
 8000d64:	689b      	ldr	r3, [r3, #8]
 8000d66:	f003 5340 	and.w	r3, r3, #805306368	; 0x30000000
 8000d6a:	2b00      	cmp	r3, #0
 8000d6c:	d129      	bne.n	8000dc2 <HAL_ADC_Start_DMA+0x1ba>
        {
          /* Enable the selected ADC software conversion for regular group */
          hadc->Instance->CR2 |= (uint32_t)ADC_CR2_SWSTART;
 8000d6e:	68fb      	ldr	r3, [r7, #12]
 8000d70:	681b      	ldr	r3, [r3, #0]
 8000d72:	689a      	ldr	r2, [r3, #8]
 8000d74:	68fb      	ldr	r3, [r7, #12]
 8000d76:	681b      	ldr	r3, [r3, #0]
 8000d78:	f042 4280 	orr.w	r2, r2, #1073741824	; 0x40000000
 8000d7c:	609a      	str	r2, [r3, #8]
 8000d7e:	e020      	b.n	8000dc2 <HAL_ADC_Start_DMA+0x1ba>
#endif /* ADC2 || ADC3 */
    }
    else
    {
      /* if instance of handle correspond to ADC1 and  no external trigger present enable software conversion of regular channels */
      if((hadc->Instance == ADC1) && ((hadc->Instance->CR2 & ADC_CR2_EXTEN) == RESET))
 8000d80:	68fb      	ldr	r3, [r7, #12]
 8000d82:	681b      	ldr	r3, [r3, #0]
 8000d84:	4a17      	ldr	r2, [pc, #92]	; (8000de4 <HAL_ADC_Start_DMA+0x1dc>)
 8000d86:	4293      	cmp	r3, r2
 8000d88:	d11b      	bne.n	8000dc2 <HAL_ADC_Start_DMA+0x1ba>
 8000d8a:	68fb      	ldr	r3, [r7, #12]
 8000d8c:	681b      	ldr	r3, [r3, #0]
 8000d8e:	689b      	ldr	r3, [r3, #8]
 8000d90:	f003 5340 	and.w	r3, r3, #805306368	; 0x30000000
 8000d94:	2b00      	cmp	r3, #0
 8000d96:	d114      	bne.n	8000dc2 <HAL_ADC_Start_DMA+0x1ba>
      {
        /* Enable the selected ADC software conversion for regular group */
          hadc->Instance->CR2 |= (uint32_t)ADC_CR2_SWSTART;
 8000d98:	68fb      	ldr	r3, [r7, #12]
 8000d9a:	681b      	ldr	r3, [r3, #0]
 8000d9c:	689a      	ldr	r2, [r3, #8]
 8000d9e:	68fb      	ldr	r3, [r7, #12]
 8000da0:	681b      	ldr	r3, [r3, #0]
 8000da2:	f042 4280 	orr.w	r2, r2, #1073741824	; 0x40000000
 8000da6:	609a      	str	r2, [r3, #8]
 8000da8:	e00b      	b.n	8000dc2 <HAL_ADC_Start_DMA+0x1ba>
    }
  }
  else
  {
    /* Update ADC state machine to error */
    SET_BIT(hadc->State, HAL_ADC_STATE_ERROR_INTERNAL);
 8000daa:	68fb      	ldr	r3, [r7, #12]
 8000dac:	6c1b      	ldr	r3, [r3, #64]	; 0x40
 8000dae:	f043 0210 	orr.w	r2, r3, #16
 8000db2:	68fb      	ldr	r3, [r7, #12]
 8000db4:	641a      	str	r2, [r3, #64]	; 0x40

    /* Set ADC error code to ADC IP internal error */
    SET_BIT(hadc->ErrorCode, HAL_ADC_ERROR_INTERNAL);
 8000db6:	68fb      	ldr	r3, [r7, #12]
 8000db8:	6c5b      	ldr	r3, [r3, #68]	; 0x44
 8000dba:	f043 0201 	orr.w	r2, r3, #1
 8000dbe:	68fb      	ldr	r3, [r7, #12]
 8000dc0:	645a      	str	r2, [r3, #68]	; 0x44
  }
  
  /* Return function status */
  return HAL_OK;
 8000dc2:	2300      	movs	r3, #0
}
 8000dc4:	4618      	mov	r0, r3
 8000dc6:	3718      	adds	r7, #24
 8000dc8:	46bd      	mov	sp, r7
 8000dca:	bd80      	pop	{r7, pc}
 8000dcc:	20000000 	.word	0x20000000
 8000dd0:	431bde83 	.word	0x431bde83
 8000dd4:	40012300 	.word	0x40012300
 8000dd8:	08001261 	.word	0x08001261
 8000ddc:	0800131b 	.word	0x0800131b
 8000de0:	08001337 	.word	0x08001337
 8000de4:	40012000 	.word	0x40012000

08000de8 <HAL_ADC_ConvCpltCallback>:
  * @param  hadc pointer to a ADC_HandleTypeDef structure that contains
  *         the configuration information for the specified ADC.
  * @retval None
  */
__weak void HAL_ADC_ConvCpltCallback(ADC_HandleTypeDef* hadc)
{
 8000de8:	b480      	push	{r7}
 8000dea:	b083      	sub	sp, #12
 8000dec:	af00      	add	r7, sp, #0
 8000dee:	6078      	str	r0, [r7, #4]
  /* Prevent unused argument(s) compilation warning */
  UNUSED(hadc);
  /* NOTE : This function Should not be modified, when the callback is needed,
            the HAL_ADC_ConvCpltCallback could be implemented in the user file
   */
}
 8000df0:	bf00      	nop
 8000df2:	370c      	adds	r7, #12
 8000df4:	46bd      	mov	sp, r7
 8000df6:	f85d 7b04 	ldr.w	r7, [sp], #4
 8000dfa:	4770      	bx	lr

08000dfc <HAL_ADC_ConvHalfCpltCallback>:
  * @param  hadc pointer to a ADC_HandleTypeDef structure that contains
  *         the configuration information for the specified ADC.
  * @retval None
  */
__weak void HAL_ADC_ConvHalfCpltCallback(ADC_HandleTypeDef* hadc)
{
 8000dfc:	b480      	push	{r7}
 8000dfe:	b083      	sub	sp, #12
 8000e00:	af00      	add	r7, sp, #0
 8000e02:	6078      	str	r0, [r7, #4]
  /* Prevent unused argument(s) compilation warning */
  UNUSED(hadc);
  /* NOTE : This function Should not be modified, when the callback is needed,
            the HAL_ADC_ConvHalfCpltCallback could be implemented in the user file
   */
}
 8000e04:	bf00      	nop
 8000e06:	370c      	adds	r7, #12
 8000e08:	46bd      	mov	sp, r7
 8000e0a:	f85d 7b04 	ldr.w	r7, [sp], #4
 8000e0e:	4770      	bx	lr

08000e10 <HAL_ADC_ErrorCallback>:
  * @param  hadc pointer to a ADC_HandleTypeDef structure that contains
  *         the configuration information for the specified ADC.
  * @retval None
  */
__weak void HAL_ADC_ErrorCallback(ADC_HandleTypeDef *hadc)
{
 8000e10:	b480      	push	{r7}
 8000e12:	b083      	sub	sp, #12
 8000e14:	af00      	add	r7, sp, #0
 8000e16:	6078      	str	r0, [r7, #4]
  /* Prevent unused argument(s) compilation warning */
  UNUSED(hadc);
  /* NOTE : This function Should not be modified, when the callback is needed,
            the HAL_ADC_ErrorCallback could be implemented in the user file
   */
}
 8000e18:	bf00      	nop
 8000e1a:	370c      	adds	r7, #12
 8000e1c:	46bd      	mov	sp, r7
 8000e1e:	f85d 7b04 	ldr.w	r7, [sp], #4
 8000e22:	4770      	bx	lr

08000e24 <HAL_ADC_ConfigChannel>:
  *         the configuration information for the specified ADC.
  * @param  sConfig ADC configuration structure. 
  * @retval HAL status
  */
HAL_StatusTypeDef HAL_ADC_ConfigChannel(ADC_HandleTypeDef* hadc, ADC_ChannelConfTypeDef* sConfig)
{
 8000e24:	b480      	push	{r7}
 8000e26:	b085      	sub	sp, #20
 8000e28:	af00      	add	r7, sp, #0
 8000e2a:	6078      	str	r0, [r7, #4]
 8000e2c:	6039      	str	r1, [r7, #0]
  __IO uint32_t counter = 0U;
 8000e2e:	2300      	movs	r3, #0
 8000e30:	60bb      	str	r3, [r7, #8]
  assert_param(IS_ADC_CHANNEL(sConfig->Channel));
  assert_param(IS_ADC_REGULAR_RANK(sConfig->Rank));
  assert_param(IS_ADC_SAMPLE_TIME(sConfig->SamplingTime));
  
  /* Process locked */
  __HAL_LOCK(hadc);
 8000e32:	687b      	ldr	r3, [r7, #4]
 8000e34:	f893 303c 	ldrb.w	r3, [r3, #60]	; 0x3c
 8000e38:	2b01      	cmp	r3, #1
 8000e3a:	d101      	bne.n	8000e40 <HAL_ADC_ConfigChannel+0x1c>
 8000e3c:	2302      	movs	r3, #2
 8000e3e:	e105      	b.n	800104c <HAL_ADC_ConfigChannel+0x228>
 8000e40:	687b      	ldr	r3, [r7, #4]
 8000e42:	2201      	movs	r2, #1
 8000e44:	f883 203c 	strb.w	r2, [r3, #60]	; 0x3c
    
  /* if ADC_Channel_10 ... ADC_Channel_18 is selected */
  if (sConfig->Channel > ADC_CHANNEL_9)
 8000e48:	683b      	ldr	r3, [r7, #0]
 8000e4a:	681b      	ldr	r3, [r3, #0]
 8000e4c:	2b09      	cmp	r3, #9
 8000e4e:	d925      	bls.n	8000e9c <HAL_ADC_ConfigChannel+0x78>
  {
    /* Clear the old sample time */
    hadc->Instance->SMPR1 &= ~ADC_SMPR1(ADC_SMPR1_SMP10, sConfig->Channel);
 8000e50:	687b      	ldr	r3, [r7, #4]
 8000e52:	681b      	ldr	r3, [r3, #0]
 8000e54:	68d9      	ldr	r1, [r3, #12]
 8000e56:	683b      	ldr	r3, [r7, #0]
 8000e58:	681b      	ldr	r3, [r3, #0]
 8000e5a:	b29b      	uxth	r3, r3
 8000e5c:	461a      	mov	r2, r3
 8000e5e:	4613      	mov	r3, r2
 8000e60:	005b      	lsls	r3, r3, #1
 8000e62:	4413      	add	r3, r2
 8000e64:	3b1e      	subs	r3, #30
 8000e66:	2207      	movs	r2, #7
 8000e68:	fa02 f303 	lsl.w	r3, r2, r3
 8000e6c:	43da      	mvns	r2, r3
 8000e6e:	687b      	ldr	r3, [r7, #4]
 8000e70:	681b      	ldr	r3, [r3, #0]
 8000e72:	400a      	ands	r2, r1
 8000e74:	60da      	str	r2, [r3, #12]
    
    /* Set the new sample time */
    hadc->Instance->SMPR1 |= ADC_SMPR1(sConfig->SamplingTime, sConfig->Channel);
 8000e76:	687b      	ldr	r3, [r7, #4]
 8000e78:	681b      	ldr	r3, [r3, #0]
 8000e7a:	68d9      	ldr	r1, [r3, #12]
 8000e7c:	683b      	ldr	r3, [r7, #0]
 8000e7e:	689a      	ldr	r2, [r3, #8]
 8000e80:	683b      	ldr	r3, [r7, #0]
 8000e82:	681b      	ldr	r3, [r3, #0]
 8000e84:	b29b      	uxth	r3, r3
 8000e86:	4618      	mov	r0, r3
 8000e88:	4603      	mov	r3, r0
 8000e8a:	005b      	lsls	r3, r3, #1
 8000e8c:	4403      	add	r3, r0
 8000e8e:	3b1e      	subs	r3, #30
 8000e90:	409a      	lsls	r2, r3
 8000e92:	687b      	ldr	r3, [r7, #4]
 8000e94:	681b      	ldr	r3, [r3, #0]
 8000e96:	430a      	orrs	r2, r1
 8000e98:	60da      	str	r2, [r3, #12]
 8000e9a:	e022      	b.n	8000ee2 <HAL_ADC_ConfigChannel+0xbe>
  }
  else /* ADC_Channel include in ADC_Channel_[0..9] */
  {
    /* Clear the old sample time */
    hadc->Instance->SMPR2 &= ~ADC_SMPR2(ADC_SMPR2_SMP0, sConfig->Channel);
 8000e9c:	687b      	ldr	r3, [r7, #4]
 8000e9e:	681b      	ldr	r3, [r3, #0]
 8000ea0:	6919      	ldr	r1, [r3, #16]
 8000ea2:	683b      	ldr	r3, [r7, #0]
 8000ea4:	681b      	ldr	r3, [r3, #0]
 8000ea6:	b29b      	uxth	r3, r3
 8000ea8:	461a      	mov	r2, r3
 8000eaa:	4613      	mov	r3, r2
 8000eac:	005b      	lsls	r3, r3, #1
 8000eae:	4413      	add	r3, r2
 8000eb0:	2207      	movs	r2, #7
 8000eb2:	fa02 f303 	lsl.w	r3, r2, r3
 8000eb6:	43da      	mvns	r2, r3
 8000eb8:	687b      	ldr	r3, [r7, #4]
 8000eba:	681b      	ldr	r3, [r3, #0]
 8000ebc:	400a      	ands	r2, r1
 8000ebe:	611a      	str	r2, [r3, #16]
    
    /* Set the new sample time */
    hadc->Instance->SMPR2 |= ADC_SMPR2(sConfig->SamplingTime, sConfig->Channel);
 8000ec0:	687b      	ldr	r3, [r7, #4]
 8000ec2:	681b      	ldr	r3, [r3, #0]
 8000ec4:	6919      	ldr	r1, [r3, #16]
 8000ec6:	683b      	ldr	r3, [r7, #0]
 8000ec8:	689a      	ldr	r2, [r3, #8]
 8000eca:	683b      	ldr	r3, [r7, #0]
 8000ecc:	681b      	ldr	r3, [r3, #0]
 8000ece:	b29b      	uxth	r3, r3
 8000ed0:	4618      	mov	r0, r3
 8000ed2:	4603      	mov	r3, r0
 8000ed4:	005b      	lsls	r3, r3, #1
 8000ed6:	4403      	add	r3, r0
 8000ed8:	409a      	lsls	r2, r3
 8000eda:	687b      	ldr	r3, [r7, #4]
 8000edc:	681b      	ldr	r3, [r3, #0]
 8000ede:	430a      	orrs	r2, r1
 8000ee0:	611a      	str	r2, [r3, #16]
  }
  
  /* For Rank 1 to 6 */
  if (sConfig->Rank < 7U)
 8000ee2:	683b      	ldr	r3, [r7, #0]
 8000ee4:	685b      	ldr	r3, [r3, #4]
 8000ee6:	2b06      	cmp	r3, #6
 8000ee8:	d824      	bhi.n	8000f34 <HAL_ADC_ConfigChannel+0x110>
  {
    /* Clear the old SQx bits for the selected rank */
    hadc->Instance->SQR3 &= ~ADC_SQR3_RK(ADC_SQR3_SQ1, sConfig->Rank);
 8000eea:	687b      	ldr	r3, [r7, #4]
 8000eec:	681b      	ldr	r3, [r3, #0]
 8000eee:	6b59      	ldr	r1, [r3, #52]	; 0x34
 8000ef0:	683b      	ldr	r3, [r7, #0]
 8000ef2:	685a      	ldr	r2, [r3, #4]
 8000ef4:	4613      	mov	r3, r2
 8000ef6:	009b      	lsls	r3, r3, #2
 8000ef8:	4413      	add	r3, r2
 8000efa:	3b05      	subs	r3, #5
 8000efc:	221f      	movs	r2, #31
 8000efe:	fa02 f303 	lsl.w	r3, r2, r3
 8000f02:	43da      	mvns	r2, r3
 8000f04:	687b      	ldr	r3, [r7, #4]
 8000f06:	681b      	ldr	r3, [r3, #0]
 8000f08:	400a      	ands	r2, r1
 8000f0a:	635a      	str	r2, [r3, #52]	; 0x34
    
    /* Set the SQx bits for the selected rank */
    hadc->Instance->SQR3 |= ADC_SQR3_RK(sConfig->Channel, sConfig->Rank);
 8000f0c:	687b      	ldr	r3, [r7, #4]
 8000f0e:	681b      	ldr	r3, [r3, #0]
 8000f10:	6b59      	ldr	r1, [r3, #52]	; 0x34
 8000f12:	683b      	ldr	r3, [r7, #0]
 8000f14:	681b      	ldr	r3, [r3, #0]
 8000f16:	b29b      	uxth	r3, r3
 8000f18:	4618      	mov	r0, r3
 8000f1a:	683b      	ldr	r3, [r7, #0]
 8000f1c:	685a      	ldr	r2, [r3, #4]
 8000f1e:	4613      	mov	r3, r2
 8000f20:	009b      	lsls	r3, r3, #2
 8000f22:	4413      	add	r3, r2
 8000f24:	3b05      	subs	r3, #5
 8000f26:	fa00 f203 	lsl.w	r2, r0, r3
 8000f2a:	687b      	ldr	r3, [r7, #4]
 8000f2c:	681b      	ldr	r3, [r3, #0]
 8000f2e:	430a      	orrs	r2, r1
 8000f30:	635a      	str	r2, [r3, #52]	; 0x34
 8000f32:	e04c      	b.n	8000fce <HAL_ADC_ConfigChannel+0x1aa>
  }
  /* For Rank 7 to 12 */
  else if (sConfig->Rank < 13U)
 8000f34:	683b      	ldr	r3, [r7, #0]
 8000f36:	685b      	ldr	r3, [r3, #4]
 8000f38:	2b0c      	cmp	r3, #12
 8000f3a:	d824      	bhi.n	8000f86 <HAL_ADC_ConfigChannel+0x162>
  {
    /* Clear the old SQx bits for the selected rank */
    hadc->Instance->SQR2 &= ~ADC_SQR2_RK(ADC_SQR2_SQ7, sConfig->Rank);
 8000f3c:	687b      	ldr	r3, [r7, #4]
 8000f3e:	681b      	ldr	r3, [r3, #0]
 8000f40:	6b19      	ldr	r1, [r3, #48]	; 0x30
 8000f42:	683b      	ldr	r3, [r7, #0]
 8000f44:	685a      	ldr	r2, [r3, #4]
 8000f46:	4613      	mov	r3, r2
 8000f48:	009b      	lsls	r3, r3, #2
 8000f4a:	4413      	add	r3, r2
 8000f4c:	3b23      	subs	r3, #35	; 0x23
 8000f4e:	221f      	movs	r2, #31
 8000f50:	fa02 f303 	lsl.w	r3, r2, r3
 8000f54:	43da      	mvns	r2, r3
 8000f56:	687b      	ldr	r3, [r7, #4]
 8000f58:	681b      	ldr	r3, [r3, #0]
 8000f5a:	400a      	ands	r2, r1
 8000f5c:	631a      	str	r2, [r3, #48]	; 0x30
    
    /* Set the SQx bits for the selected rank */
    hadc->Instance->SQR2 |= ADC_SQR2_RK(sConfig->Channel, sConfig->Rank);
 8000f5e:	687b      	ldr	r3, [r7, #4]
 8000f60:	681b      	ldr	r3, [r3, #0]
 8000f62:	6b19      	ldr	r1, [r3, #48]	; 0x30
 8000f64:	683b      	ldr	r3, [r7, #0]
 8000f66:	681b      	ldr	r3, [r3, #0]
 8000f68:	b29b      	uxth	r3, r3
 8000f6a:	4618      	mov	r0, r3
 8000f6c:	683b      	ldr	r3, [r7, #0]
 8000f6e:	685a      	ldr	r2, [r3, #4]
 8000f70:	4613      	mov	r3, r2
 8000f72:	009b      	lsls	r3, r3, #2
 8000f74:	4413      	add	r3, r2
 8000f76:	3b23      	subs	r3, #35	; 0x23
 8000f78:	fa00 f203 	lsl.w	r2, r0, r3
 8000f7c:	687b      	ldr	r3, [r7, #4]
 8000f7e:	681b      	ldr	r3, [r3, #0]
 8000f80:	430a      	orrs	r2, r1
 8000f82:	631a      	str	r2, [r3, #48]	; 0x30
 8000f84:	e023      	b.n	8000fce <HAL_ADC_ConfigChannel+0x1aa>
  }
  /* For Rank 13 to 16 */
  else
  {
    /* Clear the old SQx bits for the selected rank */
    hadc->Instance->SQR1 &= ~ADC_SQR1_RK(ADC_SQR1_SQ13, sConfig->Rank);
 8000f86:	687b      	ldr	r3, [r7, #4]
 8000f88:	681b      	ldr	r3, [r3, #0]
 8000f8a:	6ad9      	ldr	r1, [r3, #44]	; 0x2c
 8000f8c:	683b      	ldr	r3, [r7, #0]
 8000f8e:	685a      	ldr	r2, [r3, #4]
 8000f90:	4613      	mov	r3, r2
 8000f92:	009b      	lsls	r3, r3, #2
 8000f94:	4413      	add	r3, r2
 8000f96:	3b41      	subs	r3, #65	; 0x41
 8000f98:	221f      	movs	r2, #31
 8000f9a:	fa02 f303 	lsl.w	r3, r2, r3
 8000f9e:	43da      	mvns	r2, r3
 8000fa0:	687b      	ldr	r3, [r7, #4]
 8000fa2:	681b      	ldr	r3, [r3, #0]
 8000fa4:	400a      	ands	r2, r1
 8000fa6:	62da      	str	r2, [r3, #44]	; 0x2c
    
    /* Set the SQx bits for the selected rank */
    hadc->Instance->SQR1 |= ADC_SQR1_RK(sConfig->Channel, sConfig->Rank);
 8000fa8:	687b      	ldr	r3, [r7, #4]
 8000faa:	681b      	ldr	r3, [r3, #0]
 8000fac:	6ad9      	ldr	r1, [r3, #44]	; 0x2c
 8000fae:	683b      	ldr	r3, [r7, #0]
 8000fb0:	681b      	ldr	r3, [r3, #0]
 8000fb2:	b29b      	uxth	r3, r3
 8000fb4:	4618      	mov	r0, r3
 8000fb6:	683b      	ldr	r3, [r7, #0]
 8000fb8:	685a      	ldr	r2, [r3, #4]
 8000fba:	4613      	mov	r3, r2
 8000fbc:	009b      	lsls	r3, r3, #2
 8000fbe:	4413      	add	r3, r2
 8000fc0:	3b41      	subs	r3, #65	; 0x41
 8000fc2:	fa00 f203 	lsl.w	r2, r0, r3
 8000fc6:	687b      	ldr	r3, [r7, #4]
 8000fc8:	681b      	ldr	r3, [r3, #0]
 8000fca:	430a      	orrs	r2, r1
 8000fcc:	62da      	str	r2, [r3, #44]	; 0x2c
  }

    /* Pointer to the common control register to which is belonging hadc    */
    /* (Depending on STM32F4 product, there may be up to 3 ADCs and 1 common */
    /* control register)                                                    */
    tmpADC_Common = ADC_COMMON_REGISTER(hadc);
 8000fce:	4b22      	ldr	r3, [pc, #136]	; (8001058 <HAL_ADC_ConfigChannel+0x234>)
 8000fd0:	60fb      	str	r3, [r7, #12]

  /* if ADC1 Channel_18 is selected for VBAT Channel ennable VBATE */
  if ((hadc->Instance == ADC1) && (sConfig->Channel == ADC_CHANNEL_VBAT))
 8000fd2:	687b      	ldr	r3, [r7, #4]
 8000fd4:	681b      	ldr	r3, [r3, #0]
 8000fd6:	4a21      	ldr	r2, [pc, #132]	; (800105c <HAL_ADC_ConfigChannel+0x238>)
 8000fd8:	4293      	cmp	r3, r2
 8000fda:	d109      	bne.n	8000ff0 <HAL_ADC_ConfigChannel+0x1cc>
 8000fdc:	683b      	ldr	r3, [r7, #0]
 8000fde:	681b      	ldr	r3, [r3, #0]
 8000fe0:	2b12      	cmp	r3, #18
 8000fe2:	d105      	bne.n	8000ff0 <HAL_ADC_ConfigChannel+0x1cc>
    if ((uint16_t)ADC_CHANNEL_TEMPSENSOR == (uint16_t)ADC_CHANNEL_VBAT)
    {
      tmpADC_Common->CCR &= ~ADC_CCR_TSVREFE;
    }
    /* Enable the VBAT channel*/
    tmpADC_Common->CCR |= ADC_CCR_VBATE;
 8000fe4:	68fb      	ldr	r3, [r7, #12]
 8000fe6:	685b      	ldr	r3, [r3, #4]
 8000fe8:	f443 0280 	orr.w	r2, r3, #4194304	; 0x400000
 8000fec:	68fb      	ldr	r3, [r7, #12]
 8000fee:	605a      	str	r2, [r3, #4]
  }
  
  /* if ADC1 Channel_16 or Channel_18 is selected for Temperature sensor or 
     Channel_17 is selected for VREFINT enable TSVREFE */
  if ((hadc->Instance == ADC1) && ((sConfig->Channel == ADC_CHANNEL_TEMPSENSOR) || (sConfig->Channel == ADC_CHANNEL_VREFINT)))
 8000ff0:	687b      	ldr	r3, [r7, #4]
 8000ff2:	681b      	ldr	r3, [r3, #0]
 8000ff4:	4a19      	ldr	r2, [pc, #100]	; (800105c <HAL_ADC_ConfigChannel+0x238>)
 8000ff6:	4293      	cmp	r3, r2
 8000ff8:	d123      	bne.n	8001042 <HAL_ADC_ConfigChannel+0x21e>
 8000ffa:	683b      	ldr	r3, [r7, #0]
 8000ffc:	681b      	ldr	r3, [r3, #0]
 8000ffe:	2b10      	cmp	r3, #16
 8001000:	d003      	beq.n	800100a <HAL_ADC_ConfigChannel+0x1e6>
 8001002:	683b      	ldr	r3, [r7, #0]
 8001004:	681b      	ldr	r3, [r3, #0]
 8001006:	2b11      	cmp	r3, #17
 8001008:	d11b      	bne.n	8001042 <HAL_ADC_ConfigChannel+0x21e>
    if ((uint16_t)ADC_CHANNEL_TEMPSENSOR == (uint16_t)ADC_CHANNEL_VBAT)
    {
      tmpADC_Common->CCR &= ~ADC_CCR_VBATE;
    }
    /* Enable the Temperature sensor and VREFINT channel*/
    tmpADC_Common->CCR |= ADC_CCR_TSVREFE;
 800100a:	68fb      	ldr	r3, [r7, #12]
 800100c:	685b      	ldr	r3, [r3, #4]
 800100e:	f443 0200 	orr.w	r2, r3, #8388608	; 0x800000
 8001012:	68fb      	ldr	r3, [r7, #12]
 8001014:	605a      	str	r2, [r3, #4]
    
    if(sConfig->Channel == ADC_CHANNEL_TEMPSENSOR)
 8001016:	683b      	ldr	r3, [r7, #0]
 8001018:	681b      	ldr	r3, [r3, #0]
 800101a:	2b10      	cmp	r3, #16
 800101c:	d111      	bne.n	8001042 <HAL_ADC_ConfigChannel+0x21e>
    {
      /* Delay for temperature sensor stabilization time */
      /* Compute number of CPU cycles to wait for */
      counter = (ADC_TEMPSENSOR_DELAY_US * (SystemCoreClock / 1000000U));
 800101e:	4b10      	ldr	r3, [pc, #64]	; (8001060 <HAL_ADC_ConfigChannel+0x23c>)
 8001020:	681b      	ldr	r3, [r3, #0]
 8001022:	4a10      	ldr	r2, [pc, #64]	; (8001064 <HAL_ADC_ConfigChannel+0x240>)
 8001024:	fba2 2303 	umull	r2, r3, r2, r3
 8001028:	0c9a      	lsrs	r2, r3, #18
 800102a:	4613      	mov	r3, r2
 800102c:	009b      	lsls	r3, r3, #2
 800102e:	4413      	add	r3, r2
 8001030:	005b      	lsls	r3, r3, #1
 8001032:	60bb      	str	r3, [r7, #8]
      while(counter != 0U)
 8001034:	e002      	b.n	800103c <HAL_ADC_ConfigChannel+0x218>
      {
        counter--;
 8001036:	68bb      	ldr	r3, [r7, #8]
 8001038:	3b01      	subs	r3, #1
 800103a:	60bb      	str	r3, [r7, #8]
      while(counter != 0U)
 800103c:	68bb      	ldr	r3, [r7, #8]
 800103e:	2b00      	cmp	r3, #0
 8001040:	d1f9      	bne.n	8001036 <HAL_ADC_ConfigChannel+0x212>
      }
    }
  }
  
  /* Process unlocked */
  __HAL_UNLOCK(hadc);
 8001042:	687b      	ldr	r3, [r7, #4]
 8001044:	2200      	movs	r2, #0
 8001046:	f883 203c 	strb.w	r2, [r3, #60]	; 0x3c
  
  /* Return function status */
  return HAL_OK;
 800104a:	2300      	movs	r3, #0
}
 800104c:	4618      	mov	r0, r3
 800104e:	3714      	adds	r7, #20
 8001050:	46bd      	mov	sp, r7
 8001052:	f85d 7b04 	ldr.w	r7, [sp], #4
 8001056:	4770      	bx	lr
 8001058:	40012300 	.word	0x40012300
 800105c:	40012000 	.word	0x40012000
 8001060:	20000000 	.word	0x20000000
 8001064:	431bde83 	.word	0x431bde83

08001068 <ADC_Init>:
  * @param  hadc pointer to a ADC_HandleTypeDef structure that contains
  *         the configuration information for the specified ADC.  
  * @retval None
  */
static void ADC_Init(ADC_HandleTypeDef* hadc)
{
 8001068:	b480      	push	{r7}
 800106a:	b085      	sub	sp, #20
 800106c:	af00      	add	r7, sp, #0
 800106e:	6078      	str	r0, [r7, #4]
  
  /* Set ADC parameters */
  /* Pointer to the common control register to which is belonging hadc    */
  /* (Depending on STM32F4 product, there may be up to 3 ADCs and 1 common */
  /* control register)                                                    */
  tmpADC_Common = ADC_COMMON_REGISTER(hadc);
 8001070:	4b79      	ldr	r3, [pc, #484]	; (8001258 <ADC_Init+0x1f0>)
 8001072:	60fb      	str	r3, [r7, #12]
  
  /* Set the ADC clock prescaler */
  tmpADC_Common->CCR &= ~(ADC_CCR_ADCPRE);
 8001074:	68fb      	ldr	r3, [r7, #12]
 8001076:	685b      	ldr	r3, [r3, #4]
 8001078:	f423 3240 	bic.w	r2, r3, #196608	; 0x30000
 800107c:	68fb      	ldr	r3, [r7, #12]
 800107e:	605a      	str	r2, [r3, #4]
  tmpADC_Common->CCR |=  hadc->Init.ClockPrescaler;
 8001080:	68fb      	ldr	r3, [r7, #12]
 8001082:	685a      	ldr	r2, [r3, #4]
 8001084:	687b      	ldr	r3, [r7, #4]
 8001086:	685b      	ldr	r3, [r3, #4]
 8001088:	431a      	orrs	r2, r3
 800108a:	68fb      	ldr	r3, [r7, #12]
 800108c:	605a      	str	r2, [r3, #4]
  
  /* Set ADC scan mode */
  hadc->Instance->CR1 &= ~(ADC_CR1_SCAN);
 800108e:	687b      	ldr	r3, [r7, #4]
 8001090:	681b      	ldr	r3, [r3, #0]
 8001092:	685a      	ldr	r2, [r3, #4]
 8001094:	687b      	ldr	r3, [r7, #4]
 8001096:	681b      	ldr	r3, [r3, #0]
 8001098:	f422 7280 	bic.w	r2, r2, #256	; 0x100
 800109c:	605a      	str	r2, [r3, #4]
  hadc->Instance->CR1 |=  ADC_CR1_SCANCONV(hadc->Init.ScanConvMode);
 800109e:	687b      	ldr	r3, [r7, #4]
 80010a0:	681b      	ldr	r3, [r3, #0]
 80010a2:	6859      	ldr	r1, [r3, #4]
 80010a4:	687b      	ldr	r3, [r7, #4]
 80010a6:	691b      	ldr	r3, [r3, #16]
 80010a8:	021a      	lsls	r2, r3, #8
 80010aa:	687b      	ldr	r3, [r7, #4]
 80010ac:	681b      	ldr	r3, [r3, #0]
 80010ae:	430a      	orrs	r2, r1
 80010b0:	605a      	str	r2, [r3, #4]
  
  /* Set ADC resolution */
  hadc->Instance->CR1 &= ~(ADC_CR1_RES);
 80010b2:	687b      	ldr	r3, [r7, #4]
 80010b4:	681b      	ldr	r3, [r3, #0]
 80010b6:	685a      	ldr	r2, [r3, #4]
 80010b8:	687b      	ldr	r3, [r7, #4]
 80010ba:	681b      	ldr	r3, [r3, #0]
 80010bc:	f022 7240 	bic.w	r2, r2, #50331648	; 0x3000000
 80010c0:	605a      	str	r2, [r3, #4]
  hadc->Instance->CR1 |=  hadc->Init.Resolution;
 80010c2:	687b      	ldr	r3, [r7, #4]
 80010c4:	681b      	ldr	r3, [r3, #0]
 80010c6:	6859      	ldr	r1, [r3, #4]
 80010c8:	687b      	ldr	r3, [r7, #4]
 80010ca:	689a      	ldr	r2, [r3, #8]
 80010cc:	687b      	ldr	r3, [r7, #4]
 80010ce:	681b      	ldr	r3, [r3, #0]
 80010d0:	430a      	orrs	r2, r1
 80010d2:	605a      	str	r2, [r3, #4]
  
  /* Set ADC data alignment */
  hadc->Instance->CR2 &= ~(ADC_CR2_ALIGN);
 80010d4:	687b      	ldr	r3, [r7, #4]
 80010d6:	681b      	ldr	r3, [r3, #0]
 80010d8:	689a      	ldr	r2, [r3, #8]
 80010da:	687b      	ldr	r3, [r7, #4]
 80010dc:	681b      	ldr	r3, [r3, #0]
 80010de:	f422 6200 	bic.w	r2, r2, #2048	; 0x800
 80010e2:	609a      	str	r2, [r3, #8]
  hadc->Instance->CR2 |= hadc->Init.DataAlign;
 80010e4:	687b      	ldr	r3, [r7, #4]
 80010e6:	681b      	ldr	r3, [r3, #0]
 80010e8:	6899      	ldr	r1, [r3, #8]
 80010ea:	687b      	ldr	r3, [r7, #4]
 80010ec:	68da      	ldr	r2, [r3, #12]
 80010ee:	687b      	ldr	r3, [r7, #4]
 80010f0:	681b      	ldr	r3, [r3, #0]
 80010f2:	430a      	orrs	r2, r1
 80010f4:	609a      	str	r2, [r3, #8]
  /* Enable external trigger if trigger selection is different of software  */
  /* start.                                                                 */
  /* Note: This configuration keeps the hardware feature of parameter       */
  /*       ExternalTrigConvEdge "trigger edge none" equivalent to           */
  /*       software start.                                                  */
  if(hadc->Init.ExternalTrigConv != ADC_SOFTWARE_START)
 80010f6:	687b      	ldr	r3, [r7, #4]
 80010f8:	6a9b      	ldr	r3, [r3, #40]	; 0x28
 80010fa:	4a58      	ldr	r2, [pc, #352]	; (800125c <ADC_Init+0x1f4>)
 80010fc:	4293      	cmp	r3, r2
 80010fe:	d022      	beq.n	8001146 <ADC_Init+0xde>
  {
    /* Select external trigger to start conversion */
    hadc->Instance->CR2 &= ~(ADC_CR2_EXTSEL);
 8001100:	687b      	ldr	r3, [r7, #4]
 8001102:	681b      	ldr	r3, [r3, #0]
 8001104:	689a      	ldr	r2, [r3, #8]
 8001106:	687b      	ldr	r3, [r7, #4]
 8001108:	681b      	ldr	r3, [r3, #0]
 800110a:	f022 6270 	bic.w	r2, r2, #251658240	; 0xf000000
 800110e:	609a      	str	r2, [r3, #8]
    hadc->Instance->CR2 |= hadc->Init.ExternalTrigConv;
 8001110:	687b      	ldr	r3, [r7, #4]
 8001112:	681b      	ldr	r3, [r3, #0]
 8001114:	6899      	ldr	r1, [r3, #8]
 8001116:	687b      	ldr	r3, [r7, #4]
 8001118:	6a9a      	ldr	r2, [r3, #40]	; 0x28
 800111a:	687b      	ldr	r3, [r7, #4]
 800111c:	681b      	ldr	r3, [r3, #0]
 800111e:	430a      	orrs	r2, r1
 8001120:	609a      	str	r2, [r3, #8]
    
    /* Select external trigger polarity */
    hadc->Instance->CR2 &= ~(ADC_CR2_EXTEN);
 8001122:	687b      	ldr	r3, [r7, #4]
 8001124:	681b      	ldr	r3, [r3, #0]
 8001126:	689a      	ldr	r2, [r3, #8]
 8001128:	687b      	ldr	r3, [r7, #4]
 800112a:	681b      	ldr	r3, [r3, #0]
 800112c:	f022 5240 	bic.w	r2, r2, #805306368	; 0x30000000
 8001130:	609a      	str	r2, [r3, #8]
    hadc->Instance->CR2 |= hadc->Init.ExternalTrigConvEdge;
 8001132:	687b      	ldr	r3, [r7, #4]
 8001134:	681b      	ldr	r3, [r3, #0]
 8001136:	6899      	ldr	r1, [r3, #8]
 8001138:	687b      	ldr	r3, [r7, #4]
 800113a:	6ada      	ldr	r2, [r3, #44]	; 0x2c
 800113c:	687b      	ldr	r3, [r7, #4]
 800113e:	681b      	ldr	r3, [r3, #0]
 8001140:	430a      	orrs	r2, r1
 8001142:	609a      	str	r2, [r3, #8]
 8001144:	e00f      	b.n	8001166 <ADC_Init+0xfe>
  }
  else
  {
    /* Reset the external trigger */
    hadc->Instance->CR2 &= ~(ADC_CR2_EXTSEL);
 8001146:	687b      	ldr	r3, [r7, #4]
 8001148:	681b      	ldr	r3, [r3, #0]
 800114a:	689a      	ldr	r2, [r3, #8]
 800114c:	687b      	ldr	r3, [r7, #4]
 800114e:	681b      	ldr	r3, [r3, #0]
 8001150:	f022 6270 	bic.w	r2, r2, #251658240	; 0xf000000
 8001154:	609a      	str	r2, [r3, #8]
    hadc->Instance->CR2 &= ~(ADC_CR2_EXTEN);
 8001156:	687b      	ldr	r3, [r7, #4]
 8001158:	681b      	ldr	r3, [r3, #0]
 800115a:	689a      	ldr	r2, [r3, #8]
 800115c:	687b      	ldr	r3, [r7, #4]
 800115e:	681b      	ldr	r3, [r3, #0]
 8001160:	f022 5240 	bic.w	r2, r2, #805306368	; 0x30000000
 8001164:	609a      	str	r2, [r3, #8]
  }
  
  /* Enable or disable ADC continuous conversion mode */
  hadc->Instance->CR2 &= ~(ADC_CR2_CONT);
 8001166:	687b      	ldr	r3, [r7, #4]
 8001168:	681b      	ldr	r3, [r3, #0]
 800116a:	689a      	ldr	r2, [r3, #8]
 800116c:	687b      	ldr	r3, [r7, #4]
 800116e:	681b      	ldr	r3, [r3, #0]
 8001170:	f022 0202 	bic.w	r2, r2, #2
 8001174:	609a      	str	r2, [r3, #8]
  hadc->Instance->CR2 |= ADC_CR2_CONTINUOUS((uint32_t)hadc->Init.ContinuousConvMode);
 8001176:	687b      	ldr	r3, [r7, #4]
 8001178:	681b      	ldr	r3, [r3, #0]
 800117a:	6899      	ldr	r1, [r3, #8]
 800117c:	687b      	ldr	r3, [r7, #4]
 800117e:	7e1b      	ldrb	r3, [r3, #24]
 8001180:	005a      	lsls	r2, r3, #1
 8001182:	687b      	ldr	r3, [r7, #4]
 8001184:	681b      	ldr	r3, [r3, #0]
 8001186:	430a      	orrs	r2, r1
 8001188:	609a      	str	r2, [r3, #8]
  
  if(hadc->Init.DiscontinuousConvMode != DISABLE)
 800118a:	687b      	ldr	r3, [r7, #4]
 800118c:	f893 3020 	ldrb.w	r3, [r3, #32]
 8001190:	2b00      	cmp	r3, #0
 8001192:	d01b      	beq.n	80011cc <ADC_Init+0x164>
  {
    assert_param(IS_ADC_REGULAR_DISC_NUMBER(hadc->Init.NbrOfDiscConversion));
  
    /* Enable the selected ADC regular discontinuous mode */
    hadc->Instance->CR1 |= (uint32_t)ADC_CR1_DISCEN;
 8001194:	687b      	ldr	r3, [r7, #4]
 8001196:	681b      	ldr	r3, [r3, #0]
 8001198:	685a      	ldr	r2, [r3, #4]
 800119a:	687b      	ldr	r3, [r7, #4]
 800119c:	681b      	ldr	r3, [r3, #0]
 800119e:	f442 6200 	orr.w	r2, r2, #2048	; 0x800
 80011a2:	605a      	str	r2, [r3, #4]
    
    /* Set the number of channels to be converted in discontinuous mode */
    hadc->Instance->CR1 &= ~(ADC_CR1_DISCNUM);
 80011a4:	687b      	ldr	r3, [r7, #4]
 80011a6:	681b      	ldr	r3, [r3, #0]
 80011a8:	685a      	ldr	r2, [r3, #4]
 80011aa:	687b      	ldr	r3, [r7, #4]
 80011ac:	681b      	ldr	r3, [r3, #0]
 80011ae:	f422 4260 	bic.w	r2, r2, #57344	; 0xe000
 80011b2:	605a      	str	r2, [r3, #4]
    hadc->Instance->CR1 |=  ADC_CR1_DISCONTINUOUS(hadc->Init.NbrOfDiscConversion);
 80011b4:	687b      	ldr	r3, [r7, #4]
 80011b6:	681b      	ldr	r3, [r3, #0]
 80011b8:	6859      	ldr	r1, [r3, #4]
 80011ba:	687b      	ldr	r3, [r7, #4]
 80011bc:	6a5b      	ldr	r3, [r3, #36]	; 0x24
 80011be:	3b01      	subs	r3, #1
 80011c0:	035a      	lsls	r2, r3, #13
 80011c2:	687b      	ldr	r3, [r7, #4]
 80011c4:	681b      	ldr	r3, [r3, #0]
 80011c6:	430a      	orrs	r2, r1
 80011c8:	605a      	str	r2, [r3, #4]
 80011ca:	e007      	b.n	80011dc <ADC_Init+0x174>
  }
  else
  {
    /* Disable the selected ADC regular discontinuous mode */
    hadc->Instance->CR1 &= ~(ADC_CR1_DISCEN);
 80011cc:	687b      	ldr	r3, [r7, #4]
 80011ce:	681b      	ldr	r3, [r3, #0]
 80011d0:	685a      	ldr	r2, [r3, #4]
 80011d2:	687b      	ldr	r3, [r7, #4]
 80011d4:	681b      	ldr	r3, [r3, #0]
 80011d6:	f422 6200 	bic.w	r2, r2, #2048	; 0x800
 80011da:	605a      	str	r2, [r3, #4]
  }
  
  /* Set ADC number of conversion */
  hadc->Instance->SQR1 &= ~(ADC_SQR1_L);
 80011dc:	687b      	ldr	r3, [r7, #4]
 80011de:	681b      	ldr	r3, [r3, #0]
 80011e0:	6ada      	ldr	r2, [r3, #44]	; 0x2c
 80011e2:	687b      	ldr	r3, [r7, #4]
 80011e4:	681b      	ldr	r3, [r3, #0]
 80011e6:	f422 0270 	bic.w	r2, r2, #15728640	; 0xf00000
 80011ea:	62da      	str	r2, [r3, #44]	; 0x2c
  hadc->Instance->SQR1 |=  ADC_SQR1(hadc->Init.NbrOfConversion);
 80011ec:	687b      	ldr	r3, [r7, #4]
 80011ee:	681b      	ldr	r3, [r3, #0]
 80011f0:	6ad9      	ldr	r1, [r3, #44]	; 0x2c
 80011f2:	687b      	ldr	r3, [r7, #4]
 80011f4:	69db      	ldr	r3, [r3, #28]
 80011f6:	3b01      	subs	r3, #1
 80011f8:	051a      	lsls	r2, r3, #20
 80011fa:	687b      	ldr	r3, [r7, #4]
 80011fc:	681b      	ldr	r3, [r3, #0]
 80011fe:	430a      	orrs	r2, r1
 8001200:	62da      	str	r2, [r3, #44]	; 0x2c
  
  /* Enable or disable ADC DMA continuous request */
  hadc->Instance->CR2 &= ~(ADC_CR2_DDS);
 8001202:	687b      	ldr	r3, [r7, #4]
 8001204:	681b      	ldr	r3, [r3, #0]
 8001206:	689a      	ldr	r2, [r3, #8]
 8001208:	687b      	ldr	r3, [r7, #4]
 800120a:	681b      	ldr	r3, [r3, #0]
 800120c:	f422 7200 	bic.w	r2, r2, #512	; 0x200
 8001210:	609a      	str	r2, [r3, #8]
  hadc->Instance->CR2 |= ADC_CR2_DMAContReq((uint32_t)hadc->Init.DMAContinuousRequests);
 8001212:	687b      	ldr	r3, [r7, #4]
 8001214:	681b      	ldr	r3, [r3, #0]
 8001216:	6899      	ldr	r1, [r3, #8]
 8001218:	687b      	ldr	r3, [r7, #4]
 800121a:	f893 3030 	ldrb.w	r3, [r3, #48]	; 0x30
 800121e:	025a      	lsls	r2, r3, #9
 8001220:	687b      	ldr	r3, [r7, #4]
 8001222:	681b      	ldr	r3, [r3, #0]
 8001224:	430a      	orrs	r2, r1
 8001226:	609a      	str	r2, [r3, #8]
  
  /* Enable or disable ADC end of conversion selection */
  hadc->Instance->CR2 &= ~(ADC_CR2_EOCS);
 8001228:	687b      	ldr	r3, [r7, #4]
 800122a:	681b      	ldr	r3, [r3, #0]
 800122c:	689a      	ldr	r2, [r3, #8]
 800122e:	687b      	ldr	r3, [r7, #4]
 8001230:	681b      	ldr	r3, [r3, #0]
 8001232:	f422 6280 	bic.w	r2, r2, #1024	; 0x400
 8001236:	609a      	str	r2, [r3, #8]
  hadc->Instance->CR2 |= ADC_CR2_EOCSelection(hadc->Init.EOCSelection);
 8001238:	687b      	ldr	r3, [r7, #4]
 800123a:	681b      	ldr	r3, [r3, #0]
 800123c:	6899      	ldr	r1, [r3, #8]
 800123e:	687b      	ldr	r3, [r7, #4]
 8001240:	695b      	ldr	r3, [r3, #20]
 8001242:	029a      	lsls	r2, r3, #10
 8001244:	687b      	ldr	r3, [r7, #4]
 8001246:	681b      	ldr	r3, [r3, #0]
 8001248:	430a      	orrs	r2, r1
 800124a:	609a      	str	r2, [r3, #8]
}
 800124c:	bf00      	nop
 800124e:	3714      	adds	r7, #20
 8001250:	46bd      	mov	sp, r7
 8001252:	f85d 7b04 	ldr.w	r7, [sp], #4
 8001256:	4770      	bx	lr
 8001258:	40012300 	.word	0x40012300
 800125c:	0f000001 	.word	0x0f000001

08001260 <ADC_DMAConvCplt>:
  * @param  hdma pointer to a DMA_HandleTypeDef structure that contains
  *                the configuration information for the specified DMA module.
  * @retval None
  */
static void ADC_DMAConvCplt(DMA_HandleTypeDef *hdma)   
{
 8001260:	b580      	push	{r7, lr}
 8001262:	b084      	sub	sp, #16
 8001264:	af00      	add	r7, sp, #0
 8001266:	6078      	str	r0, [r7, #4]
  /* Retrieve ADC handle corresponding to current DMA handle */
  ADC_HandleTypeDef* hadc = ( ADC_HandleTypeDef* )((DMA_HandleTypeDef* )hdma)->Parent;
 8001268:	687b      	ldr	r3, [r7, #4]
 800126a:	6b9b      	ldr	r3, [r3, #56]	; 0x38
 800126c:	60fb      	str	r3, [r7, #12]
  
  /* Update state machine on conversion status if not in error state */
  if (HAL_IS_BIT_CLR(hadc->State, HAL_ADC_STATE_ERROR_INTERNAL | HAL_ADC_STATE_ERROR_DMA))
 800126e:	68fb      	ldr	r3, [r7, #12]
 8001270:	6c1b      	ldr	r3, [r3, #64]	; 0x40
 8001272:	f003 0350 	and.w	r3, r3, #80	; 0x50
 8001276:	2b00      	cmp	r3, #0
 8001278:	d13c      	bne.n	80012f4 <ADC_DMAConvCplt+0x94>
  {
    /* Update ADC state machine */
    SET_BIT(hadc->State, HAL_ADC_STATE_REG_EOC);
 800127a:	68fb      	ldr	r3, [r7, #12]
 800127c:	6c1b      	ldr	r3, [r3, #64]	; 0x40
 800127e:	f443 7200 	orr.w	r2, r3, #512	; 0x200
 8001282:	68fb      	ldr	r3, [r7, #12]
 8001284:	641a      	str	r2, [r3, #64]	; 0x40
    /* by external trigger, continuous mode or scan sequence on going.      */
    /* Note: On STM32F4, there is no independent flag of end of sequence.   */
    /*       The test of scan sequence on going is done either with scan    */
    /*       sequence disabled or with end of conversion flag set to        */
    /*       of end of sequence.                                            */
    if(ADC_IS_SOFTWARE_START_REGULAR(hadc)                   &&
 8001286:	68fb      	ldr	r3, [r7, #12]
 8001288:	681b      	ldr	r3, [r3, #0]
 800128a:	689b      	ldr	r3, [r3, #8]
 800128c:	f003 5340 	and.w	r3, r3, #805306368	; 0x30000000
 8001290:	2b00      	cmp	r3, #0
 8001292:	d12b      	bne.n	80012ec <ADC_DMAConvCplt+0x8c>
       (hadc->Init.ContinuousConvMode == DISABLE)            &&
 8001294:	68fb      	ldr	r3, [r7, #12]
 8001296:	7e1b      	ldrb	r3, [r3, #24]
    if(ADC_IS_SOFTWARE_START_REGULAR(hadc)                   &&
 8001298:	2b00      	cmp	r3, #0
 800129a:	d127      	bne.n	80012ec <ADC_DMAConvCplt+0x8c>
       (HAL_IS_BIT_CLR(hadc->Instance->SQR1, ADC_SQR1_L) || 
 800129c:	68fb      	ldr	r3, [r7, #12]
 800129e:	681b      	ldr	r3, [r3, #0]
 80012a0:	6adb      	ldr	r3, [r3, #44]	; 0x2c
 80012a2:	f403 0370 	and.w	r3, r3, #15728640	; 0xf00000
       (hadc->Init.ContinuousConvMode == DISABLE)            &&
 80012a6:	2b00      	cmp	r3, #0
 80012a8:	d006      	beq.n	80012b8 <ADC_DMAConvCplt+0x58>
        HAL_IS_BIT_CLR(hadc->Instance->CR2, ADC_CR2_EOCS)  )   )
 80012aa:	68fb      	ldr	r3, [r7, #12]
 80012ac:	681b      	ldr	r3, [r3, #0]
 80012ae:	689b      	ldr	r3, [r3, #8]
 80012b0:	f403 6380 	and.w	r3, r3, #1024	; 0x400
       (HAL_IS_BIT_CLR(hadc->Instance->SQR1, ADC_SQR1_L) || 
 80012b4:	2b00      	cmp	r3, #0
 80012b6:	d119      	bne.n	80012ec <ADC_DMAConvCplt+0x8c>
    {
      /* Disable ADC end of single conversion interrupt on group regular */
      /* Note: Overrun interrupt was enabled with EOC interrupt in          */
      /* HAL_ADC_Start_IT(), but is not disabled here because can be used   */
      /* by overrun IRQ process below.                                      */
      __HAL_ADC_DISABLE_IT(hadc, ADC_IT_EOC);
 80012b8:	68fb      	ldr	r3, [r7, #12]
 80012ba:	681b      	ldr	r3, [r3, #0]
 80012bc:	685a      	ldr	r2, [r3, #4]
 80012be:	68fb      	ldr	r3, [r7, #12]
 80012c0:	681b      	ldr	r3, [r3, #0]
 80012c2:	f022 0220 	bic.w	r2, r2, #32
 80012c6:	605a      	str	r2, [r3, #4]
      
      /* Set ADC state */
      CLEAR_BIT(hadc->State, HAL_ADC_STATE_REG_BUSY);   
 80012c8:	68fb      	ldr	r3, [r7, #12]
 80012ca:	6c1b      	ldr	r3, [r3, #64]	; 0x40
 80012cc:	f423 7280 	bic.w	r2, r3, #256	; 0x100
 80012d0:	68fb      	ldr	r3, [r7, #12]
 80012d2:	641a      	str	r2, [r3, #64]	; 0x40
      
      if (HAL_IS_BIT_CLR(hadc->State, HAL_ADC_STATE_INJ_BUSY))
 80012d4:	68fb      	ldr	r3, [r7, #12]
 80012d6:	6c1b      	ldr	r3, [r3, #64]	; 0x40
 80012d8:	f403 5380 	and.w	r3, r3, #4096	; 0x1000
 80012dc:	2b00      	cmp	r3, #0
 80012de:	d105      	bne.n	80012ec <ADC_DMAConvCplt+0x8c>
      {
        SET_BIT(hadc->State, HAL_ADC_STATE_READY);
 80012e0:	68fb      	ldr	r3, [r7, #12]
 80012e2:	6c1b      	ldr	r3, [r3, #64]	; 0x40
 80012e4:	f043 0201 	orr.w	r2, r3, #1
 80012e8:	68fb      	ldr	r3, [r7, #12]
 80012ea:	641a      	str	r2, [r3, #64]	; 0x40
    
    /* Conversion complete callback */
#if (USE_HAL_ADC_REGISTER_CALLBACKS == 1)
    hadc->ConvCpltCallback(hadc);
#else
    HAL_ADC_ConvCpltCallback(hadc);
 80012ec:	68f8      	ldr	r0, [r7, #12]
 80012ee:	f7ff fd7b 	bl	8000de8 <HAL_ADC_ConvCpltCallback>
	{
      /* Call DMA error callback */
      hadc->DMA_Handle->XferErrorCallback(hdma);
    }
  }
}
 80012f2:	e00e      	b.n	8001312 <ADC_DMAConvCplt+0xb2>
    if ((hadc->State & HAL_ADC_STATE_ERROR_INTERNAL) != 0UL)
 80012f4:	68fb      	ldr	r3, [r7, #12]
 80012f6:	6c1b      	ldr	r3, [r3, #64]	; 0x40
 80012f8:	f003 0310 	and.w	r3, r3, #16
 80012fc:	2b00      	cmp	r3, #0
 80012fe:	d003      	beq.n	8001308 <ADC_DMAConvCplt+0xa8>
      HAL_ADC_ErrorCallback(hadc);
 8001300:	68f8      	ldr	r0, [r7, #12]
 8001302:	f7ff fd85 	bl	8000e10 <HAL_ADC_ErrorCallback>
}
 8001306:	e004      	b.n	8001312 <ADC_DMAConvCplt+0xb2>
      hadc->DMA_Handle->XferErrorCallback(hdma);
 8001308:	68fb      	ldr	r3, [r7, #12]
 800130a:	6b9b      	ldr	r3, [r3, #56]	; 0x38
 800130c:	6cdb      	ldr	r3, [r3, #76]	; 0x4c
 800130e:	6878      	ldr	r0, [r7, #4]
 8001310:	4798      	blx	r3
}
 8001312:	bf00      	nop
 8001314:	3710      	adds	r7, #16
 8001316:	46bd      	mov	sp, r7
 8001318:	bd80      	pop	{r7, pc}

0800131a <ADC_DMAHalfConvCplt>:
  * @param  hdma pointer to a DMA_HandleTypeDef structure that contains
  *                the configuration information for the specified DMA module.
  * @retval None
  */
static void ADC_DMAHalfConvCplt(DMA_HandleTypeDef *hdma)   
{
 800131a:	b580      	push	{r7, lr}
 800131c:	b084      	sub	sp, #16
 800131e:	af00      	add	r7, sp, #0
 8001320:	6078      	str	r0, [r7, #4]
  ADC_HandleTypeDef* hadc = ( ADC_HandleTypeDef* )((DMA_HandleTypeDef* )hdma)->Parent;
 8001322:	687b      	ldr	r3, [r7, #4]
 8001324:	6b9b      	ldr	r3, [r3, #56]	; 0x38
 8001326:	60fb      	str	r3, [r7, #12]
   /* Half conversion callback */
#if (USE_HAL_ADC_REGISTER_CALLBACKS == 1)
  hadc->ConvHalfCpltCallback(hadc);
#else
  HAL_ADC_ConvHalfCpltCallback(hadc);
 8001328:	68f8      	ldr	r0, [r7, #12]
 800132a:	f7ff fd67 	bl	8000dfc <HAL_ADC_ConvHalfCpltCallback>
#endif /* USE_HAL_ADC_REGISTER_CALLBACKS */
}
 800132e:	bf00      	nop
 8001330:	3710      	adds	r7, #16
 8001332:	46bd      	mov	sp, r7
 8001334:	bd80      	pop	{r7, pc}

08001336 <ADC_DMAError>:
  * @param  hdma pointer to a DMA_HandleTypeDef structure that contains
  *                the configuration information for the specified DMA module.
  * @retval None
  */
static void ADC_DMAError(DMA_HandleTypeDef *hdma)   
{
 8001336:	b580      	push	{r7, lr}
 8001338:	b084      	sub	sp, #16
 800133a:	af00      	add	r7, sp, #0
 800133c:	6078      	str	r0, [r7, #4]
  ADC_HandleTypeDef* hadc = ( ADC_HandleTypeDef* )((DMA_HandleTypeDef* )hdma)->Parent;
 800133e:	687b      	ldr	r3, [r7, #4]
 8001340:	6b9b      	ldr	r3, [r3, #56]	; 0x38
 8001342:	60fb      	str	r3, [r7, #12]
  hadc->State= HAL_ADC_STATE_ERROR_DMA;
 8001344:	68fb      	ldr	r3, [r7, #12]
 8001346:	2240      	movs	r2, #64	; 0x40
 8001348:	641a      	str	r2, [r3, #64]	; 0x40
  /* Set ADC error code to DMA error */
  hadc->ErrorCode |= HAL_ADC_ERROR_DMA;
 800134a:	68fb      	ldr	r3, [r7, #12]
 800134c:	6c5b      	ldr	r3, [r3, #68]	; 0x44
 800134e:	f043 0204 	orr.w	r2, r3, #4
 8001352:	68fb      	ldr	r3, [r7, #12]
 8001354:	645a      	str	r2, [r3, #68]	; 0x44
   /* Error callback */
#if (USE_HAL_ADC_REGISTER_CALLBACKS == 1)
  hadc->ErrorCallback(hadc);
#else
  HAL_ADC_ErrorCallback(hadc);
 8001356:	68f8      	ldr	r0, [r7, #12]
 8001358:	f7ff fd5a 	bl	8000e10 <HAL_ADC_ErrorCallback>
#endif /* USE_HAL_ADC_REGISTER_CALLBACKS */
}
 800135c:	bf00      	nop
 800135e:	3710      	adds	r7, #16
 8001360:	46bd      	mov	sp, r7
 8001362:	bd80      	pop	{r7, pc}

08001364 <__NVIC_SetPriorityGrouping>:
           In case of a conflict between priority grouping and available
           priority bits (__NVIC_PRIO_BITS), the smallest possible priority group is set.
  \param [in]      PriorityGroup  Priority grouping field.
 */
__STATIC_INLINE void __NVIC_SetPriorityGrouping(uint32_t PriorityGroup)
{
 8001364:	b480      	push	{r7}
 8001366:	b085      	sub	sp, #20
 8001368:	af00      	add	r7, sp, #0
 800136a:	6078      	str	r0, [r7, #4]
  uint32_t reg_value;
  uint32_t PriorityGroupTmp = (PriorityGroup & (uint32_t)0x07UL);             /* only values 0..7 are used          */
 800136c:	687b      	ldr	r3, [r7, #4]
 800136e:	f003 0307 	and.w	r3, r3, #7
 8001372:	60fb      	str	r3, [r7, #12]

  reg_value  =  SCB->AIRCR;                                                   /* read old register configuration    */
 8001374:	4b0c      	ldr	r3, [pc, #48]	; (80013a8 <__NVIC_SetPriorityGrouping+0x44>)
 8001376:	68db      	ldr	r3, [r3, #12]
 8001378:	60bb      	str	r3, [r7, #8]
  reg_value &= ~((uint32_t)(SCB_AIRCR_VECTKEY_Msk | SCB_AIRCR_PRIGROUP_Msk)); /* clear bits to change               */
 800137a:	68ba      	ldr	r2, [r7, #8]
 800137c:	f64f 03ff 	movw	r3, #63743	; 0xf8ff
 8001380:	4013      	ands	r3, r2
 8001382:	60bb      	str	r3, [r7, #8]
  reg_value  =  (reg_value                                   |
                ((uint32_t)0x5FAUL << SCB_AIRCR_VECTKEY_Pos) |
                (PriorityGroupTmp << SCB_AIRCR_PRIGROUP_Pos)  );              /* Insert write key and priority group */
 8001384:	68fb      	ldr	r3, [r7, #12]
 8001386:	021a      	lsls	r2, r3, #8
                ((uint32_t)0x5FAUL << SCB_AIRCR_VECTKEY_Pos) |
 8001388:	68bb      	ldr	r3, [r7, #8]
 800138a:	4313      	orrs	r3, r2
  reg_value  =  (reg_value                                   |
 800138c:	f043 63bf 	orr.w	r3, r3, #100139008	; 0x5f80000
 8001390:	f443 3300 	orr.w	r3, r3, #131072	; 0x20000
 8001394:	60bb      	str	r3, [r7, #8]
  SCB->AIRCR =  reg_value;
 8001396:	4a04      	ldr	r2, [pc, #16]	; (80013a8 <__NVIC_SetPriorityGrouping+0x44>)
 8001398:	68bb      	ldr	r3, [r7, #8]
 800139a:	60d3      	str	r3, [r2, #12]
}
 800139c:	bf00      	nop
 800139e:	3714      	adds	r7, #20
 80013a0:	46bd      	mov	sp, r7
 80013a2:	f85d 7b04 	ldr.w	r7, [sp], #4
 80013a6:	4770      	bx	lr
 80013a8:	e000ed00 	.word	0xe000ed00

080013ac <__NVIC_GetPriorityGrouping>:
  \brief   Get Priority Grouping
  \details Reads the priority grouping field from the NVIC Interrupt Controller.
  \return                Priority grouping field (SCB->AIRCR [10:8] PRIGROUP field).
 */
__STATIC_INLINE uint32_t __NVIC_GetPriorityGrouping(void)
{
 80013ac:	b480      	push	{r7}
 80013ae:	af00      	add	r7, sp, #0
  return ((uint32_t)((SCB->AIRCR & SCB_AIRCR_PRIGROUP_Msk) >> SCB_AIRCR_PRIGROUP_Pos));
 80013b0:	4b04      	ldr	r3, [pc, #16]	; (80013c4 <__NVIC_GetPriorityGrouping+0x18>)
 80013b2:	68db      	ldr	r3, [r3, #12]
 80013b4:	0a1b      	lsrs	r3, r3, #8
 80013b6:	f003 0307 	and.w	r3, r3, #7
}
 80013ba:	4618      	mov	r0, r3
 80013bc:	46bd      	mov	sp, r7
 80013be:	f85d 7b04 	ldr.w	r7, [sp], #4
 80013c2:	4770      	bx	lr
 80013c4:	e000ed00 	.word	0xe000ed00

080013c8 <__NVIC_EnableIRQ>:
  \details Enables a device specific interrupt in the NVIC interrupt controller.
  \param [in]      IRQn  Device specific interrupt number.
  \note    IRQn must not be negative.
 */
__STATIC_INLINE void __NVIC_EnableIRQ(IRQn_Type IRQn)
{
 80013c8:	b480      	push	{r7}
 80013ca:	b083      	sub	sp, #12
 80013cc:	af00      	add	r7, sp, #0
 80013ce:	4603      	mov	r3, r0
 80013d0:	71fb      	strb	r3, [r7, #7]
  if ((int32_t)(IRQn) >= 0)
 80013d2:	f997 3007 	ldrsb.w	r3, [r7, #7]
 80013d6:	2b00      	cmp	r3, #0
 80013d8:	db0b      	blt.n	80013f2 <__NVIC_EnableIRQ+0x2a>
  {
    NVIC->ISER[(((uint32_t)IRQn) >> 5UL)] = (uint32_t)(1UL << (((uint32_t)IRQn) & 0x1FUL));
 80013da:	79fb      	ldrb	r3, [r7, #7]
 80013dc:	f003 021f 	and.w	r2, r3, #31
 80013e0:	4907      	ldr	r1, [pc, #28]	; (8001400 <__NVIC_EnableIRQ+0x38>)
 80013e2:	f997 3007 	ldrsb.w	r3, [r7, #7]
 80013e6:	095b      	lsrs	r3, r3, #5
 80013e8:	2001      	movs	r0, #1
 80013ea:	fa00 f202 	lsl.w	r2, r0, r2
 80013ee:	f841 2023 	str.w	r2, [r1, r3, lsl #2]
  }
}
 80013f2:	bf00      	nop
 80013f4:	370c      	adds	r7, #12
 80013f6:	46bd      	mov	sp, r7
 80013f8:	f85d 7b04 	ldr.w	r7, [sp], #4
 80013fc:	4770      	bx	lr
 80013fe:	bf00      	nop
 8001400:	e000e100 	.word	0xe000e100

08001404 <__NVIC_SetPriority>:
  \param [in]      IRQn  Interrupt number.
  \param [in]  priority  Priority to set.
  \note    The priority cannot be set for every processor exception.
 */
__STATIC_INLINE void __NVIC_SetPriority(IRQn_Type IRQn, uint32_t priority)
{
 8001404:	b480      	push	{r7}
 8001406:	b083      	sub	sp, #12
 8001408:	af00      	add	r7, sp, #0
 800140a:	4603      	mov	r3, r0
 800140c:	6039      	str	r1, [r7, #0]
 800140e:	71fb      	strb	r3, [r7, #7]
  if ((int32_t)(IRQn) >= 0)
 8001410:	f997 3007 	ldrsb.w	r3, [r7, #7]
 8001414:	2b00      	cmp	r3, #0
 8001416:	db0a      	blt.n	800142e <__NVIC_SetPriority+0x2a>
  {
    NVIC->IP[((uint32_t)IRQn)]               = (uint8_t)((priority << (8U - __NVIC_PRIO_BITS)) & (uint32_t)0xFFUL);
 8001418:	683b      	ldr	r3, [r7, #0]
 800141a:	b2da      	uxtb	r2, r3
 800141c:	490c      	ldr	r1, [pc, #48]	; (8001450 <__NVIC_SetPriority+0x4c>)
 800141e:	f997 3007 	ldrsb.w	r3, [r7, #7]
 8001422:	0112      	lsls	r2, r2, #4
 8001424:	b2d2      	uxtb	r2, r2
 8001426:	440b      	add	r3, r1
 8001428:	f883 2300 	strb.w	r2, [r3, #768]	; 0x300
  }
  else
  {
    SCB->SHP[(((uint32_t)IRQn) & 0xFUL)-4UL] = (uint8_t)((priority << (8U - __NVIC_PRIO_BITS)) & (uint32_t)0xFFUL);
  }
}
 800142c:	e00a      	b.n	8001444 <__NVIC_SetPriority+0x40>
    SCB->SHP[(((uint32_t)IRQn) & 0xFUL)-4UL] = (uint8_t)((priority << (8U - __NVIC_PRIO_BITS)) & (uint32_t)0xFFUL);
 800142e:	683b      	ldr	r3, [r7, #0]
 8001430:	b2da      	uxtb	r2, r3
 8001432:	4908      	ldr	r1, [pc, #32]	; (8001454 <__NVIC_SetPriority+0x50>)
 8001434:	79fb      	ldrb	r3, [r7, #7]
 8001436:	f003 030f 	and.w	r3, r3, #15
 800143a:	3b04      	subs	r3, #4
 800143c:	0112      	lsls	r2, r2, #4
 800143e:	b2d2      	uxtb	r2, r2
 8001440:	440b      	add	r3, r1
 8001442:	761a      	strb	r2, [r3, #24]
}
 8001444:	bf00      	nop
 8001446:	370c      	adds	r7, #12
 8001448:	46bd      	mov	sp, r7
 800144a:	f85d 7b04 	ldr.w	r7, [sp], #4
 800144e:	4770      	bx	lr
 8001450:	e000e100 	.word	0xe000e100
 8001454:	e000ed00 	.word	0xe000ed00

08001458 <NVIC_EncodePriority>:
  \param [in]   PreemptPriority  Preemptive priority value (starting from 0).
  \param [in]       SubPriority  Subpriority value (starting from 0).
  \return                        Encoded priority. Value can be used in the function \ref NVIC_SetPriority().
 */
__STATIC_INLINE uint32_t NVIC_EncodePriority (uint32_t PriorityGroup, uint32_t PreemptPriority, uint32_t SubPriority)
{
 8001458:	b480      	push	{r7}
 800145a:	b089      	sub	sp, #36	; 0x24
 800145c:	af00      	add	r7, sp, #0
 800145e:	60f8      	str	r0, [r7, #12]
 8001460:	60b9      	str	r1, [r7, #8]
 8001462:	607a      	str	r2, [r7, #4]
  uint32_t PriorityGroupTmp = (PriorityGroup & (uint32_t)0x07UL);   /* only values 0..7 are used          */
 8001464:	68fb      	ldr	r3, [r7, #12]
 8001466:	f003 0307 	and.w	r3, r3, #7
 800146a:	61fb      	str	r3, [r7, #28]
  uint32_t PreemptPriorityBits;
  uint32_t SubPriorityBits;

  PreemptPriorityBits = ((7UL - PriorityGroupTmp) > (uint32_t)(__NVIC_PRIO_BITS)) ? (uint32_t)(__NVIC_PRIO_BITS) : (uint32_t)(7UL - PriorityGroupTmp);
 800146c:	69fb      	ldr	r3, [r7, #28]
 800146e:	f1c3 0307 	rsb	r3, r3, #7
 8001472:	2b04      	cmp	r3, #4
 8001474:	bf28      	it	cs
 8001476:	2304      	movcs	r3, #4
 8001478:	61bb      	str	r3, [r7, #24]
  SubPriorityBits     = ((PriorityGroupTmp + (uint32_t)(__NVIC_PRIO_BITS)) < (uint32_t)7UL) ? (uint32_t)0UL : (uint32_t)((PriorityGroupTmp - 7UL) + (uint32_t)(__NVIC_PRIO_BITS));
 800147a:	69fb      	ldr	r3, [r7, #28]
 800147c:	3304      	adds	r3, #4
 800147e:	2b06      	cmp	r3, #6
 8001480:	d902      	bls.n	8001488 <NVIC_EncodePriority+0x30>
 8001482:	69fb      	ldr	r3, [r7, #28]
 8001484:	3b03      	subs	r3, #3
 8001486:	e000      	b.n	800148a <NVIC_EncodePriority+0x32>
 8001488:	2300      	movs	r3, #0
 800148a:	617b      	str	r3, [r7, #20]

  return (
           ((PreemptPriority & (uint32_t)((1UL << (PreemptPriorityBits)) - 1UL)) << SubPriorityBits) |
 800148c:	f04f 32ff 	mov.w	r2, #4294967295
 8001490:	69bb      	ldr	r3, [r7, #24]
 8001492:	fa02 f303 	lsl.w	r3, r2, r3
 8001496:	43da      	mvns	r2, r3
 8001498:	68bb      	ldr	r3, [r7, #8]
 800149a:	401a      	ands	r2, r3
 800149c:	697b      	ldr	r3, [r7, #20]
 800149e:	409a      	lsls	r2, r3
           ((SubPriority     & (uint32_t)((1UL << (SubPriorityBits    )) - 1UL)))
 80014a0:	f04f 31ff 	mov.w	r1, #4294967295
 80014a4:	697b      	ldr	r3, [r7, #20]
 80014a6:	fa01 f303 	lsl.w	r3, r1, r3
 80014aa:	43d9      	mvns	r1, r3
 80014ac:	687b      	ldr	r3, [r7, #4]
 80014ae:	400b      	ands	r3, r1
           ((PreemptPriority & (uint32_t)((1UL << (PreemptPriorityBits)) - 1UL)) << SubPriorityBits) |
 80014b0:	4313      	orrs	r3, r2
         );
}
 80014b2:	4618      	mov	r0, r3
 80014b4:	3724      	adds	r7, #36	; 0x24
 80014b6:	46bd      	mov	sp, r7
 80014b8:	f85d 7b04 	ldr.w	r7, [sp], #4
 80014bc:	4770      	bx	lr
	...

080014c0 <SysTick_Config>:
  \note    When the variable <b>__Vendor_SysTickConfig</b> is set to 1, then the
           function <b>SysTick_Config</b> is not included. In this case, the file <b><i>device</i>.h</b>
           must contain a vendor-specific implementation of this function.
 */
__STATIC_INLINE uint32_t SysTick_Config(uint32_t ticks)
{
 80014c0:	b580      	push	{r7, lr}
 80014c2:	b082      	sub	sp, #8
 80014c4:	af00      	add	r7, sp, #0
 80014c6:	6078      	str	r0, [r7, #4]
  if ((ticks - 1UL) > SysTick_LOAD_RELOAD_Msk)
 80014c8:	687b      	ldr	r3, [r7, #4]
 80014ca:	3b01      	subs	r3, #1
 80014cc:	f1b3 7f80 	cmp.w	r3, #16777216	; 0x1000000
 80014d0:	d301      	bcc.n	80014d6 <SysTick_Config+0x16>
  {
    return (1UL);                                                   /* Reload value impossible */
 80014d2:	2301      	movs	r3, #1
 80014d4:	e00f      	b.n	80014f6 <SysTick_Config+0x36>
  }

  SysTick->LOAD  = (uint32_t)(ticks - 1UL);                         /* set reload register */
 80014d6:	4a0a      	ldr	r2, [pc, #40]	; (8001500 <SysTick_Config+0x40>)
 80014d8:	687b      	ldr	r3, [r7, #4]
 80014da:	3b01      	subs	r3, #1
 80014dc:	6053      	str	r3, [r2, #4]
  NVIC_SetPriority (SysTick_IRQn, (1UL << __NVIC_PRIO_BITS) - 1UL); /* set Priority for Systick Interrupt */
 80014de:	210f      	movs	r1, #15
 80014e0:	f04f 30ff 	mov.w	r0, #4294967295
 80014e4:	f7ff ff8e 	bl	8001404 <__NVIC_SetPriority>
  SysTick->VAL   = 0UL;                                             /* Load the SysTick Counter Value */
 80014e8:	4b05      	ldr	r3, [pc, #20]	; (8001500 <SysTick_Config+0x40>)
 80014ea:	2200      	movs	r2, #0
 80014ec:	609a      	str	r2, [r3, #8]
  SysTick->CTRL  = SysTick_CTRL_CLKSOURCE_Msk |
 80014ee:	4b04      	ldr	r3, [pc, #16]	; (8001500 <SysTick_Config+0x40>)
 80014f0:	2207      	movs	r2, #7
 80014f2:	601a      	str	r2, [r3, #0]
                   SysTick_CTRL_TICKINT_Msk   |
                   SysTick_CTRL_ENABLE_Msk;                         /* Enable SysTick IRQ and SysTick Timer */
  return (0UL);                                                     /* Function successful */
 80014f4:	2300      	movs	r3, #0
}
 80014f6:	4618      	mov	r0, r3
 80014f8:	3708      	adds	r7, #8
 80014fa:	46bd      	mov	sp, r7
 80014fc:	bd80      	pop	{r7, pc}
 80014fe:	bf00      	nop
 8001500:	e000e010 	.word	0xe000e010

08001504 <HAL_NVIC_SetPriorityGrouping>:
  * @note   When the NVIC_PriorityGroup_0 is selected, IRQ preemption is no more possible. 
  *         The pending IRQ priority will be managed only by the subpriority. 
  * @retval None
  */
void HAL_NVIC_SetPriorityGrouping(uint32_t PriorityGroup)
{
 8001504:	b580      	push	{r7, lr}
 8001506:	b082      	sub	sp, #8
 8001508:	af00      	add	r7, sp, #0
 800150a:	6078      	str	r0, [r7, #4]
  /* Check the parameters */
  assert_param(IS_NVIC_PRIORITY_GROUP(PriorityGroup));
  
  /* Set the PRIGROUP[10:8] bits according to the PriorityGroup parameter value */
  NVIC_SetPriorityGrouping(PriorityGroup);
 800150c:	6878      	ldr	r0, [r7, #4]
 800150e:	f7ff ff29 	bl	8001364 <__NVIC_SetPriorityGrouping>
}
 8001512:	bf00      	nop
 8001514:	3708      	adds	r7, #8
 8001516:	46bd      	mov	sp, r7
 8001518:	bd80      	pop	{r7, pc}

0800151a <HAL_NVIC_SetPriority>:
  *         This parameter can be a value between 0 and 15
  *         A lower priority value indicates a higher priority.          
  * @retval None
  */
void HAL_NVIC_SetPriority(IRQn_Type IRQn, uint32_t PreemptPriority, uint32_t SubPriority)
{ 
 800151a:	b580      	push	{r7, lr}
 800151c:	b086      	sub	sp, #24
 800151e:	af00      	add	r7, sp, #0
 8001520:	4603      	mov	r3, r0
 8001522:	60b9      	str	r1, [r7, #8]
 8001524:	607a      	str	r2, [r7, #4]
 8001526:	73fb      	strb	r3, [r7, #15]
  uint32_t prioritygroup = 0x00U;
 8001528:	2300      	movs	r3, #0
 800152a:	617b      	str	r3, [r7, #20]
  
  /* Check the parameters */
  assert_param(IS_NVIC_SUB_PRIORITY(SubPriority));
  assert_param(IS_NVIC_PREEMPTION_PRIORITY(PreemptPriority));
  
  prioritygroup = NVIC_GetPriorityGrouping();
 800152c:	f7ff ff3e 	bl	80013ac <__NVIC_GetPriorityGrouping>
 8001530:	6178      	str	r0, [r7, #20]
  
  NVIC_SetPriority(IRQn, NVIC_EncodePriority(prioritygroup, PreemptPriority, SubPriority));
 8001532:	687a      	ldr	r2, [r7, #4]
 8001534:	68b9      	ldr	r1, [r7, #8]
 8001536:	6978      	ldr	r0, [r7, #20]
 8001538:	f7ff ff8e 	bl	8001458 <NVIC_EncodePriority>
 800153c:	4602      	mov	r2, r0
 800153e:	f997 300f 	ldrsb.w	r3, [r7, #15]
 8001542:	4611      	mov	r1, r2
 8001544:	4618      	mov	r0, r3
 8001546:	f7ff ff5d 	bl	8001404 <__NVIC_SetPriority>
}
 800154a:	bf00      	nop
 800154c:	3718      	adds	r7, #24
 800154e:	46bd      	mov	sp, r7
 8001550:	bd80      	pop	{r7, pc}

08001552 <HAL_NVIC_EnableIRQ>:
  *         This parameter can be an enumerator of IRQn_Type enumeration
  *         (For the complete STM32 Devices IRQ Channels list, please refer to the appropriate CMSIS device file (stm32f4xxxx.h))
  * @retval None
  */
void HAL_NVIC_EnableIRQ(IRQn_Type IRQn)
{
 8001552:	b580      	push	{r7, lr}
 8001554:	b082      	sub	sp, #8
 8001556:	af00      	add	r7, sp, #0
 8001558:	4603      	mov	r3, r0
 800155a:	71fb      	strb	r3, [r7, #7]
  /* Check the parameters */
  assert_param(IS_NVIC_DEVICE_IRQ(IRQn));
  
  /* Enable interrupt */
  NVIC_EnableIRQ(IRQn);
 800155c:	f997 3007 	ldrsb.w	r3, [r7, #7]
 8001560:	4618      	mov	r0, r3
 8001562:	f7ff ff31 	bl	80013c8 <__NVIC_EnableIRQ>
}
 8001566:	bf00      	nop
 8001568:	3708      	adds	r7, #8
 800156a:	46bd      	mov	sp, r7
 800156c:	bd80      	pop	{r7, pc}

0800156e <HAL_SYSTICK_Config>:
  * @param  TicksNumb Specifies the ticks Number of ticks between two interrupts.
  * @retval status:  - 0  Function succeeded.
  *                  - 1  Function failed.
  */
uint32_t HAL_SYSTICK_Config(uint32_t TicksNumb)
{
 800156e:	b580      	push	{r7, lr}
 8001570:	b082      	sub	sp, #8
 8001572:	af00      	add	r7, sp, #0
 8001574:	6078      	str	r0, [r7, #4]
   return SysTick_Config(TicksNumb);
 8001576:	6878      	ldr	r0, [r7, #4]
 8001578:	f7ff ffa2 	bl	80014c0 <SysTick_Config>
 800157c:	4603      	mov	r3, r0
}
 800157e:	4618      	mov	r0, r3
 8001580:	3708      	adds	r7, #8
 8001582:	46bd      	mov	sp, r7
 8001584:	bd80      	pop	{r7, pc}
	...

08001588 <HAL_DMA_Init>:
  * @param  hdma Pointer to a DMA_HandleTypeDef structure that contains
  *               the configuration information for the specified DMA Stream.  
  * @retval HAL status
  */
HAL_StatusTypeDef HAL_DMA_Init(DMA_HandleTypeDef *hdma)
{
 8001588:	b580      	push	{r7, lr}
 800158a:	b086      	sub	sp, #24
 800158c:	af00      	add	r7, sp, #0
 800158e:	6078      	str	r0, [r7, #4]
  uint32_t tmp = 0U;
 8001590:	2300      	movs	r3, #0
 8001592:	617b      	str	r3, [r7, #20]
  uint32_t tickstart = HAL_GetTick();
 8001594:	f7ff fae8 	bl	8000b68 <HAL_GetTick>
 8001598:	6138      	str	r0, [r7, #16]
  DMA_Base_Registers *regs;

  /* Check the DMA peripheral state */
  if(hdma == NULL)
 800159a:	687b      	ldr	r3, [r7, #4]
 800159c:	2b00      	cmp	r3, #0
 800159e:	d101      	bne.n	80015a4 <HAL_DMA_Init+0x1c>
  {
    return HAL_ERROR;
 80015a0:	2301      	movs	r3, #1
 80015a2:	e099      	b.n	80016d8 <HAL_DMA_Init+0x150>
    assert_param(IS_DMA_MEMORY_BURST(hdma->Init.MemBurst));
    assert_param(IS_DMA_PERIPHERAL_BURST(hdma->Init.PeriphBurst));
  }

  /* Change DMA peripheral state */
  hdma->State = HAL_DMA_STATE_BUSY;
 80015a4:	687b      	ldr	r3, [r7, #4]
 80015a6:	2202      	movs	r2, #2
 80015a8:	f883 2035 	strb.w	r2, [r3, #53]	; 0x35

  /* Allocate lock resource */
  __HAL_UNLOCK(hdma);
 80015ac:	687b      	ldr	r3, [r7, #4]
 80015ae:	2200      	movs	r2, #0
 80015b0:	f883 2034 	strb.w	r2, [r3, #52]	; 0x34
  
  /* Disable the peripheral */
  __HAL_DMA_DISABLE(hdma);
 80015b4:	687b      	ldr	r3, [r7, #4]
 80015b6:	681b      	ldr	r3, [r3, #0]
 80015b8:	681a      	ldr	r2, [r3, #0]
 80015ba:	687b      	ldr	r3, [r7, #4]
 80015bc:	681b      	ldr	r3, [r3, #0]
 80015be:	f022 0201 	bic.w	r2, r2, #1
 80015c2:	601a      	str	r2, [r3, #0]
  
  /* Check if the DMA Stream is effectively disabled */
  while((hdma->Instance->CR & DMA_SxCR_EN) != RESET)
 80015c4:	e00f      	b.n	80015e6 <HAL_DMA_Init+0x5e>
  {
    /* Check for the Timeout */
    if((HAL_GetTick() - tickstart ) > HAL_TIMEOUT_DMA_ABORT)
 80015c6:	f7ff facf 	bl	8000b68 <HAL_GetTick>
 80015ca:	4602      	mov	r2, r0
 80015cc:	693b      	ldr	r3, [r7, #16]
 80015ce:	1ad3      	subs	r3, r2, r3
 80015d0:	2b05      	cmp	r3, #5
 80015d2:	d908      	bls.n	80015e6 <HAL_DMA_Init+0x5e>
    {
      /* Update error code */
      hdma->ErrorCode = HAL_DMA_ERROR_TIMEOUT;
 80015d4:	687b      	ldr	r3, [r7, #4]
 80015d6:	2220      	movs	r2, #32
 80015d8:	655a      	str	r2, [r3, #84]	; 0x54
      
      /* Change the DMA state */
      hdma->State = HAL_DMA_STATE_TIMEOUT;
 80015da:	687b      	ldr	r3, [r7, #4]
 80015dc:	2203      	movs	r2, #3
 80015de:	f883 2035 	strb.w	r2, [r3, #53]	; 0x35
      
      return HAL_TIMEOUT;
 80015e2:	2303      	movs	r3, #3
 80015e4:	e078      	b.n	80016d8 <HAL_DMA_Init+0x150>
  while((hdma->Instance->CR & DMA_SxCR_EN) != RESET)
 80015e6:	687b      	ldr	r3, [r7, #4]
 80015e8:	681b      	ldr	r3, [r3, #0]
 80015ea:	681b      	ldr	r3, [r3, #0]
 80015ec:	f003 0301 	and.w	r3, r3, #1
 80015f0:	2b00      	cmp	r3, #0
 80015f2:	d1e8      	bne.n	80015c6 <HAL_DMA_Init+0x3e>
    }
  }
  
  /* Get the CR register value */
  tmp = hdma->Instance->CR;
 80015f4:	687b      	ldr	r3, [r7, #4]
 80015f6:	681b      	ldr	r3, [r3, #0]
 80015f8:	681b      	ldr	r3, [r3, #0]
 80015fa:	617b      	str	r3, [r7, #20]

  /* Clear CHSEL, MBURST, PBURST, PL, MSIZE, PSIZE, MINC, PINC, CIRC, DIR, CT and DBM bits */
  tmp &= ((uint32_t)~(DMA_SxCR_CHSEL | DMA_SxCR_MBURST | DMA_SxCR_PBURST | \
 80015fc:	697a      	ldr	r2, [r7, #20]
 80015fe:	4b38      	ldr	r3, [pc, #224]	; (80016e0 <HAL_DMA_Init+0x158>)
 8001600:	4013      	ands	r3, r2
 8001602:	617b      	str	r3, [r7, #20]
                      DMA_SxCR_PL    | DMA_SxCR_MSIZE  | DMA_SxCR_PSIZE  | \
                      DMA_SxCR_MINC  | DMA_SxCR_PINC   | DMA_SxCR_CIRC   | \
                      DMA_SxCR_DIR   | DMA_SxCR_CT     | DMA_SxCR_DBM));

  /* Prepare the DMA Stream configuration */
  tmp |=  hdma->Init.Channel             | hdma->Init.Direction        |
 8001604:	687b      	ldr	r3, [r7, #4]
 8001606:	685a      	ldr	r2, [r3, #4]
 8001608:	687b      	ldr	r3, [r7, #4]
 800160a:	689b      	ldr	r3, [r3, #8]
 800160c:	431a      	orrs	r2, r3
          hdma->Init.PeriphInc           | hdma->Init.MemInc           |
 800160e:	687b      	ldr	r3, [r7, #4]
 8001610:	68db      	ldr	r3, [r3, #12]
  tmp |=  hdma->Init.Channel             | hdma->Init.Direction        |
 8001612:	431a      	orrs	r2, r3
          hdma->Init.PeriphInc           | hdma->Init.MemInc           |
 8001614:	687b      	ldr	r3, [r7, #4]
 8001616:	691b      	ldr	r3, [r3, #16]
 8001618:	431a      	orrs	r2, r3
          hdma->Init.PeriphDataAlignment | hdma->Init.MemDataAlignment |
 800161a:	687b      	ldr	r3, [r7, #4]
 800161c:	695b      	ldr	r3, [r3, #20]
          hdma->Init.PeriphInc           | hdma->Init.MemInc           |
 800161e:	431a      	orrs	r2, r3
          hdma->Init.PeriphDataAlignment | hdma->Init.MemDataAlignment |
 8001620:	687b      	ldr	r3, [r7, #4]
 8001622:	699b      	ldr	r3, [r3, #24]
 8001624:	431a      	orrs	r2, r3
          hdma->Init.Mode                | hdma->Init.Priority;
 8001626:	687b      	ldr	r3, [r7, #4]
 8001628:	69db      	ldr	r3, [r3, #28]
          hdma->Init.PeriphDataAlignment | hdma->Init.MemDataAlignment |
 800162a:	431a      	orrs	r2, r3
          hdma->Init.Mode                | hdma->Init.Priority;
 800162c:	687b      	ldr	r3, [r7, #4]
 800162e:	6a1b      	ldr	r3, [r3, #32]
 8001630:	4313      	orrs	r3, r2
  tmp |=  hdma->Init.Channel             | hdma->Init.Direction        |
 8001632:	697a      	ldr	r2, [r7, #20]
 8001634:	4313      	orrs	r3, r2
 8001636:	617b      	str	r3, [r7, #20]

  /* the Memory burst and peripheral burst are not used when the FIFO is disabled */
  if(hdma->Init.FIFOMode == DMA_FIFOMODE_ENABLE)
 8001638:	687b      	ldr	r3, [r7, #4]
 800163a:	6a5b      	ldr	r3, [r3, #36]	; 0x24
 800163c:	2b04      	cmp	r3, #4
 800163e:	d107      	bne.n	8001650 <HAL_DMA_Init+0xc8>
  {
    /* Get memory burst and peripheral burst */
    tmp |=  hdma->Init.MemBurst | hdma->Init.PeriphBurst;
 8001640:	687b      	ldr	r3, [r7, #4]
 8001642:	6ada      	ldr	r2, [r3, #44]	; 0x2c
 8001644:	687b      	ldr	r3, [r7, #4]
 8001646:	6b1b      	ldr	r3, [r3, #48]	; 0x30
 8001648:	4313      	orrs	r3, r2
 800164a:	697a      	ldr	r2, [r7, #20]
 800164c:	4313      	orrs	r3, r2
 800164e:	617b      	str	r3, [r7, #20]
  }
  
  /* Write to DMA Stream CR register */
  hdma->Instance->CR = tmp;  
 8001650:	687b      	ldr	r3, [r7, #4]
 8001652:	681b      	ldr	r3, [r3, #0]
 8001654:	697a      	ldr	r2, [r7, #20]
 8001656:	601a      	str	r2, [r3, #0]

  /* Get the FCR register value */
  tmp = hdma->Instance->FCR;
 8001658:	687b      	ldr	r3, [r7, #4]
 800165a:	681b      	ldr	r3, [r3, #0]
 800165c:	695b      	ldr	r3, [r3, #20]
 800165e:	617b      	str	r3, [r7, #20]

  /* Clear Direct mode and FIFO threshold bits */
  tmp &= (uint32_t)~(DMA_SxFCR_DMDIS | DMA_SxFCR_FTH);
 8001660:	697b      	ldr	r3, [r7, #20]
 8001662:	f023 0307 	bic.w	r3, r3, #7
 8001666:	617b      	str	r3, [r7, #20]

  /* Prepare the DMA Stream FIFO configuration */
  tmp |= hdma->Init.FIFOMode;
 8001668:	687b      	ldr	r3, [r7, #4]
 800166a:	6a5b      	ldr	r3, [r3, #36]	; 0x24
 800166c:	697a      	ldr	r2, [r7, #20]
 800166e:	4313      	orrs	r3, r2
 8001670:	617b      	str	r3, [r7, #20]

  /* The FIFO threshold is not used when the FIFO mode is disabled */
  if(hdma->Init.FIFOMode == DMA_FIFOMODE_ENABLE)
 8001672:	687b      	ldr	r3, [r7, #4]
 8001674:	6a5b      	ldr	r3, [r3, #36]	; 0x24
 8001676:	2b04      	cmp	r3, #4
 8001678:	d117      	bne.n	80016aa <HAL_DMA_Init+0x122>
  {
    /* Get the FIFO threshold */
    tmp |= hdma->Init.FIFOThreshold;
 800167a:	687b      	ldr	r3, [r7, #4]
 800167c:	6a9b      	ldr	r3, [r3, #40]	; 0x28
 800167e:	697a      	ldr	r2, [r7, #20]
 8001680:	4313      	orrs	r3, r2
 8001682:	617b      	str	r3, [r7, #20]
    
    /* Check compatibility between FIFO threshold level and size of the memory burst */
    /* for INCR4, INCR8, INCR16 bursts */
    if (hdma->Init.MemBurst != DMA_MBURST_SINGLE)
 8001684:	687b      	ldr	r3, [r7, #4]
 8001686:	6adb      	ldr	r3, [r3, #44]	; 0x2c
 8001688:	2b00      	cmp	r3, #0
 800168a:	d00e      	beq.n	80016aa <HAL_DMA_Init+0x122>
    {
      if (DMA_CheckFifoParam(hdma) != HAL_OK)
 800168c:	6878      	ldr	r0, [r7, #4]
 800168e:	f000 fa6f 	bl	8001b70 <DMA_CheckFifoParam>
 8001692:	4603      	mov	r3, r0
 8001694:	2b00      	cmp	r3, #0
 8001696:	d008      	beq.n	80016aa <HAL_DMA_Init+0x122>
      {
        /* Update error code */
        hdma->ErrorCode = HAL_DMA_ERROR_PARAM;
 8001698:	687b      	ldr	r3, [r7, #4]
 800169a:	2240      	movs	r2, #64	; 0x40
 800169c:	655a      	str	r2, [r3, #84]	; 0x54
        
        /* Change the DMA state */
        hdma->State = HAL_DMA_STATE_READY;
 800169e:	687b      	ldr	r3, [r7, #4]
 80016a0:	2201      	movs	r2, #1
 80016a2:	f883 2035 	strb.w	r2, [r3, #53]	; 0x35
        
        return HAL_ERROR; 
 80016a6:	2301      	movs	r3, #1
 80016a8:	e016      	b.n	80016d8 <HAL_DMA_Init+0x150>
      }
    }
  }
  
  /* Write to DMA Stream FCR */
  hdma->Instance->FCR = tmp;
 80016aa:	687b      	ldr	r3, [r7, #4]
 80016ac:	681b      	ldr	r3, [r3, #0]
 80016ae:	697a      	ldr	r2, [r7, #20]
 80016b0:	615a      	str	r2, [r3, #20]

  /* Initialize StreamBaseAddress and StreamIndex parameters to be used to calculate
     DMA steam Base Address needed by HAL_DMA_IRQHandler() and HAL_DMA_PollForTransfer() */
  regs = (DMA_Base_Registers *)DMA_CalcBaseAndBitshift(hdma);
 80016b2:	6878      	ldr	r0, [r7, #4]
 80016b4:	f000 fa26 	bl	8001b04 <DMA_CalcBaseAndBitshift>
 80016b8:	4603      	mov	r3, r0
 80016ba:	60fb      	str	r3, [r7, #12]
  
  /* Clear all interrupt flags */
  regs->IFCR = 0x3FU << hdma->StreamIndex;
 80016bc:	687b      	ldr	r3, [r7, #4]
 80016be:	6ddb      	ldr	r3, [r3, #92]	; 0x5c
 80016c0:	223f      	movs	r2, #63	; 0x3f
 80016c2:	409a      	lsls	r2, r3
 80016c4:	68fb      	ldr	r3, [r7, #12]
 80016c6:	609a      	str	r2, [r3, #8]

  /* Initialize the error code */
  hdma->ErrorCode = HAL_DMA_ERROR_NONE;
 80016c8:	687b      	ldr	r3, [r7, #4]
 80016ca:	2200      	movs	r2, #0
 80016cc:	655a      	str	r2, [r3, #84]	; 0x54
                                                                                     
  /* Initialize the DMA state */
  hdma->State = HAL_DMA_STATE_READY;
 80016ce:	687b      	ldr	r3, [r7, #4]
 80016d0:	2201      	movs	r2, #1
 80016d2:	f883 2035 	strb.w	r2, [r3, #53]	; 0x35

  return HAL_OK;
 80016d6:	2300      	movs	r3, #0
}
 80016d8:	4618      	mov	r0, r3
 80016da:	3718      	adds	r7, #24
 80016dc:	46bd      	mov	sp, r7
 80016de:	bd80      	pop	{r7, pc}
 80016e0:	f010803f 	.word	0xf010803f

080016e4 <HAL_DMA_Start_IT>:
  * @param  DstAddress The destination memory Buffer address
  * @param  DataLength The length of data to be transferred from source to destination
  * @retval HAL status
  */
HAL_StatusTypeDef HAL_DMA_Start_IT(DMA_HandleTypeDef *hdma, uint32_t SrcAddress, uint32_t DstAddress, uint32_t DataLength)
{
 80016e4:	b580      	push	{r7, lr}
 80016e6:	b086      	sub	sp, #24
 80016e8:	af00      	add	r7, sp, #0
 80016ea:	60f8      	str	r0, [r7, #12]
 80016ec:	60b9      	str	r1, [r7, #8]
 80016ee:	607a      	str	r2, [r7, #4]
 80016f0:	603b      	str	r3, [r7, #0]
  HAL_StatusTypeDef status = HAL_OK;
 80016f2:	2300      	movs	r3, #0
 80016f4:	75fb      	strb	r3, [r7, #23]

  /* calculate DMA base and stream number */
  DMA_Base_Registers *regs = (DMA_Base_Registers *)hdma->StreamBaseAddress;
 80016f6:	68fb      	ldr	r3, [r7, #12]
 80016f8:	6d9b      	ldr	r3, [r3, #88]	; 0x58
 80016fa:	613b      	str	r3, [r7, #16]
  
  /* Check the parameters */
  assert_param(IS_DMA_BUFFER_SIZE(DataLength));
 
  /* Process locked */
  __HAL_LOCK(hdma);
 80016fc:	68fb      	ldr	r3, [r7, #12]
 80016fe:	f893 3034 	ldrb.w	r3, [r3, #52]	; 0x34
 8001702:	2b01      	cmp	r3, #1
 8001704:	d101      	bne.n	800170a <HAL_DMA_Start_IT+0x26>
 8001706:	2302      	movs	r3, #2
 8001708:	e040      	b.n	800178c <HAL_DMA_Start_IT+0xa8>
 800170a:	68fb      	ldr	r3, [r7, #12]
 800170c:	2201      	movs	r2, #1
 800170e:	f883 2034 	strb.w	r2, [r3, #52]	; 0x34
  
  if(HAL_DMA_STATE_READY == hdma->State)
 8001712:	68fb      	ldr	r3, [r7, #12]
 8001714:	f893 3035 	ldrb.w	r3, [r3, #53]	; 0x35
 8001718:	b2db      	uxtb	r3, r3
 800171a:	2b01      	cmp	r3, #1
 800171c:	d12f      	bne.n	800177e <HAL_DMA_Start_IT+0x9a>
  {
    /* Change DMA peripheral state */
    hdma->State = HAL_DMA_STATE_BUSY;
 800171e:	68fb      	ldr	r3, [r7, #12]
 8001720:	2202      	movs	r2, #2
 8001722:	f883 2035 	strb.w	r2, [r3, #53]	; 0x35
    
    /* Initialize the error code */
    hdma->ErrorCode = HAL_DMA_ERROR_NONE;
 8001726:	68fb      	ldr	r3, [r7, #12]
 8001728:	2200      	movs	r2, #0
 800172a:	655a      	str	r2, [r3, #84]	; 0x54
    
    /* Configure the source, destination address and the data length */
    DMA_SetConfig(hdma, SrcAddress, DstAddress, DataLength);
 800172c:	683b      	ldr	r3, [r7, #0]
 800172e:	687a      	ldr	r2, [r7, #4]
 8001730:	68b9      	ldr	r1, [r7, #8]
 8001732:	68f8      	ldr	r0, [r7, #12]
 8001734:	f000 f9b8 	bl	8001aa8 <DMA_SetConfig>
    
    /* Clear all interrupt flags at correct offset within the register */
    regs->IFCR = 0x3FU << hdma->StreamIndex;
 8001738:	68fb      	ldr	r3, [r7, #12]
 800173a:	6ddb      	ldr	r3, [r3, #92]	; 0x5c
 800173c:	223f      	movs	r2, #63	; 0x3f
 800173e:	409a      	lsls	r2, r3
 8001740:	693b      	ldr	r3, [r7, #16]
 8001742:	609a      	str	r2, [r3, #8]
    
    /* Enable Common interrupts*/
    hdma->Instance->CR  |= DMA_IT_TC | DMA_IT_TE | DMA_IT_DME;
 8001744:	68fb      	ldr	r3, [r7, #12]
 8001746:	681b      	ldr	r3, [r3, #0]
 8001748:	681a      	ldr	r2, [r3, #0]
 800174a:	68fb      	ldr	r3, [r7, #12]
 800174c:	681b      	ldr	r3, [r3, #0]
 800174e:	f042 0216 	orr.w	r2, r2, #22
 8001752:	601a      	str	r2, [r3, #0]
    
    if(hdma->XferHalfCpltCallback != NULL)
 8001754:	68fb      	ldr	r3, [r7, #12]
 8001756:	6c1b      	ldr	r3, [r3, #64]	; 0x40
 8001758:	2b00      	cmp	r3, #0
 800175a:	d007      	beq.n	800176c <HAL_DMA_Start_IT+0x88>
    {
      hdma->Instance->CR  |= DMA_IT_HT;
 800175c:	68fb      	ldr	r3, [r7, #12]
 800175e:	681b      	ldr	r3, [r3, #0]
 8001760:	681a      	ldr	r2, [r3, #0]
 8001762:	68fb      	ldr	r3, [r7, #12]
 8001764:	681b      	ldr	r3, [r3, #0]
 8001766:	f042 0208 	orr.w	r2, r2, #8
 800176a:	601a      	str	r2, [r3, #0]
    }
    
    /* Enable the Peripheral */
    __HAL_DMA_ENABLE(hdma);
 800176c:	68fb      	ldr	r3, [r7, #12]
 800176e:	681b      	ldr	r3, [r3, #0]
 8001770:	681a      	ldr	r2, [r3, #0]
 8001772:	68fb      	ldr	r3, [r7, #12]
 8001774:	681b      	ldr	r3, [r3, #0]
 8001776:	f042 0201 	orr.w	r2, r2, #1
 800177a:	601a      	str	r2, [r3, #0]
 800177c:	e005      	b.n	800178a <HAL_DMA_Start_IT+0xa6>
  }
  else
  {
    /* Process unlocked */
    __HAL_UNLOCK(hdma);	  
 800177e:	68fb      	ldr	r3, [r7, #12]
 8001780:	2200      	movs	r2, #0
 8001782:	f883 2034 	strb.w	r2, [r3, #52]	; 0x34
    
    /* Return error status */
    status = HAL_BUSY;
 8001786:	2302      	movs	r3, #2
 8001788:	75fb      	strb	r3, [r7, #23]
  }
  
  return status;
 800178a:	7dfb      	ldrb	r3, [r7, #23]
}
 800178c:	4618      	mov	r0, r3
 800178e:	3718      	adds	r7, #24
 8001790:	46bd      	mov	sp, r7
 8001792:	bd80      	pop	{r7, pc}

08001794 <HAL_DMA_IRQHandler>:
  * @param  hdma pointer to a DMA_HandleTypeDef structure that contains
  *               the configuration information for the specified DMA Stream.  
  * @retval None
  */
void HAL_DMA_IRQHandler(DMA_HandleTypeDef *hdma)
{
 8001794:	b580      	push	{r7, lr}
 8001796:	b086      	sub	sp, #24
 8001798:	af00      	add	r7, sp, #0
 800179a:	6078      	str	r0, [r7, #4]
  uint32_t tmpisr;
  __IO uint32_t count = 0U;
 800179c:	2300      	movs	r3, #0
 800179e:	60bb      	str	r3, [r7, #8]
  uint32_t timeout = SystemCoreClock / 9600U;
 80017a0:	4b92      	ldr	r3, [pc, #584]	; (80019ec <HAL_DMA_IRQHandler+0x258>)
 80017a2:	681b      	ldr	r3, [r3, #0]
 80017a4:	4a92      	ldr	r2, [pc, #584]	; (80019f0 <HAL_DMA_IRQHandler+0x25c>)
 80017a6:	fba2 2303 	umull	r2, r3, r2, r3
 80017aa:	0a9b      	lsrs	r3, r3, #10
 80017ac:	617b      	str	r3, [r7, #20]

  /* calculate DMA base and stream number */
  DMA_Base_Registers *regs = (DMA_Base_Registers *)hdma->StreamBaseAddress;
 80017ae:	687b      	ldr	r3, [r7, #4]
 80017b0:	6d9b      	ldr	r3, [r3, #88]	; 0x58
 80017b2:	613b      	str	r3, [r7, #16]

  tmpisr = regs->ISR;
 80017b4:	693b      	ldr	r3, [r7, #16]
 80017b6:	681b      	ldr	r3, [r3, #0]
 80017b8:	60fb      	str	r3, [r7, #12]

  /* Transfer Error Interrupt management ***************************************/
  if ((tmpisr & (DMA_FLAG_TEIF0_4 << hdma->StreamIndex)) != RESET)
 80017ba:	687b      	ldr	r3, [r7, #4]
 80017bc:	6ddb      	ldr	r3, [r3, #92]	; 0x5c
 80017be:	2208      	movs	r2, #8
 80017c0:	409a      	lsls	r2, r3
 80017c2:	68fb      	ldr	r3, [r7, #12]
 80017c4:	4013      	ands	r3, r2
 80017c6:	2b00      	cmp	r3, #0
 80017c8:	d01a      	beq.n	8001800 <HAL_DMA_IRQHandler+0x6c>
  {
    if(__HAL_DMA_GET_IT_SOURCE(hdma, DMA_IT_TE) != RESET)
 80017ca:	687b      	ldr	r3, [r7, #4]
 80017cc:	681b      	ldr	r3, [r3, #0]
 80017ce:	681b      	ldr	r3, [r3, #0]
 80017d0:	f003 0304 	and.w	r3, r3, #4
 80017d4:	2b00      	cmp	r3, #0
 80017d6:	d013      	beq.n	8001800 <HAL_DMA_IRQHandler+0x6c>
    {
      /* Disable the transfer error interrupt */
      hdma->Instance->CR  &= ~(DMA_IT_TE);
 80017d8:	687b      	ldr	r3, [r7, #4]
 80017da:	681b      	ldr	r3, [r3, #0]
 80017dc:	681a      	ldr	r2, [r3, #0]
 80017de:	687b      	ldr	r3, [r7, #4]
 80017e0:	681b      	ldr	r3, [r3, #0]
 80017e2:	f022 0204 	bic.w	r2, r2, #4
 80017e6:	601a      	str	r2, [r3, #0]
      
      /* Clear the transfer error flag */
      regs->IFCR = DMA_FLAG_TEIF0_4 << hdma->StreamIndex;
 80017e8:	687b      	ldr	r3, [r7, #4]
 80017ea:	6ddb      	ldr	r3, [r3, #92]	; 0x5c
 80017ec:	2208      	movs	r2, #8
 80017ee:	409a      	lsls	r2, r3
 80017f0:	693b      	ldr	r3, [r7, #16]
 80017f2:	609a      	str	r2, [r3, #8]
      
      /* Update error code */
      hdma->ErrorCode |= HAL_DMA_ERROR_TE;
 80017f4:	687b      	ldr	r3, [r7, #4]
 80017f6:	6d5b      	ldr	r3, [r3, #84]	; 0x54
 80017f8:	f043 0201 	orr.w	r2, r3, #1
 80017fc:	687b      	ldr	r3, [r7, #4]
 80017fe:	655a      	str	r2, [r3, #84]	; 0x54
    }
  }
  /* FIFO Error Interrupt management ******************************************/
  if ((tmpisr & (DMA_FLAG_FEIF0_4 << hdma->StreamIndex)) != RESET)
 8001800:	687b      	ldr	r3, [r7, #4]
 8001802:	6ddb      	ldr	r3, [r3, #92]	; 0x5c
 8001804:	2201      	movs	r2, #1
 8001806:	409a      	lsls	r2, r3
 8001808:	68fb      	ldr	r3, [r7, #12]
 800180a:	4013      	ands	r3, r2
 800180c:	2b00      	cmp	r3, #0
 800180e:	d012      	beq.n	8001836 <HAL_DMA_IRQHandler+0xa2>
  {
    if(__HAL_DMA_GET_IT_SOURCE(hdma, DMA_IT_FE) != RESET)
 8001810:	687b      	ldr	r3, [r7, #4]
 8001812:	681b      	ldr	r3, [r3, #0]
 8001814:	695b      	ldr	r3, [r3, #20]
 8001816:	f003 0380 	and.w	r3, r3, #128	; 0x80
 800181a:	2b00      	cmp	r3, #0
 800181c:	d00b      	beq.n	8001836 <HAL_DMA_IRQHandler+0xa2>
    {
      /* Clear the FIFO error flag */
      regs->IFCR = DMA_FLAG_FEIF0_4 << hdma->StreamIndex;
 800181e:	687b      	ldr	r3, [r7, #4]
 8001820:	6ddb      	ldr	r3, [r3, #92]	; 0x5c
 8001822:	2201      	movs	r2, #1
 8001824:	409a      	lsls	r2, r3
 8001826:	693b      	ldr	r3, [r7, #16]
 8001828:	609a      	str	r2, [r3, #8]

      /* Update error code */
      hdma->ErrorCode |= HAL_DMA_ERROR_FE;
 800182a:	687b      	ldr	r3, [r7, #4]
 800182c:	6d5b      	ldr	r3, [r3, #84]	; 0x54
 800182e:	f043 0202 	orr.w	r2, r3, #2
 8001832:	687b      	ldr	r3, [r7, #4]
 8001834:	655a      	str	r2, [r3, #84]	; 0x54
    }
  }
  /* Direct Mode Error Interrupt management ***********************************/
  if ((tmpisr & (DMA_FLAG_DMEIF0_4 << hdma->StreamIndex)) != RESET)
 8001836:	687b      	ldr	r3, [r7, #4]
 8001838:	6ddb      	ldr	r3, [r3, #92]	; 0x5c
 800183a:	2204      	movs	r2, #4
 800183c:	409a      	lsls	r2, r3
 800183e:	68fb      	ldr	r3, [r7, #12]
 8001840:	4013      	ands	r3, r2
 8001842:	2b00      	cmp	r3, #0
 8001844:	d012      	beq.n	800186c <HAL_DMA_IRQHandler+0xd8>
  {
    if(__HAL_DMA_GET_IT_SOURCE(hdma, DMA_IT_DME) != RESET)
 8001846:	687b      	ldr	r3, [r7, #4]
 8001848:	681b      	ldr	r3, [r3, #0]
 800184a:	681b      	ldr	r3, [r3, #0]
 800184c:	f003 0302 	and.w	r3, r3, #2
 8001850:	2b00      	cmp	r3, #0
 8001852:	d00b      	beq.n	800186c <HAL_DMA_IRQHandler+0xd8>
    {
      /* Clear the direct mode error flag */
      regs->IFCR = DMA_FLAG_DMEIF0_4 << hdma->StreamIndex;
 8001854:	687b      	ldr	r3, [r7, #4]
 8001856:	6ddb      	ldr	r3, [r3, #92]	; 0x5c
 8001858:	2204      	movs	r2, #4
 800185a:	409a      	lsls	r2, r3
 800185c:	693b      	ldr	r3, [r7, #16]
 800185e:	609a      	str	r2, [r3, #8]

      /* Update error code */
      hdma->ErrorCode |= HAL_DMA_ERROR_DME;
 8001860:	687b      	ldr	r3, [r7, #4]
 8001862:	6d5b      	ldr	r3, [r3, #84]	; 0x54
 8001864:	f043 0204 	orr.w	r2, r3, #4
 8001868:	687b      	ldr	r3, [r7, #4]
 800186a:	655a      	str	r2, [r3, #84]	; 0x54
    }
  }
  /* Half Transfer Complete Interrupt management ******************************/
  if ((tmpisr & (DMA_FLAG_HTIF0_4 << hdma->StreamIndex)) != RESET)
 800186c:	687b      	ldr	r3, [r7, #4]
 800186e:	6ddb      	ldr	r3, [r3, #92]	; 0x5c
 8001870:	2210      	movs	r2, #16
 8001872:	409a      	lsls	r2, r3
 8001874:	68fb      	ldr	r3, [r7, #12]
 8001876:	4013      	ands	r3, r2
 8001878:	2b00      	cmp	r3, #0
 800187a:	d043      	beq.n	8001904 <HAL_DMA_IRQHandler+0x170>
  {
    if(__HAL_DMA_GET_IT_SOURCE(hdma, DMA_IT_HT) != RESET)
 800187c:	687b      	ldr	r3, [r7, #4]
 800187e:	681b      	ldr	r3, [r3, #0]
 8001880:	681b      	ldr	r3, [r3, #0]
 8001882:	f003 0308 	and.w	r3, r3, #8
 8001886:	2b00      	cmp	r3, #0
 8001888:	d03c      	beq.n	8001904 <HAL_DMA_IRQHandler+0x170>
    {
      /* Clear the half transfer complete flag */
      regs->IFCR = DMA_FLAG_HTIF0_4 << hdma->StreamIndex;
 800188a:	687b      	ldr	r3, [r7, #4]
 800188c:	6ddb      	ldr	r3, [r3, #92]	; 0x5c
 800188e:	2210      	movs	r2, #16
 8001890:	409a      	lsls	r2, r3
 8001892:	693b      	ldr	r3, [r7, #16]
 8001894:	609a      	str	r2, [r3, #8]
      
      /* Multi_Buffering mode enabled */
      if(((hdma->Instance->CR) & (uint32_t)(DMA_SxCR_DBM)) != RESET)
 8001896:	687b      	ldr	r3, [r7, #4]
 8001898:	681b      	ldr	r3, [r3, #0]
 800189a:	681b      	ldr	r3, [r3, #0]
 800189c:	f403 2380 	and.w	r3, r3, #262144	; 0x40000
 80018a0:	2b00      	cmp	r3, #0
 80018a2:	d018      	beq.n	80018d6 <HAL_DMA_IRQHandler+0x142>
      {
        /* Current memory buffer used is Memory 0 */
        if((hdma->Instance->CR & DMA_SxCR_CT) == RESET)
 80018a4:	687b      	ldr	r3, [r7, #4]
 80018a6:	681b      	ldr	r3, [r3, #0]
 80018a8:	681b      	ldr	r3, [r3, #0]
 80018aa:	f403 2300 	and.w	r3, r3, #524288	; 0x80000
 80018ae:	2b00      	cmp	r3, #0
 80018b0:	d108      	bne.n	80018c4 <HAL_DMA_IRQHandler+0x130>
        {
          if(hdma->XferHalfCpltCallback != NULL)
 80018b2:	687b      	ldr	r3, [r7, #4]
 80018b4:	6c1b      	ldr	r3, [r3, #64]	; 0x40
 80018b6:	2b00      	cmp	r3, #0
 80018b8:	d024      	beq.n	8001904 <HAL_DMA_IRQHandler+0x170>
          {
            /* Half transfer callback */
            hdma->XferHalfCpltCallback(hdma);
 80018ba:	687b      	ldr	r3, [r7, #4]
 80018bc:	6c1b      	ldr	r3, [r3, #64]	; 0x40
 80018be:	6878      	ldr	r0, [r7, #4]
 80018c0:	4798      	blx	r3
 80018c2:	e01f      	b.n	8001904 <HAL_DMA_IRQHandler+0x170>
          }
        }
        /* Current memory buffer used is Memory 1 */
        else
        {
          if(hdma->XferM1HalfCpltCallback != NULL)
 80018c4:	687b      	ldr	r3, [r7, #4]
 80018c6:	6c9b      	ldr	r3, [r3, #72]	; 0x48
 80018c8:	2b00      	cmp	r3, #0
 80018ca:	d01b      	beq.n	8001904 <HAL_DMA_IRQHandler+0x170>
          {
            /* Half transfer callback */
            hdma->XferM1HalfCpltCallback(hdma);
 80018cc:	687b      	ldr	r3, [r7, #4]
 80018ce:	6c9b      	ldr	r3, [r3, #72]	; 0x48
 80018d0:	6878      	ldr	r0, [r7, #4]
 80018d2:	4798      	blx	r3
 80018d4:	e016      	b.n	8001904 <HAL_DMA_IRQHandler+0x170>
        }
      }
      else
      {
        /* Disable the half transfer interrupt if the DMA mode is not CIRCULAR */
        if((hdma->Instance->CR & DMA_SxCR_CIRC) == RESET)
 80018d6:	687b      	ldr	r3, [r7, #4]
 80018d8:	681b      	ldr	r3, [r3, #0]
 80018da:	681b      	ldr	r3, [r3, #0]
 80018dc:	f403 7380 	and.w	r3, r3, #256	; 0x100
 80018e0:	2b00      	cmp	r3, #0
 80018e2:	d107      	bne.n	80018f4 <HAL_DMA_IRQHandler+0x160>
        {
          /* Disable the half transfer interrupt */
          hdma->Instance->CR  &= ~(DMA_IT_HT);
 80018e4:	687b      	ldr	r3, [r7, #4]
 80018e6:	681b      	ldr	r3, [r3, #0]
 80018e8:	681a      	ldr	r2, [r3, #0]
 80018ea:	687b      	ldr	r3, [r7, #4]
 80018ec:	681b      	ldr	r3, [r3, #0]
 80018ee:	f022 0208 	bic.w	r2, r2, #8
 80018f2:	601a      	str	r2, [r3, #0]
        }
        
        if(hdma->XferHalfCpltCallback != NULL)
 80018f4:	687b      	ldr	r3, [r7, #4]
 80018f6:	6c1b      	ldr	r3, [r3, #64]	; 0x40
 80018f8:	2b00      	cmp	r3, #0
 80018fa:	d003      	beq.n	8001904 <HAL_DMA_IRQHandler+0x170>
        {
          /* Half transfer callback */
          hdma->XferHalfCpltCallback(hdma);
 80018fc:	687b      	ldr	r3, [r7, #4]
 80018fe:	6c1b      	ldr	r3, [r3, #64]	; 0x40
 8001900:	6878      	ldr	r0, [r7, #4]
 8001902:	4798      	blx	r3
        }
      }
    }
  }
  /* Transfer Complete Interrupt management ***********************************/
  if ((tmpisr & (DMA_FLAG_TCIF0_4 << hdma->StreamIndex)) != RESET)
 8001904:	687b      	ldr	r3, [r7, #4]
 8001906:	6ddb      	ldr	r3, [r3, #92]	; 0x5c
 8001908:	2220      	movs	r2, #32
 800190a:	409a      	lsls	r2, r3
 800190c:	68fb      	ldr	r3, [r7, #12]
 800190e:	4013      	ands	r3, r2
 8001910:	2b00      	cmp	r3, #0
 8001912:	f000 808e 	beq.w	8001a32 <HAL_DMA_IRQHandler+0x29e>
  {
    if(__HAL_DMA_GET_IT_SOURCE(hdma, DMA_IT_TC) != RESET)
 8001916:	687b      	ldr	r3, [r7, #4]
 8001918:	681b      	ldr	r3, [r3, #0]
 800191a:	681b      	ldr	r3, [r3, #0]
 800191c:	f003 0310 	and.w	r3, r3, #16
 8001920:	2b00      	cmp	r3, #0
 8001922:	f000 8086 	beq.w	8001a32 <HAL_DMA_IRQHandler+0x29e>
    {
      /* Clear the transfer complete flag */
      regs->IFCR = DMA_FLAG_TCIF0_4 << hdma->StreamIndex;
 8001926:	687b      	ldr	r3, [r7, #4]
 8001928:	6ddb      	ldr	r3, [r3, #92]	; 0x5c
 800192a:	2220      	movs	r2, #32
 800192c:	409a      	lsls	r2, r3
 800192e:	693b      	ldr	r3, [r7, #16]
 8001930:	609a      	str	r2, [r3, #8]
      
      if(HAL_DMA_STATE_ABORT == hdma->State)
 8001932:	687b      	ldr	r3, [r7, #4]
 8001934:	f893 3035 	ldrb.w	r3, [r3, #53]	; 0x35
 8001938:	b2db      	uxtb	r3, r3
 800193a:	2b05      	cmp	r3, #5
 800193c:	d136      	bne.n	80019ac <HAL_DMA_IRQHandler+0x218>
      {
        /* Disable all the transfer interrupts */
        hdma->Instance->CR  &= ~(DMA_IT_TC | DMA_IT_TE | DMA_IT_DME);
 800193e:	687b      	ldr	r3, [r7, #4]
 8001940:	681b      	ldr	r3, [r3, #0]
 8001942:	681a      	ldr	r2, [r3, #0]
 8001944:	687b      	ldr	r3, [r7, #4]
 8001946:	681b      	ldr	r3, [r3, #0]
 8001948:	f022 0216 	bic.w	r2, r2, #22
 800194c:	601a      	str	r2, [r3, #0]
        hdma->Instance->FCR &= ~(DMA_IT_FE);
 800194e:	687b      	ldr	r3, [r7, #4]
 8001950:	681b      	ldr	r3, [r3, #0]
 8001952:	695a      	ldr	r2, [r3, #20]
 8001954:	687b      	ldr	r3, [r7, #4]
 8001956:	681b      	ldr	r3, [r3, #0]
 8001958:	f022 0280 	bic.w	r2, r2, #128	; 0x80
 800195c:	615a      	str	r2, [r3, #20]
        
        if((hdma->XferHalfCpltCallback != NULL) || (hdma->XferM1HalfCpltCallback != NULL))
 800195e:	687b      	ldr	r3, [r7, #4]
 8001960:	6c1b      	ldr	r3, [r3, #64]	; 0x40
 8001962:	2b00      	cmp	r3, #0
 8001964:	d103      	bne.n	800196e <HAL_DMA_IRQHandler+0x1da>
 8001966:	687b      	ldr	r3, [r7, #4]
 8001968:	6c9b      	ldr	r3, [r3, #72]	; 0x48
 800196a:	2b00      	cmp	r3, #0
 800196c:	d007      	beq.n	800197e <HAL_DMA_IRQHandler+0x1ea>
        {
          hdma->Instance->CR  &= ~(DMA_IT_HT);
 800196e:	687b      	ldr	r3, [r7, #4]
 8001970:	681b      	ldr	r3, [r3, #0]
 8001972:	681a      	ldr	r2, [r3, #0]
 8001974:	687b      	ldr	r3, [r7, #4]
 8001976:	681b      	ldr	r3, [r3, #0]
 8001978:	f022 0208 	bic.w	r2, r2, #8
 800197c:	601a      	str	r2, [r3, #0]
        }

        /* Clear all interrupt flags at correct offset within the register */
        regs->IFCR = 0x3FU << hdma->StreamIndex;
 800197e:	687b      	ldr	r3, [r7, #4]
 8001980:	6ddb      	ldr	r3, [r3, #92]	; 0x5c
 8001982:	223f      	movs	r2, #63	; 0x3f
 8001984:	409a      	lsls	r2, r3
 8001986:	693b      	ldr	r3, [r7, #16]
 8001988:	609a      	str	r2, [r3, #8]

        /* Change the DMA state */
        hdma->State = HAL_DMA_STATE_READY;
 800198a:	687b      	ldr	r3, [r7, #4]
 800198c:	2201      	movs	r2, #1
 800198e:	f883 2035 	strb.w	r2, [r3, #53]	; 0x35

        /* Process Unlocked */
        __HAL_UNLOCK(hdma);
 8001992:	687b      	ldr	r3, [r7, #4]
 8001994:	2200      	movs	r2, #0
 8001996:	f883 2034 	strb.w	r2, [r3, #52]	; 0x34

        if(hdma->XferAbortCallback != NULL)
 800199a:	687b      	ldr	r3, [r7, #4]
 800199c:	6d1b      	ldr	r3, [r3, #80]	; 0x50
 800199e:	2b00      	cmp	r3, #0
 80019a0:	d07d      	beq.n	8001a9e <HAL_DMA_IRQHandler+0x30a>
        {
          hdma->XferAbortCallback(hdma);
 80019a2:	687b      	ldr	r3, [r7, #4]
 80019a4:	6d1b      	ldr	r3, [r3, #80]	; 0x50
 80019a6:	6878      	ldr	r0, [r7, #4]
 80019a8:	4798      	blx	r3
        }
        return;
 80019aa:	e078      	b.n	8001a9e <HAL_DMA_IRQHandler+0x30a>
      }

      if(((hdma->Instance->CR) & (uint32_t)(DMA_SxCR_DBM)) != RESET)
 80019ac:	687b      	ldr	r3, [r7, #4]
 80019ae:	681b      	ldr	r3, [r3, #0]
 80019b0:	681b      	ldr	r3, [r3, #0]
 80019b2:	f403 2380 	and.w	r3, r3, #262144	; 0x40000
 80019b6:	2b00      	cmp	r3, #0
 80019b8:	d01c      	beq.n	80019f4 <HAL_DMA_IRQHandler+0x260>
      {
        /* Current memory buffer used is Memory 0 */
        if((hdma->Instance->CR & DMA_SxCR_CT) == RESET)
 80019ba:	687b      	ldr	r3, [r7, #4]
 80019bc:	681b      	ldr	r3, [r3, #0]
 80019be:	681b      	ldr	r3, [r3, #0]
 80019c0:	f403 2300 	and.w	r3, r3, #524288	; 0x80000
 80019c4:	2b00      	cmp	r3, #0
 80019c6:	d108      	bne.n	80019da <HAL_DMA_IRQHandler+0x246>
        {
          if(hdma->XferM1CpltCallback != NULL)
 80019c8:	687b      	ldr	r3, [r7, #4]
 80019ca:	6c5b      	ldr	r3, [r3, #68]	; 0x44
 80019cc:	2b00      	cmp	r3, #0
 80019ce:	d030      	beq.n	8001a32 <HAL_DMA_IRQHandler+0x29e>
          {
            /* Transfer complete Callback for memory1 */
            hdma->XferM1CpltCallback(hdma);
 80019d0:	687b      	ldr	r3, [r7, #4]
 80019d2:	6c5b      	ldr	r3, [r3, #68]	; 0x44
 80019d4:	6878      	ldr	r0, [r7, #4]
 80019d6:	4798      	blx	r3
 80019d8:	e02b      	b.n	8001a32 <HAL_DMA_IRQHandler+0x29e>
          }
        }
        /* Current memory buffer used is Memory 1 */
        else
        {
          if(hdma->XferCpltCallback != NULL)
 80019da:	687b      	ldr	r3, [r7, #4]
 80019dc:	6bdb      	ldr	r3, [r3, #60]	; 0x3c
 80019de:	2b00      	cmp	r3, #0
 80019e0:	d027      	beq.n	8001a32 <HAL_DMA_IRQHandler+0x29e>
          {
            /* Transfer complete Callback for memory0 */
            hdma->XferCpltCallback(hdma);
 80019e2:	687b      	ldr	r3, [r7, #4]
 80019e4:	6bdb      	ldr	r3, [r3, #60]	; 0x3c
 80019e6:	6878      	ldr	r0, [r7, #4]
 80019e8:	4798      	blx	r3
 80019ea:	e022      	b.n	8001a32 <HAL_DMA_IRQHandler+0x29e>
 80019ec:	20000000 	.word	0x20000000
 80019f0:	1b4e81b5 	.word	0x1b4e81b5
        }
      }
      /* Disable the transfer complete interrupt if the DMA mode is not CIRCULAR */
      else
      {
        if((hdma->Instance->CR & DMA_SxCR_CIRC) == RESET)
 80019f4:	687b      	ldr	r3, [r7, #4]
 80019f6:	681b      	ldr	r3, [r3, #0]
 80019f8:	681b      	ldr	r3, [r3, #0]
 80019fa:	f403 7380 	and.w	r3, r3, #256	; 0x100
 80019fe:	2b00      	cmp	r3, #0
 8001a00:	d10f      	bne.n	8001a22 <HAL_DMA_IRQHandler+0x28e>
        {
          /* Disable the transfer complete interrupt */
          hdma->Instance->CR  &= ~(DMA_IT_TC);
 8001a02:	687b      	ldr	r3, [r7, #4]
 8001a04:	681b      	ldr	r3, [r3, #0]
 8001a06:	681a      	ldr	r2, [r3, #0]
 8001a08:	687b      	ldr	r3, [r7, #4]
 8001a0a:	681b      	ldr	r3, [r3, #0]
 8001a0c:	f022 0210 	bic.w	r2, r2, #16
 8001a10:	601a      	str	r2, [r3, #0]

          /* Change the DMA state */
          hdma->State = HAL_DMA_STATE_READY;
 8001a12:	687b      	ldr	r3, [r7, #4]
 8001a14:	2201      	movs	r2, #1
 8001a16:	f883 2035 	strb.w	r2, [r3, #53]	; 0x35

          /* Process Unlocked */
          __HAL_UNLOCK(hdma);
 8001a1a:	687b      	ldr	r3, [r7, #4]
 8001a1c:	2200      	movs	r2, #0
 8001a1e:	f883 2034 	strb.w	r2, [r3, #52]	; 0x34
        }

        if(hdma->XferCpltCallback != NULL)
 8001a22:	687b      	ldr	r3, [r7, #4]
 8001a24:	6bdb      	ldr	r3, [r3, #60]	; 0x3c
 8001a26:	2b00      	cmp	r3, #0
 8001a28:	d003      	beq.n	8001a32 <HAL_DMA_IRQHandler+0x29e>
        {
          /* Transfer complete callback */
          hdma->XferCpltCallback(hdma);
 8001a2a:	687b      	ldr	r3, [r7, #4]
 8001a2c:	6bdb      	ldr	r3, [r3, #60]	; 0x3c
 8001a2e:	6878      	ldr	r0, [r7, #4]
 8001a30:	4798      	blx	r3
      }
    }
  }
  
  /* manage error case */
  if(hdma->ErrorCode != HAL_DMA_ERROR_NONE)
 8001a32:	687b      	ldr	r3, [r7, #4]
 8001a34:	6d5b      	ldr	r3, [r3, #84]	; 0x54
 8001a36:	2b00      	cmp	r3, #0
 8001a38:	d032      	beq.n	8001aa0 <HAL_DMA_IRQHandler+0x30c>
  {
    if((hdma->ErrorCode & HAL_DMA_ERROR_TE) != RESET)
 8001a3a:	687b      	ldr	r3, [r7, #4]
 8001a3c:	6d5b      	ldr	r3, [r3, #84]	; 0x54
 8001a3e:	f003 0301 	and.w	r3, r3, #1
 8001a42:	2b00      	cmp	r3, #0
 8001a44:	d022      	beq.n	8001a8c <HAL_DMA_IRQHandler+0x2f8>
    {
      hdma->State = HAL_DMA_STATE_ABORT;
 8001a46:	687b      	ldr	r3, [r7, #4]
 8001a48:	2205      	movs	r2, #5
 8001a4a:	f883 2035 	strb.w	r2, [r3, #53]	; 0x35

      /* Disable the stream */
      __HAL_DMA_DISABLE(hdma);
 8001a4e:	687b      	ldr	r3, [r7, #4]
 8001a50:	681b      	ldr	r3, [r3, #0]
 8001a52:	681a      	ldr	r2, [r3, #0]
 8001a54:	687b      	ldr	r3, [r7, #4]
 8001a56:	681b      	ldr	r3, [r3, #0]
 8001a58:	f022 0201 	bic.w	r2, r2, #1
 8001a5c:	601a      	str	r2, [r3, #0]

      do
      {
        if (++count > timeout)
 8001a5e:	68bb      	ldr	r3, [r7, #8]
 8001a60:	3301      	adds	r3, #1
 8001a62:	60bb      	str	r3, [r7, #8]
 8001a64:	697a      	ldr	r2, [r7, #20]
 8001a66:	429a      	cmp	r2, r3
 8001a68:	d307      	bcc.n	8001a7a <HAL_DMA_IRQHandler+0x2e6>
        {
          break;
        }
      }
      while((hdma->Instance->CR & DMA_SxCR_EN) != RESET);
 8001a6a:	687b      	ldr	r3, [r7, #4]
 8001a6c:	681b      	ldr	r3, [r3, #0]
 8001a6e:	681b      	ldr	r3, [r3, #0]
 8001a70:	f003 0301 	and.w	r3, r3, #1
 8001a74:	2b00      	cmp	r3, #0
 8001a76:	d1f2      	bne.n	8001a5e <HAL_DMA_IRQHandler+0x2ca>
 8001a78:	e000      	b.n	8001a7c <HAL_DMA_IRQHandler+0x2e8>
          break;
 8001a7a:	bf00      	nop

      /* Change the DMA state */
      hdma->State = HAL_DMA_STATE_READY;
 8001a7c:	687b      	ldr	r3, [r7, #4]
 8001a7e:	2201      	movs	r2, #1
 8001a80:	f883 2035 	strb.w	r2, [r3, #53]	; 0x35

      /* Process Unlocked */
      __HAL_UNLOCK(hdma);
 8001a84:	687b      	ldr	r3, [r7, #4]
 8001a86:	2200      	movs	r2, #0
 8001a88:	f883 2034 	strb.w	r2, [r3, #52]	; 0x34
    }

    if(hdma->XferErrorCallback != NULL)
 8001a8c:	687b      	ldr	r3, [r7, #4]
 8001a8e:	6cdb      	ldr	r3, [r3, #76]	; 0x4c
 8001a90:	2b00      	cmp	r3, #0
 8001a92:	d005      	beq.n	8001aa0 <HAL_DMA_IRQHandler+0x30c>
    {
      /* Transfer error callback */
      hdma->XferErrorCallback(hdma);
 8001a94:	687b      	ldr	r3, [r7, #4]
 8001a96:	6cdb      	ldr	r3, [r3, #76]	; 0x4c
 8001a98:	6878      	ldr	r0, [r7, #4]
 8001a9a:	4798      	blx	r3
 8001a9c:	e000      	b.n	8001aa0 <HAL_DMA_IRQHandler+0x30c>
        return;
 8001a9e:	bf00      	nop
    }
  }
}
 8001aa0:	3718      	adds	r7, #24
 8001aa2:	46bd      	mov	sp, r7
 8001aa4:	bd80      	pop	{r7, pc}
 8001aa6:	bf00      	nop

08001aa8 <DMA_SetConfig>:
  * @param  DstAddress The destination memory Buffer address
  * @param  DataLength The length of data to be transferred from source to destination
  * @retval HAL status
  */
static void DMA_SetConfig(DMA_HandleTypeDef *hdma, uint32_t SrcAddress, uint32_t DstAddress, uint32_t DataLength)
{
 8001aa8:	b480      	push	{r7}
 8001aaa:	b085      	sub	sp, #20
 8001aac:	af00      	add	r7, sp, #0
 8001aae:	60f8      	str	r0, [r7, #12]
 8001ab0:	60b9      	str	r1, [r7, #8]
 8001ab2:	607a      	str	r2, [r7, #4]
 8001ab4:	603b      	str	r3, [r7, #0]
  /* Clear DBM bit */
  hdma->Instance->CR &= (uint32_t)(~DMA_SxCR_DBM);
 8001ab6:	68fb      	ldr	r3, [r7, #12]
 8001ab8:	681b      	ldr	r3, [r3, #0]
 8001aba:	681a      	ldr	r2, [r3, #0]
 8001abc:	68fb      	ldr	r3, [r7, #12]
 8001abe:	681b      	ldr	r3, [r3, #0]
 8001ac0:	f422 2280 	bic.w	r2, r2, #262144	; 0x40000
 8001ac4:	601a      	str	r2, [r3, #0]

  /* Configure DMA Stream data length */
  hdma->Instance->NDTR = DataLength;
 8001ac6:	68fb      	ldr	r3, [r7, #12]
 8001ac8:	681b      	ldr	r3, [r3, #0]
 8001aca:	683a      	ldr	r2, [r7, #0]
 8001acc:	605a      	str	r2, [r3, #4]

  /* Memory to Peripheral */
  if((hdma->Init.Direction) == DMA_MEMORY_TO_PERIPH)
 8001ace:	68fb      	ldr	r3, [r7, #12]
 8001ad0:	689b      	ldr	r3, [r3, #8]
 8001ad2:	2b40      	cmp	r3, #64	; 0x40
 8001ad4:	d108      	bne.n	8001ae8 <DMA_SetConfig+0x40>
  {
    /* Configure DMA Stream destination address */
    hdma->Instance->PAR = DstAddress;
 8001ad6:	68fb      	ldr	r3, [r7, #12]
 8001ad8:	681b      	ldr	r3, [r3, #0]
 8001ada:	687a      	ldr	r2, [r7, #4]
 8001adc:	609a      	str	r2, [r3, #8]

    /* Configure DMA Stream source address */
    hdma->Instance->M0AR = SrcAddress;
 8001ade:	68fb      	ldr	r3, [r7, #12]
 8001ae0:	681b      	ldr	r3, [r3, #0]
 8001ae2:	68ba      	ldr	r2, [r7, #8]
 8001ae4:	60da      	str	r2, [r3, #12]
    hdma->Instance->PAR = SrcAddress;

    /* Configure DMA Stream destination address */
    hdma->Instance->M0AR = DstAddress;
  }
}
 8001ae6:	e007      	b.n	8001af8 <DMA_SetConfig+0x50>
    hdma->Instance->PAR = SrcAddress;
 8001ae8:	68fb      	ldr	r3, [r7, #12]
 8001aea:	681b      	ldr	r3, [r3, #0]
 8001aec:	68ba      	ldr	r2, [r7, #8]
 8001aee:	609a      	str	r2, [r3, #8]
    hdma->Instance->M0AR = DstAddress;
 8001af0:	68fb      	ldr	r3, [r7, #12]
 8001af2:	681b      	ldr	r3, [r3, #0]
 8001af4:	687a      	ldr	r2, [r7, #4]
 8001af6:	60da      	str	r2, [r3, #12]
}
 8001af8:	bf00      	nop
 8001afa:	3714      	adds	r7, #20
 8001afc:	46bd      	mov	sp, r7
 8001afe:	f85d 7b04 	ldr.w	r7, [sp], #4
 8001b02:	4770      	bx	lr

08001b04 <DMA_CalcBaseAndBitshift>:
  * @param  hdma       pointer to a DMA_HandleTypeDef structure that contains
  *                     the configuration information for the specified DMA Stream. 
  * @retval Stream base address
  */
static uint32_t DMA_CalcBaseAndBitshift(DMA_HandleTypeDef *hdma)
{
 8001b04:	b480      	push	{r7}
 8001b06:	b085      	sub	sp, #20
 8001b08:	af00      	add	r7, sp, #0
 8001b0a:	6078      	str	r0, [r7, #4]
  uint32_t stream_number = (((uint32_t)hdma->Instance & 0xFFU) - 16U) / 24U;
 8001b0c:	687b      	ldr	r3, [r7, #4]
 8001b0e:	681b      	ldr	r3, [r3, #0]
 8001b10:	b2db      	uxtb	r3, r3
 8001b12:	3b10      	subs	r3, #16
 8001b14:	4a14      	ldr	r2, [pc, #80]	; (8001b68 <DMA_CalcBaseAndBitshift+0x64>)
 8001b16:	fba2 2303 	umull	r2, r3, r2, r3
 8001b1a:	091b      	lsrs	r3, r3, #4
 8001b1c:	60fb      	str	r3, [r7, #12]
  
  /* lookup table for necessary bitshift of flags within status registers */
  static const uint8_t flagBitshiftOffset[8U] = {0U, 6U, 16U, 22U, 0U, 6U, 16U, 22U};
  hdma->StreamIndex = flagBitshiftOffset[stream_number];
 8001b1e:	4a13      	ldr	r2, [pc, #76]	; (8001b6c <DMA_CalcBaseAndBitshift+0x68>)
 8001b20:	68fb      	ldr	r3, [r7, #12]
 8001b22:	4413      	add	r3, r2
 8001b24:	781b      	ldrb	r3, [r3, #0]
 8001b26:	461a      	mov	r2, r3
 8001b28:	687b      	ldr	r3, [r7, #4]
 8001b2a:	65da      	str	r2, [r3, #92]	; 0x5c
  
  if (stream_number > 3U)
 8001b2c:	68fb      	ldr	r3, [r7, #12]
 8001b2e:	2b03      	cmp	r3, #3
 8001b30:	d909      	bls.n	8001b46 <DMA_CalcBaseAndBitshift+0x42>
  {
    /* return pointer to HISR and HIFCR */
    hdma->StreamBaseAddress = (((uint32_t)hdma->Instance & (uint32_t)(~0x3FFU)) + 4U);
 8001b32:	687b      	ldr	r3, [r7, #4]
 8001b34:	681b      	ldr	r3, [r3, #0]
 8001b36:	f423 737f 	bic.w	r3, r3, #1020	; 0x3fc
 8001b3a:	f023 0303 	bic.w	r3, r3, #3
 8001b3e:	1d1a      	adds	r2, r3, #4
 8001b40:	687b      	ldr	r3, [r7, #4]
 8001b42:	659a      	str	r2, [r3, #88]	; 0x58
 8001b44:	e007      	b.n	8001b56 <DMA_CalcBaseAndBitshift+0x52>
  }
  else
  {
    /* return pointer to LISR and LIFCR */
    hdma->StreamBaseAddress = ((uint32_t)hdma->Instance & (uint32_t)(~0x3FFU));
 8001b46:	687b      	ldr	r3, [r7, #4]
 8001b48:	681b      	ldr	r3, [r3, #0]
 8001b4a:	f423 737f 	bic.w	r3, r3, #1020	; 0x3fc
 8001b4e:	f023 0303 	bic.w	r3, r3, #3
 8001b52:	687a      	ldr	r2, [r7, #4]
 8001b54:	6593      	str	r3, [r2, #88]	; 0x58
  }
  
  return hdma->StreamBaseAddress;
 8001b56:	687b      	ldr	r3, [r7, #4]
 8001b58:	6d9b      	ldr	r3, [r3, #88]	; 0x58
}
 8001b5a:	4618      	mov	r0, r3
 8001b5c:	3714      	adds	r7, #20
 8001b5e:	46bd      	mov	sp, r7
 8001b60:	f85d 7b04 	ldr.w	r7, [sp], #4
 8001b64:	4770      	bx	lr
 8001b66:	bf00      	nop
 8001b68:	aaaaaaab 	.word	0xaaaaaaab
 8001b6c:	080028a4 	.word	0x080028a4

08001b70 <DMA_CheckFifoParam>:
  * @param  hdma       pointer to a DMA_HandleTypeDef structure that contains
  *                     the configuration information for the specified DMA Stream. 
  * @retval HAL status
  */
static HAL_StatusTypeDef DMA_CheckFifoParam(DMA_HandleTypeDef *hdma)
{
 8001b70:	b480      	push	{r7}
 8001b72:	b085      	sub	sp, #20
 8001b74:	af00      	add	r7, sp, #0
 8001b76:	6078      	str	r0, [r7, #4]
  HAL_StatusTypeDef status = HAL_OK;
 8001b78:	2300      	movs	r3, #0
 8001b7a:	73fb      	strb	r3, [r7, #15]
  uint32_t tmp = hdma->Init.FIFOThreshold;
 8001b7c:	687b      	ldr	r3, [r7, #4]
 8001b7e:	6a9b      	ldr	r3, [r3, #40]	; 0x28
 8001b80:	60bb      	str	r3, [r7, #8]
  
  /* Memory Data size equal to Byte */
  if(hdma->Init.MemDataAlignment == DMA_MDATAALIGN_BYTE)
 8001b82:	687b      	ldr	r3, [r7, #4]
 8001b84:	699b      	ldr	r3, [r3, #24]
 8001b86:	2b00      	cmp	r3, #0
 8001b88:	d11f      	bne.n	8001bca <DMA_CheckFifoParam+0x5a>
 8001b8a:	68bb      	ldr	r3, [r7, #8]
 8001b8c:	2b03      	cmp	r3, #3
 8001b8e:	d856      	bhi.n	8001c3e <DMA_CheckFifoParam+0xce>
 8001b90:	a201      	add	r2, pc, #4	; (adr r2, 8001b98 <DMA_CheckFifoParam+0x28>)
 8001b92:	f852 f023 	ldr.w	pc, [r2, r3, lsl #2]
 8001b96:	bf00      	nop
 8001b98:	08001ba9 	.word	0x08001ba9
 8001b9c:	08001bbb 	.word	0x08001bbb
 8001ba0:	08001ba9 	.word	0x08001ba9
 8001ba4:	08001c3f 	.word	0x08001c3f
  {
    switch (tmp)
    {
    case DMA_FIFO_THRESHOLD_1QUARTERFULL:
    case DMA_FIFO_THRESHOLD_3QUARTERSFULL:
      if ((hdma->Init.MemBurst & DMA_SxCR_MBURST_1) == DMA_SxCR_MBURST_1)
 8001ba8:	687b      	ldr	r3, [r7, #4]
 8001baa:	6adb      	ldr	r3, [r3, #44]	; 0x2c
 8001bac:	f003 7380 	and.w	r3, r3, #16777216	; 0x1000000
 8001bb0:	2b00      	cmp	r3, #0
 8001bb2:	d046      	beq.n	8001c42 <DMA_CheckFifoParam+0xd2>
      {
        status = HAL_ERROR;
 8001bb4:	2301      	movs	r3, #1
 8001bb6:	73fb      	strb	r3, [r7, #15]
      }
      break;
 8001bb8:	e043      	b.n	8001c42 <DMA_CheckFifoParam+0xd2>
    case DMA_FIFO_THRESHOLD_HALFFULL:
      if (hdma->Init.MemBurst == DMA_MBURST_INC16)
 8001bba:	687b      	ldr	r3, [r7, #4]
 8001bbc:	6adb      	ldr	r3, [r3, #44]	; 0x2c
 8001bbe:	f1b3 7fc0 	cmp.w	r3, #25165824	; 0x1800000
 8001bc2:	d140      	bne.n	8001c46 <DMA_CheckFifoParam+0xd6>
      {
        status = HAL_ERROR;
 8001bc4:	2301      	movs	r3, #1
 8001bc6:	73fb      	strb	r3, [r7, #15]
      }
      break;
 8001bc8:	e03d      	b.n	8001c46 <DMA_CheckFifoParam+0xd6>
      break;
    }
  }
  
  /* Memory Data size equal to Half-Word */
  else if (hdma->Init.MemDataAlignment == DMA_MDATAALIGN_HALFWORD)
 8001bca:	687b      	ldr	r3, [r7, #4]
 8001bcc:	699b      	ldr	r3, [r3, #24]
 8001bce:	f5b3 5f00 	cmp.w	r3, #8192	; 0x2000
 8001bd2:	d121      	bne.n	8001c18 <DMA_CheckFifoParam+0xa8>
 8001bd4:	68bb      	ldr	r3, [r7, #8]
 8001bd6:	2b03      	cmp	r3, #3
 8001bd8:	d837      	bhi.n	8001c4a <DMA_CheckFifoParam+0xda>
 8001bda:	a201      	add	r2, pc, #4	; (adr r2, 8001be0 <DMA_CheckFifoParam+0x70>)
 8001bdc:	f852 f023 	ldr.w	pc, [r2, r3, lsl #2]
 8001be0:	08001bf1 	.word	0x08001bf1
 8001be4:	08001bf7 	.word	0x08001bf7
 8001be8:	08001bf1 	.word	0x08001bf1
 8001bec:	08001c09 	.word	0x08001c09
  {
    switch (tmp)
    {
    case DMA_FIFO_THRESHOLD_1QUARTERFULL:
    case DMA_FIFO_THRESHOLD_3QUARTERSFULL:
      status = HAL_ERROR;
 8001bf0:	2301      	movs	r3, #1
 8001bf2:	73fb      	strb	r3, [r7, #15]
      break;
 8001bf4:	e030      	b.n	8001c58 <DMA_CheckFifoParam+0xe8>
    case DMA_FIFO_THRESHOLD_HALFFULL:
      if ((hdma->Init.MemBurst & DMA_SxCR_MBURST_1) == DMA_SxCR_MBURST_1)
 8001bf6:	687b      	ldr	r3, [r7, #4]
 8001bf8:	6adb      	ldr	r3, [r3, #44]	; 0x2c
 8001bfa:	f003 7380 	and.w	r3, r3, #16777216	; 0x1000000
 8001bfe:	2b00      	cmp	r3, #0
 8001c00:	d025      	beq.n	8001c4e <DMA_CheckFifoParam+0xde>
      {
        status = HAL_ERROR;
 8001c02:	2301      	movs	r3, #1
 8001c04:	73fb      	strb	r3, [r7, #15]
      }
      break;
 8001c06:	e022      	b.n	8001c4e <DMA_CheckFifoParam+0xde>
    case DMA_FIFO_THRESHOLD_FULL:
      if (hdma->Init.MemBurst == DMA_MBURST_INC16)
 8001c08:	687b      	ldr	r3, [r7, #4]
 8001c0a:	6adb      	ldr	r3, [r3, #44]	; 0x2c
 8001c0c:	f1b3 7fc0 	cmp.w	r3, #25165824	; 0x1800000
 8001c10:	d11f      	bne.n	8001c52 <DMA_CheckFifoParam+0xe2>
      {
        status = HAL_ERROR;
 8001c12:	2301      	movs	r3, #1
 8001c14:	73fb      	strb	r3, [r7, #15]
      }
      break;   
 8001c16:	e01c      	b.n	8001c52 <DMA_CheckFifoParam+0xe2>
  }
  
  /* Memory Data size equal to Word */
  else
  {
    switch (tmp)
 8001c18:	68bb      	ldr	r3, [r7, #8]
 8001c1a:	2b02      	cmp	r3, #2
 8001c1c:	d903      	bls.n	8001c26 <DMA_CheckFifoParam+0xb6>
 8001c1e:	68bb      	ldr	r3, [r7, #8]
 8001c20:	2b03      	cmp	r3, #3
 8001c22:	d003      	beq.n	8001c2c <DMA_CheckFifoParam+0xbc>
      {
        status = HAL_ERROR;
      }
      break;
    default:
      break;
 8001c24:	e018      	b.n	8001c58 <DMA_CheckFifoParam+0xe8>
      status = HAL_ERROR;
 8001c26:	2301      	movs	r3, #1
 8001c28:	73fb      	strb	r3, [r7, #15]
      break;
 8001c2a:	e015      	b.n	8001c58 <DMA_CheckFifoParam+0xe8>
      if ((hdma->Init.MemBurst & DMA_SxCR_MBURST_1) == DMA_SxCR_MBURST_1)
 8001c2c:	687b      	ldr	r3, [r7, #4]
 8001c2e:	6adb      	ldr	r3, [r3, #44]	; 0x2c
 8001c30:	f003 7380 	and.w	r3, r3, #16777216	; 0x1000000
 8001c34:	2b00      	cmp	r3, #0
 8001c36:	d00e      	beq.n	8001c56 <DMA_CheckFifoParam+0xe6>
        status = HAL_ERROR;
 8001c38:	2301      	movs	r3, #1
 8001c3a:	73fb      	strb	r3, [r7, #15]
      break;
 8001c3c:	e00b      	b.n	8001c56 <DMA_CheckFifoParam+0xe6>
      break;
 8001c3e:	bf00      	nop
 8001c40:	e00a      	b.n	8001c58 <DMA_CheckFifoParam+0xe8>
      break;
 8001c42:	bf00      	nop
 8001c44:	e008      	b.n	8001c58 <DMA_CheckFifoParam+0xe8>
      break;
 8001c46:	bf00      	nop
 8001c48:	e006      	b.n	8001c58 <DMA_CheckFifoParam+0xe8>
      break;
 8001c4a:	bf00      	nop
 8001c4c:	e004      	b.n	8001c58 <DMA_CheckFifoParam+0xe8>
      break;
 8001c4e:	bf00      	nop
 8001c50:	e002      	b.n	8001c58 <DMA_CheckFifoParam+0xe8>
      break;   
 8001c52:	bf00      	nop
 8001c54:	e000      	b.n	8001c58 <DMA_CheckFifoParam+0xe8>
      break;
 8001c56:	bf00      	nop
    }
  } 
  
  return status; 
 8001c58:	7bfb      	ldrb	r3, [r7, #15]
}
 8001c5a:	4618      	mov	r0, r3
 8001c5c:	3714      	adds	r7, #20
 8001c5e:	46bd      	mov	sp, r7
 8001c60:	f85d 7b04 	ldr.w	r7, [sp], #4
 8001c64:	4770      	bx	lr
 8001c66:	bf00      	nop

08001c68 <HAL_GPIO_Init>:
  * @param  GPIO_Init pointer to a GPIO_InitTypeDef structure that contains
  *         the configuration information for the specified GPIO peripheral.
  * @retval None
  */
void HAL_GPIO_Init(GPIO_TypeDef  *GPIOx, GPIO_InitTypeDef *GPIO_Init)
{
 8001c68:	b480      	push	{r7}
 8001c6a:	b089      	sub	sp, #36	; 0x24
 8001c6c:	af00      	add	r7, sp, #0
 8001c6e:	6078      	str	r0, [r7, #4]
 8001c70:	6039      	str	r1, [r7, #0]
  uint32_t position;
  uint32_t ioposition = 0x00U;
 8001c72:	2300      	movs	r3, #0
 8001c74:	617b      	str	r3, [r7, #20]
  uint32_t iocurrent = 0x00U;
 8001c76:	2300      	movs	r3, #0
 8001c78:	613b      	str	r3, [r7, #16]
  uint32_t temp = 0x00U;
 8001c7a:	2300      	movs	r3, #0
 8001c7c:	61bb      	str	r3, [r7, #24]
  assert_param(IS_GPIO_ALL_INSTANCE(GPIOx));
  assert_param(IS_GPIO_PIN(GPIO_Init->Pin));
  assert_param(IS_GPIO_MODE(GPIO_Init->Mode));

  /* Configure the port pins */
  for(position = 0U; position < GPIO_NUMBER; position++)
 8001c7e:	2300      	movs	r3, #0
 8001c80:	61fb      	str	r3, [r7, #28]
 8001c82:	e159      	b.n	8001f38 <HAL_GPIO_Init+0x2d0>
  {
    /* Get the IO position */
    ioposition = 0x01U << position;
 8001c84:	2201      	movs	r2, #1
 8001c86:	69fb      	ldr	r3, [r7, #28]
 8001c88:	fa02 f303 	lsl.w	r3, r2, r3
 8001c8c:	617b      	str	r3, [r7, #20]
    /* Get the current IO position */
    iocurrent = (uint32_t)(GPIO_Init->Pin) & ioposition;
 8001c8e:	683b      	ldr	r3, [r7, #0]
 8001c90:	681b      	ldr	r3, [r3, #0]
 8001c92:	697a      	ldr	r2, [r7, #20]
 8001c94:	4013      	ands	r3, r2
 8001c96:	613b      	str	r3, [r7, #16]

    if(iocurrent == ioposition)
 8001c98:	693a      	ldr	r2, [r7, #16]
 8001c9a:	697b      	ldr	r3, [r7, #20]
 8001c9c:	429a      	cmp	r2, r3
 8001c9e:	f040 8148 	bne.w	8001f32 <HAL_GPIO_Init+0x2ca>
    {
      /*--------------------- GPIO Mode Configuration ------------------------*/
      /* In case of Output or Alternate function mode selection */
      if(((GPIO_Init->Mode & GPIO_MODE) == MODE_OUTPUT) || \
 8001ca2:	683b      	ldr	r3, [r7, #0]
 8001ca4:	685b      	ldr	r3, [r3, #4]
 8001ca6:	f003 0303 	and.w	r3, r3, #3
 8001caa:	2b01      	cmp	r3, #1
 8001cac:	d005      	beq.n	8001cba <HAL_GPIO_Init+0x52>
          (GPIO_Init->Mode & GPIO_MODE) == MODE_AF)
 8001cae:	683b      	ldr	r3, [r7, #0]
 8001cb0:	685b      	ldr	r3, [r3, #4]
 8001cb2:	f003 0303 	and.w	r3, r3, #3
      if(((GPIO_Init->Mode & GPIO_MODE) == MODE_OUTPUT) || \
 8001cb6:	2b02      	cmp	r3, #2
 8001cb8:	d130      	bne.n	8001d1c <HAL_GPIO_Init+0xb4>
      {
        /* Check the Speed parameter */
        assert_param(IS_GPIO_SPEED(GPIO_Init->Speed));
        /* Configure the IO Speed */
        temp = GPIOx->OSPEEDR; 
 8001cba:	687b      	ldr	r3, [r7, #4]
 8001cbc:	689b      	ldr	r3, [r3, #8]
 8001cbe:	61bb      	str	r3, [r7, #24]
        temp &= ~(GPIO_OSPEEDER_OSPEEDR0 << (position * 2U));
 8001cc0:	69fb      	ldr	r3, [r7, #28]
 8001cc2:	005b      	lsls	r3, r3, #1
 8001cc4:	2203      	movs	r2, #3
 8001cc6:	fa02 f303 	lsl.w	r3, r2, r3
 8001cca:	43db      	mvns	r3, r3
 8001ccc:	69ba      	ldr	r2, [r7, #24]
 8001cce:	4013      	ands	r3, r2
 8001cd0:	61bb      	str	r3, [r7, #24]
        temp |= (GPIO_Init->Speed << (position * 2U));
 8001cd2:	683b      	ldr	r3, [r7, #0]
 8001cd4:	68da      	ldr	r2, [r3, #12]
 8001cd6:	69fb      	ldr	r3, [r7, #28]
 8001cd8:	005b      	lsls	r3, r3, #1
 8001cda:	fa02 f303 	lsl.w	r3, r2, r3
 8001cde:	69ba      	ldr	r2, [r7, #24]
 8001ce0:	4313      	orrs	r3, r2
 8001ce2:	61bb      	str	r3, [r7, #24]
        GPIOx->OSPEEDR = temp;
 8001ce4:	687b      	ldr	r3, [r7, #4]
 8001ce6:	69ba      	ldr	r2, [r7, #24]
 8001ce8:	609a      	str	r2, [r3, #8]

        /* Configure the IO Output Type */
        temp = GPIOx->OTYPER;
 8001cea:	687b      	ldr	r3, [r7, #4]
 8001cec:	685b      	ldr	r3, [r3, #4]
 8001cee:	61bb      	str	r3, [r7, #24]
        temp &= ~(GPIO_OTYPER_OT_0 << position) ;
 8001cf0:	2201      	movs	r2, #1
 8001cf2:	69fb      	ldr	r3, [r7, #28]
 8001cf4:	fa02 f303 	lsl.w	r3, r2, r3
 8001cf8:	43db      	mvns	r3, r3
 8001cfa:	69ba      	ldr	r2, [r7, #24]
 8001cfc:	4013      	ands	r3, r2
 8001cfe:	61bb      	str	r3, [r7, #24]
        temp |= (((GPIO_Init->Mode & OUTPUT_TYPE) >> OUTPUT_TYPE_Pos) << position);
 8001d00:	683b      	ldr	r3, [r7, #0]
 8001d02:	685b      	ldr	r3, [r3, #4]
 8001d04:	091b      	lsrs	r3, r3, #4
 8001d06:	f003 0201 	and.w	r2, r3, #1
 8001d0a:	69fb      	ldr	r3, [r7, #28]
 8001d0c:	fa02 f303 	lsl.w	r3, r2, r3
 8001d10:	69ba      	ldr	r2, [r7, #24]
 8001d12:	4313      	orrs	r3, r2
 8001d14:	61bb      	str	r3, [r7, #24]
        GPIOx->OTYPER = temp;
 8001d16:	687b      	ldr	r3, [r7, #4]
 8001d18:	69ba      	ldr	r2, [r7, #24]
 8001d1a:	605a      	str	r2, [r3, #4]
       }

      if((GPIO_Init->Mode & GPIO_MODE) != MODE_ANALOG)
 8001d1c:	683b      	ldr	r3, [r7, #0]
 8001d1e:	685b      	ldr	r3, [r3, #4]
 8001d20:	f003 0303 	and.w	r3, r3, #3
 8001d24:	2b03      	cmp	r3, #3
 8001d26:	d017      	beq.n	8001d58 <HAL_GPIO_Init+0xf0>
      {
        /* Check the parameters */
        assert_param(IS_GPIO_PULL(GPIO_Init->Pull));
        
        /* Activate the Pull-up or Pull down resistor for the current IO */
        temp = GPIOx->PUPDR;
 8001d28:	687b      	ldr	r3, [r7, #4]
 8001d2a:	68db      	ldr	r3, [r3, #12]
 8001d2c:	61bb      	str	r3, [r7, #24]
        temp &= ~(GPIO_PUPDR_PUPDR0 << (position * 2U));
 8001d2e:	69fb      	ldr	r3, [r7, #28]
 8001d30:	005b      	lsls	r3, r3, #1
 8001d32:	2203      	movs	r2, #3
 8001d34:	fa02 f303 	lsl.w	r3, r2, r3
 8001d38:	43db      	mvns	r3, r3
 8001d3a:	69ba      	ldr	r2, [r7, #24]
 8001d3c:	4013      	ands	r3, r2
 8001d3e:	61bb      	str	r3, [r7, #24]
        temp |= ((GPIO_Init->Pull) << (position * 2U));
 8001d40:	683b      	ldr	r3, [r7, #0]
 8001d42:	689a      	ldr	r2, [r3, #8]
 8001d44:	69fb      	ldr	r3, [r7, #28]
 8001d46:	005b      	lsls	r3, r3, #1
 8001d48:	fa02 f303 	lsl.w	r3, r2, r3
 8001d4c:	69ba      	ldr	r2, [r7, #24]
 8001d4e:	4313      	orrs	r3, r2
 8001d50:	61bb      	str	r3, [r7, #24]
        GPIOx->PUPDR = temp;
 8001d52:	687b      	ldr	r3, [r7, #4]
 8001d54:	69ba      	ldr	r2, [r7, #24]
 8001d56:	60da      	str	r2, [r3, #12]
      }

      /* In case of Alternate function mode selection */
      if((GPIO_Init->Mode & GPIO_MODE) == MODE_AF)
 8001d58:	683b      	ldr	r3, [r7, #0]
 8001d5a:	685b      	ldr	r3, [r3, #4]
 8001d5c:	f003 0303 	and.w	r3, r3, #3
 8001d60:	2b02      	cmp	r3, #2
 8001d62:	d123      	bne.n	8001dac <HAL_GPIO_Init+0x144>
      {
        /* Check the Alternate function parameter */
        assert_param(IS_GPIO_AF(GPIO_Init->Alternate));
        /* Configure Alternate function mapped with the current IO */
        temp = GPIOx->AFR[position >> 3U];
 8001d64:	69fb      	ldr	r3, [r7, #28]
 8001d66:	08da      	lsrs	r2, r3, #3
 8001d68:	687b      	ldr	r3, [r7, #4]
 8001d6a:	3208      	adds	r2, #8
 8001d6c:	f853 3022 	ldr.w	r3, [r3, r2, lsl #2]
 8001d70:	61bb      	str	r3, [r7, #24]
        temp &= ~(0xFU << ((uint32_t)(position & 0x07U) * 4U)) ;
 8001d72:	69fb      	ldr	r3, [r7, #28]
 8001d74:	f003 0307 	and.w	r3, r3, #7
 8001d78:	009b      	lsls	r3, r3, #2
 8001d7a:	220f      	movs	r2, #15
 8001d7c:	fa02 f303 	lsl.w	r3, r2, r3
 8001d80:	43db      	mvns	r3, r3
 8001d82:	69ba      	ldr	r2, [r7, #24]
 8001d84:	4013      	ands	r3, r2
 8001d86:	61bb      	str	r3, [r7, #24]
        temp |= ((uint32_t)(GPIO_Init->Alternate) << (((uint32_t)position & 0x07U) * 4U));
 8001d88:	683b      	ldr	r3, [r7, #0]
 8001d8a:	691a      	ldr	r2, [r3, #16]
 8001d8c:	69fb      	ldr	r3, [r7, #28]
 8001d8e:	f003 0307 	and.w	r3, r3, #7
 8001d92:	009b      	lsls	r3, r3, #2
 8001d94:	fa02 f303 	lsl.w	r3, r2, r3
 8001d98:	69ba      	ldr	r2, [r7, #24]
 8001d9a:	4313      	orrs	r3, r2
 8001d9c:	61bb      	str	r3, [r7, #24]
        GPIOx->AFR[position >> 3U] = temp;
 8001d9e:	69fb      	ldr	r3, [r7, #28]
 8001da0:	08da      	lsrs	r2, r3, #3
 8001da2:	687b      	ldr	r3, [r7, #4]
 8001da4:	3208      	adds	r2, #8
 8001da6:	69b9      	ldr	r1, [r7, #24]
 8001da8:	f843 1022 	str.w	r1, [r3, r2, lsl #2]
      }

      /* Configure IO Direction mode (Input, Output, Alternate or Analog) */
      temp = GPIOx->MODER;
 8001dac:	687b      	ldr	r3, [r7, #4]
 8001dae:	681b      	ldr	r3, [r3, #0]
 8001db0:	61bb      	str	r3, [r7, #24]
      temp &= ~(GPIO_MODER_MODER0 << (position * 2U));
 8001db2:	69fb      	ldr	r3, [r7, #28]
 8001db4:	005b      	lsls	r3, r3, #1
 8001db6:	2203      	movs	r2, #3
 8001db8:	fa02 f303 	lsl.w	r3, r2, r3
 8001dbc:	43db      	mvns	r3, r3
 8001dbe:	69ba      	ldr	r2, [r7, #24]
 8001dc0:	4013      	ands	r3, r2
 8001dc2:	61bb      	str	r3, [r7, #24]
      temp |= ((GPIO_Init->Mode & GPIO_MODE) << (position * 2U));
 8001dc4:	683b      	ldr	r3, [r7, #0]
 8001dc6:	685b      	ldr	r3, [r3, #4]
 8001dc8:	f003 0203 	and.w	r2, r3, #3
 8001dcc:	69fb      	ldr	r3, [r7, #28]
 8001dce:	005b      	lsls	r3, r3, #1
 8001dd0:	fa02 f303 	lsl.w	r3, r2, r3
 8001dd4:	69ba      	ldr	r2, [r7, #24]
 8001dd6:	4313      	orrs	r3, r2
 8001dd8:	61bb      	str	r3, [r7, #24]
      GPIOx->MODER = temp;
 8001dda:	687b      	ldr	r3, [r7, #4]
 8001ddc:	69ba      	ldr	r2, [r7, #24]
 8001dde:	601a      	str	r2, [r3, #0]

      /*--------------------- EXTI Mode Configuration ------------------------*/
      /* Configure the External Interrupt or event for the current IO */
      if((GPIO_Init->Mode & EXTI_MODE) != 0x00U)
 8001de0:	683b      	ldr	r3, [r7, #0]
 8001de2:	685b      	ldr	r3, [r3, #4]
 8001de4:	f403 3340 	and.w	r3, r3, #196608	; 0x30000
 8001de8:	2b00      	cmp	r3, #0
 8001dea:	f000 80a2 	beq.w	8001f32 <HAL_GPIO_Init+0x2ca>
      {
        /* Enable SYSCFG Clock */
        __HAL_RCC_SYSCFG_CLK_ENABLE();
 8001dee:	2300      	movs	r3, #0
 8001df0:	60fb      	str	r3, [r7, #12]
 8001df2:	4b57      	ldr	r3, [pc, #348]	; (8001f50 <HAL_GPIO_Init+0x2e8>)
 8001df4:	6c5b      	ldr	r3, [r3, #68]	; 0x44
 8001df6:	4a56      	ldr	r2, [pc, #344]	; (8001f50 <HAL_GPIO_Init+0x2e8>)
 8001df8:	f443 4380 	orr.w	r3, r3, #16384	; 0x4000
 8001dfc:	6453      	str	r3, [r2, #68]	; 0x44
 8001dfe:	4b54      	ldr	r3, [pc, #336]	; (8001f50 <HAL_GPIO_Init+0x2e8>)
 8001e00:	6c5b      	ldr	r3, [r3, #68]	; 0x44
 8001e02:	f403 4380 	and.w	r3, r3, #16384	; 0x4000
 8001e06:	60fb      	str	r3, [r7, #12]
 8001e08:	68fb      	ldr	r3, [r7, #12]

        temp = SYSCFG->EXTICR[position >> 2U];
 8001e0a:	4a52      	ldr	r2, [pc, #328]	; (8001f54 <HAL_GPIO_Init+0x2ec>)
 8001e0c:	69fb      	ldr	r3, [r7, #28]
 8001e0e:	089b      	lsrs	r3, r3, #2
 8001e10:	3302      	adds	r3, #2
 8001e12:	f852 3023 	ldr.w	r3, [r2, r3, lsl #2]
 8001e16:	61bb      	str	r3, [r7, #24]
        temp &= ~(0x0FU << (4U * (position & 0x03U)));
 8001e18:	69fb      	ldr	r3, [r7, #28]
 8001e1a:	f003 0303 	and.w	r3, r3, #3
 8001e1e:	009b      	lsls	r3, r3, #2
 8001e20:	220f      	movs	r2, #15
 8001e22:	fa02 f303 	lsl.w	r3, r2, r3
 8001e26:	43db      	mvns	r3, r3
 8001e28:	69ba      	ldr	r2, [r7, #24]
 8001e2a:	4013      	ands	r3, r2
 8001e2c:	61bb      	str	r3, [r7, #24]
        temp |= ((uint32_t)(GPIO_GET_INDEX(GPIOx)) << (4U * (position & 0x03U)));
 8001e2e:	687b      	ldr	r3, [r7, #4]
 8001e30:	4a49      	ldr	r2, [pc, #292]	; (8001f58 <HAL_GPIO_Init+0x2f0>)
 8001e32:	4293      	cmp	r3, r2
 8001e34:	d019      	beq.n	8001e6a <HAL_GPIO_Init+0x202>
 8001e36:	687b      	ldr	r3, [r7, #4]
 8001e38:	4a48      	ldr	r2, [pc, #288]	; (8001f5c <HAL_GPIO_Init+0x2f4>)
 8001e3a:	4293      	cmp	r3, r2
 8001e3c:	d013      	beq.n	8001e66 <HAL_GPIO_Init+0x1fe>
 8001e3e:	687b      	ldr	r3, [r7, #4]
 8001e40:	4a47      	ldr	r2, [pc, #284]	; (8001f60 <HAL_GPIO_Init+0x2f8>)
 8001e42:	4293      	cmp	r3, r2
 8001e44:	d00d      	beq.n	8001e62 <HAL_GPIO_Init+0x1fa>
 8001e46:	687b      	ldr	r3, [r7, #4]
 8001e48:	4a46      	ldr	r2, [pc, #280]	; (8001f64 <HAL_GPIO_Init+0x2fc>)
 8001e4a:	4293      	cmp	r3, r2
 8001e4c:	d007      	beq.n	8001e5e <HAL_GPIO_Init+0x1f6>
 8001e4e:	687b      	ldr	r3, [r7, #4]
 8001e50:	4a45      	ldr	r2, [pc, #276]	; (8001f68 <HAL_GPIO_Init+0x300>)
 8001e52:	4293      	cmp	r3, r2
 8001e54:	d101      	bne.n	8001e5a <HAL_GPIO_Init+0x1f2>
 8001e56:	2304      	movs	r3, #4
 8001e58:	e008      	b.n	8001e6c <HAL_GPIO_Init+0x204>
 8001e5a:	2307      	movs	r3, #7
 8001e5c:	e006      	b.n	8001e6c <HAL_GPIO_Init+0x204>
 8001e5e:	2303      	movs	r3, #3
 8001e60:	e004      	b.n	8001e6c <HAL_GPIO_Init+0x204>
 8001e62:	2302      	movs	r3, #2
 8001e64:	e002      	b.n	8001e6c <HAL_GPIO_Init+0x204>
 8001e66:	2301      	movs	r3, #1
 8001e68:	e000      	b.n	8001e6c <HAL_GPIO_Init+0x204>
 8001e6a:	2300      	movs	r3, #0
 8001e6c:	69fa      	ldr	r2, [r7, #28]
 8001e6e:	f002 0203 	and.w	r2, r2, #3
 8001e72:	0092      	lsls	r2, r2, #2
 8001e74:	4093      	lsls	r3, r2
 8001e76:	69ba      	ldr	r2, [r7, #24]
 8001e78:	4313      	orrs	r3, r2
 8001e7a:	61bb      	str	r3, [r7, #24]
        SYSCFG->EXTICR[position >> 2U] = temp;
 8001e7c:	4935      	ldr	r1, [pc, #212]	; (8001f54 <HAL_GPIO_Init+0x2ec>)
 8001e7e:	69fb      	ldr	r3, [r7, #28]
 8001e80:	089b      	lsrs	r3, r3, #2
 8001e82:	3302      	adds	r3, #2
 8001e84:	69ba      	ldr	r2, [r7, #24]
 8001e86:	f841 2023 	str.w	r2, [r1, r3, lsl #2]

        /* Clear EXTI line configuration */
        temp = EXTI->IMR;
 8001e8a:	4b38      	ldr	r3, [pc, #224]	; (8001f6c <HAL_GPIO_Init+0x304>)
 8001e8c:	681b      	ldr	r3, [r3, #0]
 8001e8e:	61bb      	str	r3, [r7, #24]
        temp &= ~((uint32_t)iocurrent);
 8001e90:	693b      	ldr	r3, [r7, #16]
 8001e92:	43db      	mvns	r3, r3
 8001e94:	69ba      	ldr	r2, [r7, #24]
 8001e96:	4013      	ands	r3, r2
 8001e98:	61bb      	str	r3, [r7, #24]
        if((GPIO_Init->Mode & EXTI_IT) != 0x00U)
 8001e9a:	683b      	ldr	r3, [r7, #0]
 8001e9c:	685b      	ldr	r3, [r3, #4]
 8001e9e:	f403 3380 	and.w	r3, r3, #65536	; 0x10000
 8001ea2:	2b00      	cmp	r3, #0
 8001ea4:	d003      	beq.n	8001eae <HAL_GPIO_Init+0x246>
        {
          temp |= iocurrent;
 8001ea6:	69ba      	ldr	r2, [r7, #24]
 8001ea8:	693b      	ldr	r3, [r7, #16]
 8001eaa:	4313      	orrs	r3, r2
 8001eac:	61bb      	str	r3, [r7, #24]
        }
        EXTI->IMR = temp;
 8001eae:	4a2f      	ldr	r2, [pc, #188]	; (8001f6c <HAL_GPIO_Init+0x304>)
 8001eb0:	69bb      	ldr	r3, [r7, #24]
 8001eb2:	6013      	str	r3, [r2, #0]

        temp = EXTI->EMR;
 8001eb4:	4b2d      	ldr	r3, [pc, #180]	; (8001f6c <HAL_GPIO_Init+0x304>)
 8001eb6:	685b      	ldr	r3, [r3, #4]
 8001eb8:	61bb      	str	r3, [r7, #24]
        temp &= ~((uint32_t)iocurrent);
 8001eba:	693b      	ldr	r3, [r7, #16]
 8001ebc:	43db      	mvns	r3, r3
 8001ebe:	69ba      	ldr	r2, [r7, #24]
 8001ec0:	4013      	ands	r3, r2
 8001ec2:	61bb      	str	r3, [r7, #24]
        if((GPIO_Init->Mode & EXTI_EVT) != 0x00U)
 8001ec4:	683b      	ldr	r3, [r7, #0]
 8001ec6:	685b      	ldr	r3, [r3, #4]
 8001ec8:	f403 3300 	and.w	r3, r3, #131072	; 0x20000
 8001ecc:	2b00      	cmp	r3, #0
 8001ece:	d003      	beq.n	8001ed8 <HAL_GPIO_Init+0x270>
        {
          temp |= iocurrent;
 8001ed0:	69ba      	ldr	r2, [r7, #24]
 8001ed2:	693b      	ldr	r3, [r7, #16]
 8001ed4:	4313      	orrs	r3, r2
 8001ed6:	61bb      	str	r3, [r7, #24]
        }
        EXTI->EMR = temp;
 8001ed8:	4a24      	ldr	r2, [pc, #144]	; (8001f6c <HAL_GPIO_Init+0x304>)
 8001eda:	69bb      	ldr	r3, [r7, #24]
 8001edc:	6053      	str	r3, [r2, #4]

        /* Clear Rising Falling edge configuration */
        temp = EXTI->RTSR;
 8001ede:	4b23      	ldr	r3, [pc, #140]	; (8001f6c <HAL_GPIO_Init+0x304>)
 8001ee0:	689b      	ldr	r3, [r3, #8]
 8001ee2:	61bb      	str	r3, [r7, #24]
        temp &= ~((uint32_t)iocurrent);
 8001ee4:	693b      	ldr	r3, [r7, #16]
 8001ee6:	43db      	mvns	r3, r3
 8001ee8:	69ba      	ldr	r2, [r7, #24]
 8001eea:	4013      	ands	r3, r2
 8001eec:	61bb      	str	r3, [r7, #24]
        if((GPIO_Init->Mode & TRIGGER_RISING) != 0x00U)
 8001eee:	683b      	ldr	r3, [r7, #0]
 8001ef0:	685b      	ldr	r3, [r3, #4]
 8001ef2:	f403 1380 	and.w	r3, r3, #1048576	; 0x100000
 8001ef6:	2b00      	cmp	r3, #0
 8001ef8:	d003      	beq.n	8001f02 <HAL_GPIO_Init+0x29a>
        {
          temp |= iocurrent;
 8001efa:	69ba      	ldr	r2, [r7, #24]
 8001efc:	693b      	ldr	r3, [r7, #16]
 8001efe:	4313      	orrs	r3, r2
 8001f00:	61bb      	str	r3, [r7, #24]
        }
        EXTI->RTSR = temp;
 8001f02:	4a1a      	ldr	r2, [pc, #104]	; (8001f6c <HAL_GPIO_Init+0x304>)
 8001f04:	69bb      	ldr	r3, [r7, #24]
 8001f06:	6093      	str	r3, [r2, #8]

        temp = EXTI->FTSR;
 8001f08:	4b18      	ldr	r3, [pc, #96]	; (8001f6c <HAL_GPIO_Init+0x304>)
 8001f0a:	68db      	ldr	r3, [r3, #12]
 8001f0c:	61bb      	str	r3, [r7, #24]
        temp &= ~((uint32_t)iocurrent);
 8001f0e:	693b      	ldr	r3, [r7, #16]
 8001f10:	43db      	mvns	r3, r3
 8001f12:	69ba      	ldr	r2, [r7, #24]
 8001f14:	4013      	ands	r3, r2
 8001f16:	61bb      	str	r3, [r7, #24]
        if((GPIO_Init->Mode & TRIGGER_FALLING) != 0x00U)
 8001f18:	683b      	ldr	r3, [r7, #0]
 8001f1a:	685b      	ldr	r3, [r3, #4]
 8001f1c:	f403 1300 	and.w	r3, r3, #2097152	; 0x200000
 8001f20:	2b00      	cmp	r3, #0
 8001f22:	d003      	beq.n	8001f2c <HAL_GPIO_Init+0x2c4>
        {
          temp |= iocurrent;
 8001f24:	69ba      	ldr	r2, [r7, #24]
 8001f26:	693b      	ldr	r3, [r7, #16]
 8001f28:	4313      	orrs	r3, r2
 8001f2a:	61bb      	str	r3, [r7, #24]
        }
        EXTI->FTSR = temp;
 8001f2c:	4a0f      	ldr	r2, [pc, #60]	; (8001f6c <HAL_GPIO_Init+0x304>)
 8001f2e:	69bb      	ldr	r3, [r7, #24]
 8001f30:	60d3      	str	r3, [r2, #12]
  for(position = 0U; position < GPIO_NUMBER; position++)
 8001f32:	69fb      	ldr	r3, [r7, #28]
 8001f34:	3301      	adds	r3, #1
 8001f36:	61fb      	str	r3, [r7, #28]
 8001f38:	69fb      	ldr	r3, [r7, #28]
 8001f3a:	2b0f      	cmp	r3, #15
 8001f3c:	f67f aea2 	bls.w	8001c84 <HAL_GPIO_Init+0x1c>
      }
    }
  }
}
 8001f40:	bf00      	nop
 8001f42:	bf00      	nop
 8001f44:	3724      	adds	r7, #36	; 0x24
 8001f46:	46bd      	mov	sp, r7
 8001f48:	f85d 7b04 	ldr.w	r7, [sp], #4
 8001f4c:	4770      	bx	lr
 8001f4e:	bf00      	nop
 8001f50:	40023800 	.word	0x40023800
 8001f54:	40013800 	.word	0x40013800
 8001f58:	40020000 	.word	0x40020000
 8001f5c:	40020400 	.word	0x40020400
 8001f60:	40020800 	.word	0x40020800
 8001f64:	40020c00 	.word	0x40020c00
 8001f68:	40021000 	.word	0x40021000
 8001f6c:	40013c00 	.word	0x40013c00

08001f70 <HAL_GPIO_WritePin>:
  *            @arg GPIO_PIN_RESET: to clear the port pin
  *            @arg GPIO_PIN_SET: to set the port pin
  * @retval None
  */
void HAL_GPIO_WritePin(GPIO_TypeDef* GPIOx, uint16_t GPIO_Pin, GPIO_PinState PinState)
{
 8001f70:	b480      	push	{r7}
 8001f72:	b083      	sub	sp, #12
 8001f74:	af00      	add	r7, sp, #0
 8001f76:	6078      	str	r0, [r7, #4]
 8001f78:	460b      	mov	r3, r1
 8001f7a:	807b      	strh	r3, [r7, #2]
 8001f7c:	4613      	mov	r3, r2
 8001f7e:	707b      	strb	r3, [r7, #1]
  /* Check the parameters */
  assert_param(IS_GPIO_PIN(GPIO_Pin));
  assert_param(IS_GPIO_PIN_ACTION(PinState));

  if(PinState != GPIO_PIN_RESET)
 8001f80:	787b      	ldrb	r3, [r7, #1]
 8001f82:	2b00      	cmp	r3, #0
 8001f84:	d003      	beq.n	8001f8e <HAL_GPIO_WritePin+0x1e>
  {
    GPIOx->BSRR = GPIO_Pin;
 8001f86:	887a      	ldrh	r2, [r7, #2]
 8001f88:	687b      	ldr	r3, [r7, #4]
 8001f8a:	619a      	str	r2, [r3, #24]
